{
  "contractName": "Prescurity",
  "abi": [
    {
      "inputs": [],
      "payable": false,
      "stateMutability": "nonpayable",
      "type": "constructor"
    },
    {
      "anonymous": false,
      "inputs": [
        {
          "components": [
            {
              "internalType": "uint256",
              "name": "id",
              "type": "uint256"
            },
            {
              "internalType": "uint256",
              "name": "patientId",
              "type": "uint256"
            },
            {
              "internalType": "uint256",
              "name": "doctorId",
              "type": "uint256"
            },
            {
              "internalType": "string",
              "name": "medicine",
              "type": "string"
            },
            {
              "internalType": "string",
              "name": "disease",
              "type": "string"
            },
            {
              "internalType": "string",
              "name": "frequency",
              "type": "string"
            },
            {
              "internalType": "uint256",
              "name": "startTimestamp",
              "type": "uint256"
            },
            {
              "internalType": "uint256",
              "name": "endTimestamp",
              "type": "uint256"
            },
            {
              "internalType": "uint256",
              "name": "dueToDoctor",
              "type": "uint256"
            },
            {
              "internalType": "bool",
              "name": "claimed",
              "type": "bool"
            },
            {
              "internalType": "bool",
              "name": "paid",
              "type": "bool"
            }
          ],
          "indexed": false,
          "internalType": "struct Prescurity.Prescription",
          "name": "prescription",
          "type": "tuple"
        },
        {
          "components": [
            {
              "internalType": "uint256",
              "name": "numero_secu",
              "type": "uint256"
            },
            {
              "internalType": "address",
              "name": "patientAddress",
              "type": "address"
            },
            {
              "internalType": "uint256[]",
              "name": "prescriptionsIds",
              "type": "uint256[]"
            },
            {
              "internalType": "bool",
              "name": "isValue",
              "type": "bool"
            }
          ],
          "indexed": false,
          "internalType": "struct Prescurity.Patient",
          "name": "patient",
          "type": "tuple"
        },
        {
          "components": [
            {
              "internalType": "uint256",
              "name": "id",
              "type": "uint256"
            },
            {
              "internalType": "string",
              "name": "speciality",
              "type": "string"
            },
            {
              "internalType": "string",
              "name": "name",
              "type": "string"
            },
            {
              "internalType": "address payable",
              "name": "doctorAddress",
              "type": "address"
            },
            {
              "internalType": "bool",
              "name": "isValue",
              "type": "bool"
            }
          ],
          "indexed": false,
          "internalType": "struct Prescurity.Doctor",
          "name": "doctor",
          "type": "tuple"
        },
        {
          "indexed": false,
          "internalType": "uint256",
          "name": "amount",
          "type": "uint256"
        }
      ],
      "name": "Consultation",
      "type": "event"
    },
    {
      "anonymous": false,
      "inputs": [
        {
          "indexed": true,
          "internalType": "address",
          "name": "old_owner",
          "type": "address"
        },
        {
          "indexed": true,
          "internalType": "address",
          "name": "new_owner",
          "type": "address"
        }
      ],
      "name": "DefineOwnership",
      "type": "event"
    },
    {
      "anonymous": false,
      "inputs": [
        {
          "indexed": false,
          "internalType": "uint256",
          "name": "amount",
          "type": "uint256"
        },
        {
          "indexed": true,
          "internalType": "address",
          "name": "doctorAddress",
          "type": "address"
        },
        {
          "indexed": true,
          "internalType": "address",
          "name": "patientAddress",
          "type": "address"
        },
        {
          "indexed": false,
          "internalType": "uint256",
          "name": "doctorId",
          "type": "uint256"
        }
      ],
      "name": "DoctorPaid",
      "type": "event"
    },
    {
      "anonymous": false,
      "inputs": [
        {
          "components": [
            {
              "internalType": "uint256",
              "name": "numero_secu",
              "type": "uint256"
            },
            {
              "internalType": "address",
              "name": "patientAddress",
              "type": "address"
            },
            {
              "internalType": "uint256[]",
              "name": "prescriptionsIds",
              "type": "uint256[]"
            },
            {
              "internalType": "bool",
              "name": "isValue",
              "type": "bool"
            }
          ],
          "indexed": false,
          "internalType": "struct Prescurity.Patient",
          "name": "patient",
          "type": "tuple"
        },
        {
          "components": [
            {
              "internalType": "uint256",
              "name": "id",
              "type": "uint256"
            },
            {
              "internalType": "string",
              "name": "name",
              "type": "string"
            },
            {
              "internalType": "address",
              "name": "pharmacyAddress",
              "type": "address"
            },
            {
              "internalType": "bool",
              "name": "isValue",
              "type": "bool"
            }
          ],
          "indexed": false,
          "internalType": "struct Prescurity.Pharmacy",
          "name": "pharmacy",
          "type": "tuple"
        },
        {
          "components": [
            {
              "internalType": "uint256",
              "name": "id",
              "type": "uint256"
            },
            {
              "internalType": "uint256",
              "name": "patientId",
              "type": "uint256"
            },
            {
              "internalType": "uint256",
              "name": "doctorId",
              "type": "uint256"
            },
            {
              "internalType": "string",
              "name": "medicine",
              "type": "string"
            },
            {
              "internalType": "string",
              "name": "disease",
              "type": "string"
            },
            {
              "internalType": "string",
              "name": "frequency",
              "type": "string"
            },
            {
              "internalType": "uint256",
              "name": "startTimestamp",
              "type": "uint256"
            },
            {
              "internalType": "uint256",
              "name": "endTimestamp",
              "type": "uint256"
            },
            {
              "internalType": "uint256",
              "name": "dueToDoctor",
              "type": "uint256"
            },
            {
              "internalType": "bool",
              "name": "claimed",
              "type": "bool"
            },
            {
              "internalType": "bool",
              "name": "paid",
              "type": "bool"
            }
          ],
          "indexed": false,
          "internalType": "struct Prescurity.Prescription",
          "name": "prescription",
          "type": "tuple"
        }
      ],
      "name": "RetrieveMedicaments",
      "type": "event"
    },
    {
      "constant": true,
      "inputs": [],
      "name": "getOwner",
      "outputs": [
        {
          "internalType": "address",
          "name": "",
          "type": "address"
        }
      ],
      "payable": false,
      "stateMutability": "view",
      "type": "function"
    },
    {
      "constant": true,
      "inputs": [],
      "name": "getUserType",
      "outputs": [
        {
          "internalType": "string",
          "name": "",
          "type": "string"
        }
      ],
      "payable": false,
      "stateMutability": "view",
      "type": "function"
    },
    {
      "constant": false,
      "inputs": [
        {
          "internalType": "address payable",
          "name": "addr",
          "type": "address"
        },
        {
          "internalType": "string",
          "name": "name",
          "type": "string"
        },
        {
          "internalType": "string",
          "name": "speciality",
          "type": "string"
        }
      ],
      "name": "addDoctor",
      "outputs": [],
      "payable": false,
      "stateMutability": "nonpayable",
      "type": "function"
    },
    {
      "constant": false,
      "inputs": [
        {
          "internalType": "address",
          "name": "addr",
          "type": "address"
        },
        {
          "internalType": "uint256",
          "name": "id",
          "type": "uint256"
        },
        {
          "internalType": "string",
          "name": "name",
          "type": "string"
        }
      ],
      "name": "addPharmacy",
      "outputs": [],
      "payable": false,
      "stateMutability": "nonpayable",
      "type": "function"
    },
    {
      "constant": false,
      "inputs": [
        {
          "internalType": "uint256",
          "name": "numero_secu",
          "type": "uint256"
        },
        {
          "internalType": "address",
          "name": "addr",
          "type": "address"
        }
      ],
      "name": "addPatient",
      "outputs": [],
      "payable": false,
      "stateMutability": "nonpayable",
      "type": "function"
    },
    {
      "constant": false,
      "inputs": [
        {
          "internalType": "uint256",
          "name": "amountAskedByDoctor",
          "type": "uint256"
        },
        {
          "internalType": "uint256",
          "name": "numero_secu",
          "type": "uint256"
        },
        {
          "internalType": "string",
          "name": "medicine",
          "type": "string"
        },
        {
          "internalType": "string",
          "name": "disease",
          "type": "string"
        },
        {
          "internalType": "string",
          "name": "frequency",
          "type": "string"
        }
      ],
      "name": "addPrescription",
      "outputs": [],
      "payable": false,
      "stateMutability": "nonpayable",
      "type": "function"
    },
    {
      "constant": false,
      "inputs": [
        {
          "internalType": "uint256",
          "name": "prescriptionId",
          "type": "uint256"
        }
      ],
      "name": "payPrescription",
      "outputs": [],
      "payable": true,
      "stateMutability": "payable",
      "type": "function"
    },
    {
      "constant": false,
      "inputs": [
        {
          "internalType": "uint256",
          "name": "amountAskedByPharmacy",
          "type": "uint256"
        },
        {
          "internalType": "uint256",
          "name": "prescriptionId",
          "type": "uint256"
        }
      ],
      "name": "claimPrescription",
      "outputs": [],
      "payable": false,
      "stateMutability": "nonpayable",
      "type": "function"
    }
  ],
  "bytecode": "0x60806040523480156200001157600080fd5b5062000023336200004d60201b60201c565b6200003560016200011160201b60201c565b6200004760016200011b60201b60201c565b62000125565b60008060009054906101000a900473ffffffffffffffffffffffffffffffffffffffff169050816000806101000a81548173ffffffffffffffffffffffffffffffffffffffff021916908373ffffffffffffffffffffffffffffffffffffffff1602179055508173ffffffffffffffffffffffffffffffffffffffff168173ffffffffffffffffffffffffffffffffffffffff167f98581b7da302c99fda82be041a3e5b468220ad63d7ed673d0b2b1de92dfa4a9660405160405180910390a35050565b8060018190555050565b8060028190555050565b61217a80620001356000396000f3fe60806040526004361061007b5760003560e01c8063a7a07c171161004e578063a7a07c1714610128578063bcbb493514610151578063d4a063a51461017a578063df0acd40146101a35761007b565b806334b789981461008057806341990077146100a9578063893d20e8146100d45780639db683c8146100ff575b600080fd5b34801561008c57600080fd5b506100a760048036036100a291908101906112f0565b6101bf565b005b3480156100b557600080fd5b506100be61052c565b6040516100cb9190611ce2565b60405180910390f35b3480156100e057600080fd5b506100e9610761565b6040516100f69190611cc7565b60405180910390f35b34801561010b57600080fd5b506101266004803603610121919081019061140e565b61078a565b005b34801561013457600080fd5b5061014f600480360361014a919081019061144a565b6108f2565b005b34801561015d57600080fd5b5061017860048036036101739190810190611486565b6109a0565b005b34801561018657600080fd5b506101a1600480360361019c9190810190611379565b610c88565b005b6101bd60048036036101b891908101906113e5565b610eda565b005b3373ffffffffffffffffffffffffffffffffffffffff166101de610761565b73ffffffffffffffffffffffffffffffffffffffff1614156104ea576002600381111561020757fe5b600860008773ffffffffffffffffffffffffffffffffffffffff1673ffffffffffffffffffffffffffffffffffffffff16815260200190815260200160002060009054906101000a900460ff16600381111561025f57fe5b14156102a0576040517f08c379a000000000000000000000000000000000000000000000000000000000815260040161029790611d84565b60405180910390fd5b6003808111156102ac57fe5b600b60008773ffffffffffffffffffffffffffffffffffffffff1673ffffffffffffffffffffffffffffffffffffffff16815260200190815260200160002060009054906101000a900460ff16600381111561030457fe5b1415610345576040517f08c379a000000000000000000000000000000000000000000000000000000000815260040161033c90611d84565b60405180910390fd5b600061034f611192565b905080600660008381526020019081526020016000206000018190555082826006600084815260200190815260200160002060010191906103919291906111c2565b5084846006600084815260200190815260200160002060020191906103b79291906111c2565b50856006600083815260200190815260200160002060030160006101000a81548173ffffffffffffffffffffffffffffffffffffffff021916908373ffffffffffffffffffffffffffffffffffffffff16021790555060016006600083815260200190815260200160002060030160146101000a81548160ff02191690831515021790555080600760008873ffffffffffffffffffffffffffffffffffffffff1673ffffffffffffffffffffffffffffffffffffffff168152602001908152602001600020600001819055506002600860008873ffffffffffffffffffffffffffffffffffffffff1673ffffffffffffffffffffffffffffffffffffffff16815260200190815260200160002060006101000a81548160ff021916908360038111156104df57fe5b021790555050610525565b6040517f08c379a000000000000000000000000000000000000000000000000000000000815260040161051c90611d24565b60405180910390fd5b5050505050565b60606002600381111561053b57fe5b600860003373ffffffffffffffffffffffffffffffffffffffff1673ffffffffffffffffffffffffffffffffffffffff16815260200190815260200160002060009054906101000a900460ff16600381111561059357fe5b14156105d6576040518060400160405280600681526020017f646f63746f720000000000000000000000000000000000000000000000000000815250905061075e565b6003808111156105e257fe5b600b60003373ffffffffffffffffffffffffffffffffffffffff1673ffffffffffffffffffffffffffffffffffffffff16815260200190815260200160002060009054906101000a900460ff16600381111561063a57fe5b141561067d576040518060400160405280600881526020017f706861726d616379000000000000000000000000000000000000000000000000815250905061075e565b6001600381111561068a57fe5b600560003373ffffffffffffffffffffffffffffffffffffffff1673ffffffffffffffffffffffffffffffffffffffff16815260200190815260200160002060009054906101000a900460ff1660038111156106e257fe5b1415610725576040518060400160405280600781526020017f70617469656e7400000000000000000000000000000000000000000000000000815250905061075e565b6040518060400160405280600481526020017f6e6f6e650000000000000000000000000000000000000000000000000000000081525090505b90565b60008060009054906101000a900473ffffffffffffffffffffffffffffffffffffffff16905090565b6003600083815260200190815260200160002060030160009054906101000a900460ff16156107ee576040517f08c379a00000000000000000000000000000000000000000000000000000000081526004016107e590611d64565b60405180910390fd5b81600360008481526020019081526020016000206000018190555060016003600084815260200190815260200160002060030160006101000a81548160ff021916908315150217905550806003600084815260200190815260200160002060010160006101000a81548173ffffffffffffffffffffffffffffffffffffffff021916908373ffffffffffffffffffffffffffffffffffffffff1602179055506001600560008373ffffffffffffffffffffffffffffffffffffffff1673ffffffffffffffffffffffffffffffffffffffff16815260200190815260200160002060006101000a81548160ff021916908360038111156108e957fe5b02179055505050565b6003808111156108fe57fe5b600b60003373ffffffffffffffffffffffffffffffffffffffff1673ffffffffffffffffffffffffffffffffffffffff16815260200190815260200160002060009054906101000a900460ff16600381111561095657fe5b14156109615761099c565b6040517f08c379a000000000000000000000000000000000000000000000000000000000815260040161099390611dc4565b60405180910390fd5b5050565b600260038111156109ad57fe5b600860003373ffffffffffffffffffffffffffffffffffffffff1673ffffffffffffffffffffffffffffffffffffffff16815260200190815260200160002060009054906101000a900460ff166003811115610a0557fe5b1415610c43576000600760003373ffffffffffffffffffffffffffffffffffffffff1673ffffffffffffffffffffffffffffffffffffffff16815260200190815260200160002090506000600360008a815260200190815260200160002090506000610a6f6111aa565b905080600d6000838152602001908152602001600020600001819055506000600d600083815260200190815260200160002060090160006101000a81548160ff0219169083151502179055506000600d600083815260200190815260200160002060090160016101000a81548160ff02191690831515021790555089600d6000838152602001908152602001600020600101819055508260000154600d6000838152602001908152602001600020600201819055508888600d60008481526020019081526020016000206003019190610b499291906111c2565b508484600d60008481526020019081526020016000206005019190610b6f9291906111c2565b508686600d60008481526020019081526020016000206004019190610b959291906111c2565b508a600d60008381526020019081526020016000206008018190555042600d600083815260200190815260200160002060060181905550627a9b804201600d6000838152602001908152602001600020600701819055507fa127477e3aceb938cd641d354b51096cf033066b6d4f25ce41a1773ad57915d7600d600083815260200190815260200160002083858e604051610c339493929190611e24565b60405180910390a1505050610c7e565b6040517f08c379a0000000000000000000000000000000000000000000000000000000008152600401610c7590611da4565b60405180910390fd5b5050505050505050565b3373ffffffffffffffffffffffffffffffffffffffff16610ca7610761565b73ffffffffffffffffffffffffffffffffffffffff161415610e99576009600084815260200190815260200160002060020160149054906101000a900460ff1615610d27576040517f08c379a0000000000000000000000000000000000000000000000000000000008152600401610d1e90611d44565b60405180910390fd5b8260096000858152602001908152602001600020600001819055508181600960008681526020019081526020016000206001019190610d679291906111c2565b50836009600085815260200190815260200160002060020160006101000a81548173ffffffffffffffffffffffffffffffffffffffff021916908373ffffffffffffffffffffffffffffffffffffffff16021790555060016009600085815260200190815260200160002060020160146101000a81548160ff02191690831515021790555082600a60008673ffffffffffffffffffffffffffffffffffffffff1673ffffffffffffffffffffffffffffffffffffffff168152602001908152602001600020600001819055506003600b60008673ffffffffffffffffffffffffffffffffffffffff1673ffffffffffffffffffffffffffffffffffffffff16815260200190815260200160002060006101000a81548160ff02191690836003811115610e8f57fe5b0217905550610ed4565b6040517f08c379a0000000000000000000000000000000000000000000000000000000008152600401610ecb90611d24565b60405180910390fd5b50505050565b60016003811115610ee757fe5b600560003373ffffffffffffffffffffffffffffffffffffffff1673ffffffffffffffffffffffffffffffffffffffff16815260200190815260200160002060009054906101000a900460ff166003811115610f3f57fe5b14156111545734471015610f88576040517f08c379a0000000000000000000000000000000000000000000000000000000008152600401610f7f90611e04565b60405180910390fd5b600d600082815260200190815260200160002060090160019054906101000a900460ff1615610fec576040517f08c379a0000000000000000000000000000000000000000000000000000000008152600401610fe390611de4565b60405180910390fd5b6000600d6000838152602001908152602001600020905060006006600083600201548152602001908152602001600020905060008160030160009054906101000a900473ffffffffffffffffffffffffffffffffffffffff1690508073ffffffffffffffffffffffffffffffffffffffff166108fc349081150290604051600060405180830381858888f1935050505015801561108d573d6000803e3d6000fd5b503373ffffffffffffffffffffffffffffffffffffffff168260030160009054906101000a900473ffffffffffffffffffffffffffffffffffffffff1673ffffffffffffffffffffffffffffffffffffffff167fc063efac985b8a228415ff3bb4f0766a3108513fbb464fe953d78d6543614bf3348660020154604051611115929190611e7e565b60405180910390a36001600d600086815260200190815260200160002060090160016101000a81548160ff02191690831515021790555050505061118f565b6040517f08c379a000000000000000000000000000000000000000000000000000000000815260040161118690611d04565b60405180910390fd5b50565b60006001600081548092919060010191905055905090565b60006002600081548092919060010191905055905090565b828054600181600116156101000203166002900490600052602060002090601f016020900481019282601f1061120357803560ff1916838001178555611231565b82800160010185558215611231579182015b82811115611230578235825591602001919060010190611215565b5b50905061123e9190611242565b5090565b61126491905b80821115611260576000816000905550600101611248565b5090565b90565b600081359050611276816120f2565b92915050565b60008135905061128b81612109565b92915050565b60008083601f8401126112a357600080fd5b8235905067ffffffffffffffff8111156112bc57600080fd5b6020830191508360018202830111156112d457600080fd5b9250929050565b6000813590506112ea81612120565b92915050565b60008060008060006060868803121561130857600080fd5b60006113168882890161127c565b955050602086013567ffffffffffffffff81111561133357600080fd5b61133f88828901611291565b9450945050604086013567ffffffffffffffff81111561135e57600080fd5b61136a88828901611291565b92509250509295509295909350565b6000806000806060858703121561138f57600080fd5b600061139d87828801611267565b94505060206113ae878288016112db565b935050604085013567ffffffffffffffff8111156113cb57600080fd5b6113d787828801611291565b925092505092959194509250565b6000602082840312156113f757600080fd5b6000611405848285016112db565b91505092915050565b6000806040838503121561142157600080fd5b600061142f858286016112db565b925050602061144085828601611267565b9150509250929050565b6000806040838503121561145d57600080fd5b600061146b858286016112db565b925050602061147c858286016112db565b9150509250929050565b60008060008060008060008060a0898b0312156114a257600080fd5b60006114b08b828c016112db565b98505060206114c18b828c016112db565b975050604089013567ffffffffffffffff8111156114de57600080fd5b6114ea8b828c01611291565b9650965050606089013567ffffffffffffffff81111561150957600080fd5b6115158b828c01611291565b9450945050608089013567ffffffffffffffff81111561153457600080fd5b6115408b828c01611291565b92509250509295985092959890939650565b600061155e8383611ca9565b60208301905092915050565b61157381611f90565b82525050565b61158281611f7e565b82525050565b61159181611f7e565b82525050565b60006115a282611ed1565b6115ac8185611ef4565b93506115b783611ea7565b8060005b838110156115ef576115cc826120a7565b6115d68882611552565b97506115e183611ee7565b9250506001810190506115bb565b5085935050505092915050565b61160581611fa2565b82525050565b600061161682611edc565b6116208185611f16565b9350611630818560208601611fd8565b611639816120ba565b840191505092915050565b6000815460018116600081146116615760018114611687576116cb565b607f60028304166116728187611f05565b955060ff1983168652602086019350506116cb565b600282046116958187611f05565b95506116a085611ebc565b60005b828110156116c2578154818901526001820191506020810190506116a3565b80880195505050505b505092915050565b60006116e0602f83611f16565b91507f536f7272792c20746869732066756e6374696f6e20697320726573657276656460008301527f20746f207468652070617469656e7400000000000000000000000000000000006020830152604082019050919050565b6000611746604383611f16565b91507f536f7272792c20746869732066756e6374696f6e20697320726573657276656460008301527f20746f20746865206f776e6572206f662074686520736d61727420636f6e747260208301527f61637400000000000000000000000000000000000000000000000000000000006040830152606082019050919050565b60006117d2602d83611f16565b91507f54686973206164647265737320697320616c726561647920646566696e65642060008301527f6173206120706861726d616379000000000000000000000000000000000000006020830152604082019050919050565b6000611838602d83611f16565b91507f54686973206e756d207365637520697320616c726561647920646566696e656460008301527f20617320612070617469656e74000000000000000000000000000000000000006020830152604082019050919050565b600061189e602b83611f16565b91507f54686973206164647265737320697320616c726561647920646566696e65642060008301527f6173206120646f63746f720000000000000000000000000000000000000000006020830152604082019050919050565b6000611904602e83611f16565b91507f536f7272792c20746869732066756e6374696f6e20697320726573657276656460008301527f20746f2074686520646f63746f720000000000000000000000000000000000006020830152604082019050919050565b600061196a603083611f16565b91507f536f7272792c20746869732066756e6374696f6e20697320726573657276656460008301527f20746f2074686520706861726d616379000000000000000000000000000000006020830152604082019050919050565b60006119d0601f83611f16565b91507f507265736372697074696f6e2073686f756c64206e6f742062652070616964006000830152602082019050919050565b6000611a10601583611f16565b91507f42616c616e6365206973206e6f7420656e6f75676800000000000000000000006000830152602082019050919050565b600060a083016000808401549050611a5a81612059565b611a676000870182611ca9565b50600184018583036020870152611a7e8382611644565b925050600284018583036040870152611a978382611644565b92505060038401549050611aaa81612025565b611ab7606087018261156a565b50611ac18161208d565b611ace60808701826115fc565b50819250505092915050565b6000608083016000808401549050611af181612059565b611afe6000870182611ca9565b5060018401549050611b0f8161200b565b611b1c6020870182611579565b50600284018583036040870152611b338382611597565b92505060038401549050611b468161203f565b611b5360608701826115fc565b50819250505092915050565b600061016083016000808401549050611b7781612059565b611b846000870182611ca9565b5060018401549050611b9581612059565b611ba26020870182611ca9565b5060028401549050611bb381612059565b611bc06040870182611ca9565b50600384018583036060870152611bd78382611644565b925050600484018583036080870152611bf08382611644565b9250506005840185830360a0870152611c098382611644565b92505060068401549050611c1c81612059565b611c2960c0870182611ca9565b5060078401549050611c3a81612059565b611c4760e0870182611ca9565b5060088401549050611c5881612059565b611c66610100870182611ca9565b5060098401549050611c778161203f565b611c856101208701826115fc565b50611c8f81612073565b611c9d6101408701826115fc565b50819250505092915050565b611cb281611fce565b82525050565b611cc181611fce565b82525050565b6000602082019050611cdc6000830184611588565b92915050565b60006020820190508181036000830152611cfc818461160b565b905092915050565b60006020820190508181036000830152611d1d816116d3565b9050919050565b60006020820190508181036000830152611d3d81611739565b9050919050565b60006020820190508181036000830152611d5d816117c5565b9050919050565b60006020820190508181036000830152611d7d8161182b565b9050919050565b60006020820190508181036000830152611d9d81611891565b9050919050565b60006020820190508181036000830152611dbd816118f7565b9050919050565b60006020820190508181036000830152611ddd8161195d565b9050919050565b60006020820190508181036000830152611dfd816119c3565b9050919050565b60006020820190508181036000830152611e1d81611a03565b9050919050565b60006080820190508181036000830152611e3e8187611b5f565b90508181036020830152611e528186611ada565b90508181036040830152611e668185611a43565b9050611e756060830184611cb8565b95945050505050565b6000604082019050611e936000830185611cb8565b611ea06020830184611cb8565b9392505050565b60008190508160005260206000209050919050565b60008190508160005260206000209050919050565b600081549050919050565b600081519050919050565b6000600182019050919050565b600082825260208201905092915050565b600082825260208201905092915050565b600082825260208201905092915050565b600073ffffffffffffffffffffffffffffffffffffffff82169050919050565b600073ffffffffffffffffffffffffffffffffffffffff82169050919050565b600060ff82169050919050565b6000819050919050565b6000611f8982611fae565b9050919050565b6000611f9b82611fae565b9050919050565b60008115159050919050565b600073ffffffffffffffffffffffffffffffffffffffff82169050919050565b6000819050919050565b60005b83811015611ff6578082015181840152602081019050611fdb565b83811115612005576000848401525b50505050565b600061201e612019836120cb565b611f27565b9050919050565b6000612038612033836120cb565b611f47565b9050919050565b600061205261204d836120cb565b611f67565b9050919050565b600061206c612067836120cb565b611f74565b9050919050565b6000612086612081836120e5565b611f67565b9050919050565b60006120a061209b836120d8565b611f67565b9050919050565b60006120b38254612059565b9050919050565b6000601f19601f8301169050919050565b60008160001c9050919050565b60008160a01c9050919050565b60008160081c9050919050565b6120fb81611f7e565b811461210657600080fd5b50565b61211281611f90565b811461211d57600080fd5b50565b61212981611fce565b811461213457600080fd5b5056fea365627a7a723158205e021a9c7a34bad10158739cb6b81441a13d1b43f16b217fc936b35546e3dd716c6578706572696d656e74616cf564736f6c63430005100040",
  "source": "// SPDX-License-Identifier: MIT\npragma solidity >=0.4.22 <0.9.0;\npragma experimental ABIEncoderV2;\n\n/// @title Prescription made by the doctor after a consultation\ncontract Prescurity {\n\n    /**\n     * @dev Owner should be the admin\n     * He is responsible for adding Doctors and Pharmacists\n     */\n    address private _owner;\n\n    uint private _doctorId;\n    uint private _prescriptionId;\n\n    struct Patient {\n        uint numero_secu;\n        address patientAddress;\n        uint[] prescriptionsIds;\n        bool isValue;\n    }\n\n    struct Doctor {\n        uint id;\n        string speciality;\n        string name;\n        address payable doctorAddress;\n        bool isValue;\n    }\n\n    struct Pharmacy {\n        uint id;\n        string name;\n        address pharmacyAddress;\n        bool isValue;\n    }\n    \n    struct Prescription {\n        uint id;\n        uint patientId;\n        uint doctorId;\n        string medicine;\n        string disease;\n        string frequency;\n        uint256 startTimestamp;\n        uint256 endTimestamp;\n        uint dueToDoctor;\n        bool claimed;\n        bool paid;\n    } \n\n    // set owner as first interactor with the contract\n    constructor() public {\n        _setOwner(msg.sender);\n        _setDoctorId(1);\n        _setPrescriptionId(1);\n    }\n\n    enum authentification {\n        anon,\n        patient,\n        doctor,\n        pharmacy\n    }\n\n    mapping (uint => Patient) patientNumSecuMap;\n    mapping(address => Patient) patientAddressMap;\n    mapping (address => authentification) patientAuthentification;\n    mapping (uint => Doctor) doctorIdMap;\n    mapping (address => Doctor) doctorAddressMap;\n    mapping (address => authentification) doctorAuthentification;\n    mapping (uint => Pharmacy) pharmacyIdMap;\n    mapping (address => Pharmacy) pharmacyAddressMap;\n    mapping (address => authentification) pharmacyAuthentification;\n    mapping (uint => Prescription) prescIdMap;\n    mapping (uint => Prescription) prescriptionIdMap;\n\n    modifier patientOnly() {\n        if (patientAuthentification[msg.sender] == authentification.patient) {\n            _;\n        } else {\n            revert(\"Sorry, this function is reserved to the patient\");\n        }\n    }\n\n    modifier doctorOnly() {\n        if (doctorAuthentification[msg.sender] == authentification.doctor) {\n            _;\n        } else {\n            revert(\"Sorry, this function is reserved to the doctor\");\n        }\n    }\n    \n    modifier pharmacyOnly(){\n        if (pharmacyAuthentification[msg.sender] == authentification.pharmacy) {\n            _;\n        } else {\n            revert(\"Sorry, this function is reserved to the pharmacy\");\n        }\n    }\n    \n    modifier ownerOnly(){\n        if (getOwner() == msg.sender) {\n            _;\n        } else {\n            revert(\"Sorry, this function is reserved to the owner of the smart contract\");\n        }\n    }\n\n    function uint2str(uint _i) internal pure returns (string memory _uintAsString) {\n        if (_i == 0) {\n            return \"0\";\n        }\n        uint j = _i;\n        uint len;\n        while (j != 0) {\n            len++;\n            j /= 10;\n        }\n        bytes memory bstr = new bytes(len);\n        uint k = len;\n        while (_i != 0) {\n            k = k-1;\n            uint8 temp = (48 + uint8(_i - _i / 10 * 10));\n            bytes1 b1 = bytes1(temp);\n            bstr[k] = b1;\n            _i /= 10;\n        }\n        return string(bstr);\n    }\n\n    function append(string memory a, string memory b) internal pure returns (string memory) {\n        return string(abi.encodePacked(a, b));\n    }\n\n    function getOwner() public view returns (address) {\n        return _owner;\n    }\n\n    function getDoctorId() internal returns (uint) {\n        return _doctorId++;\n    }\n\n    function getPrescriptionId() internal returns (uint) {\n        return _prescriptionId++;\n    }\n\n    function getUserType() view public returns (string memory) {\n        if (doctorAuthentification[msg.sender] == authentification.doctor) {\n            return \"doctor\";\n        }\n        if (pharmacyAuthentification[msg.sender] == authentification.pharmacy) {\n            return \"pharmacy\";\n        }\n        if (patientAuthentification[msg.sender] == authentification.patient) {\n            return \"patient\";\n        }\n        return \"none\";\n    }\n\n    function addDoctor(address payable addr, string calldata name, string calldata speciality) external ownerOnly {\n        require(doctorAuthentification[addr] != authentification.doctor, \"This address is already defined as a doctor\");\n        require(pharmacyAuthentification[addr] != authentification.pharmacy, \"This address is already defined as a doctor\");\n        uint id = getDoctorId();\n        doctorIdMap[id].id = id;\n        doctorIdMap[id].speciality = speciality;\n        doctorIdMap[id].name = name;\n        doctorIdMap[id].doctorAddress = addr;\n        doctorIdMap[id].isValue = true;\n        doctorAddressMap[addr].id = id;\n        doctorAuthentification[addr] = authentification.doctor;\n    }\n\n    function addPharmacy(address addr, uint id, string calldata name) external ownerOnly {\n        require(!pharmacyIdMap[id].isValue, \"This address is already defined as a pharmacy\");\n        pharmacyIdMap[id].id = id;\n        pharmacyIdMap[id].name = name;\n        pharmacyIdMap[id].pharmacyAddress = addr;\n        pharmacyIdMap[id].isValue = true;\n        pharmacyAddressMap[addr].id = id;\n        pharmacyAuthentification[addr] = authentification.pharmacy;\n    }\n\n    /**\n     * @dev problme: une personne mal-intentione pourrait lier un numro de scu ne lui appartenant pas  une addresse quelconque \n     */\n    function addPatient(uint numero_secu, address addr) external {\n        require(!patientNumSecuMap[numero_secu].isValue, \"This num secu is already defined as a patient\");\n        patientNumSecuMap[numero_secu].numero_secu = numero_secu;\n        patientNumSecuMap[numero_secu].isValue = true;\n        patientNumSecuMap[numero_secu].patientAddress = addr;\n        patientAuthentification[addr] = authentification.patient;\n    }\n\n    function addPrescription(uint amountAskedByDoctor, uint numero_secu, string calldata medicine, string calldata disease, string calldata frequency) external doctorOnly {\n        //require(msg.value == amountAskedByDoctor, append(\"Please match the asked value by the doctor: \",uint2str(amountAskedByDoctor)));\n        Doctor storage doctor = doctorAddressMap[msg.sender];\n        Patient storage patient = patientNumSecuMap[numero_secu];\n        uint prescriptionId = getPrescriptionId();\n        prescriptionIdMap[prescriptionId].id = prescriptionId;\n        prescriptionIdMap[prescriptionId].claimed = false;\n        prescriptionIdMap[prescriptionId].paid = false;\n        prescriptionIdMap[prescriptionId].patientId = numero_secu;\n        prescriptionIdMap[prescriptionId].doctorId = doctor.id;\n        prescriptionIdMap[prescriptionId].medicine = medicine;\n        prescriptionIdMap[prescriptionId].frequency = frequency;\n        prescriptionIdMap[prescriptionId].disease = disease;\n        prescriptionIdMap[prescriptionId].dueToDoctor = amountAskedByDoctor;\n        prescriptionIdMap[prescriptionId].startTimestamp = block.timestamp;\n        prescriptionIdMap[prescriptionId].endTimestamp = block.timestamp + 93 days;\n        emit Consultation(prescriptionIdMap[prescriptionId], patient, doctor, amountAskedByDoctor);\n    }\n\n    function payPrescription(uint prescriptionId) payable external patientOnly {\n        require(address(this).balance >= msg.value, \"Balance is not enough\");\n        require(!prescriptionIdMap[prescriptionId].paid, \"Prescription should not be paid\");\n        Prescription storage prescription = prescriptionIdMap[prescriptionId];\n        Doctor storage doctor = doctorIdMap[prescription.doctorId];\n        address payable doctorAddr = doctor.doctorAddress;\n        doctorAddr.transfer(msg.value);\n        emit DoctorPaid(msg.value, doctor.doctorAddress, msg.sender, prescription.doctorId);\n        prescriptionIdMap[prescriptionId].paid = true;\n    }\n\n    function claimPrescription(uint amountAskedByPharmacy, uint prescriptionId) external pharmacyOnly {\n        // require(prescriptionIdMap[prescriptionId].claimed == false, \"sinon\");\n        // set prescriptionIdMap[prescriptionId].claimed = true;\n        // emit MedicineGiven(...);\n    }\n\n    function _setOwner(address new_owner) private {\n        address old_owner = _owner;\n        _owner = new_owner;\n        emit DefineOwnership(old_owner, new_owner);\n    }\n\n    function _setDoctorId(uint index) private {\n        _doctorId = index;\n    }\n\n    function _setPrescriptionId(uint index) private {\n        _prescriptionId = index;\n    }\n    \n    event DefineOwnership(address indexed old_owner, address indexed new_owner);\n    event Consultation(Prescription prescription, Patient patient, Doctor doctor, uint amount);\n    event DoctorPaid(uint amount, address indexed doctorAddress, address indexed patientAddress, uint doctorId);\n    event RetrieveMedicaments(Patient patient, Pharmacy pharmacy, Prescription prescription);\n}",
  "sourcePath": "/Users/azerpas/school/6th/mastercamp/blockchain/contracts/Prescurity.sol",
  "compiler": {
    "name": "solc",
    "version": "0.5.16+commit.9c3226ce.Emscripten.clang"
  },
  "schemaVersion": "3.3.3",
  "updatedAt": "2021-06-28T12:57:13.595Z",
  "networkType": "ethereum",
  "devdoc": {
    "methods": {
      "addPatient(uint256,address)": {
        "details": "problme: une personne mal-intentione pourrait lier un numro de scu ne lui appartenant pas  une addresse quelconque "
      }
    },
    "title": "Prescription made by the doctor after a consultation"
  },
  "userdoc": {
    "methods": {}
  }
}