{
  "contractName": "Prescurity",
  "abi": [
    {
      "inputs": [],
      "payable": false,
      "stateMutability": "nonpayable",
      "type": "constructor"
    },
    {
      "anonymous": false,
      "inputs": [
        {
          "components": [
            {
              "internalType": "uint256",
              "name": "id",
              "type": "uint256"
            },
            {
              "internalType": "uint256",
              "name": "patientId",
              "type": "uint256"
            },
            {
              "internalType": "uint256",
              "name": "doctorId",
              "type": "uint256"
            },
            {
              "internalType": "string",
              "name": "medicine",
              "type": "string"
            },
            {
              "internalType": "string",
              "name": "disease",
              "type": "string"
            },
            {
              "internalType": "string",
              "name": "frequency",
              "type": "string"
            },
            {
              "internalType": "uint256",
              "name": "startTimestamp",
              "type": "uint256"
            },
            {
              "internalType": "uint256",
              "name": "endTimestamp",
              "type": "uint256"
            },
            {
              "internalType": "uint256",
              "name": "dueToDoctor",
              "type": "uint256"
            },
            {
              "internalType": "bool",
              "name": "claimed",
              "type": "bool"
            },
            {
              "internalType": "bool",
              "name": "paid",
              "type": "bool"
            }
          ],
          "indexed": false,
          "internalType": "struct Prescurity.Prescription",
          "name": "prescription",
          "type": "tuple"
        },
        {
          "components": [
            {
              "internalType": "uint256",
              "name": "numero_secu",
              "type": "uint256"
            },
            {
              "internalType": "address",
              "name": "patientAddress",
              "type": "address"
            },
            {
              "internalType": "uint256[]",
              "name": "prescriptionsIds",
              "type": "uint256[]"
            },
            {
              "internalType": "bool",
              "name": "isValue",
              "type": "bool"
            }
          ],
          "indexed": false,
          "internalType": "struct Prescurity.Patient",
          "name": "patient",
          "type": "tuple"
        },
        {
          "components": [
            {
              "internalType": "uint256",
              "name": "id",
              "type": "uint256"
            },
            {
              "internalType": "string",
              "name": "speciality",
              "type": "string"
            },
            {
              "internalType": "string",
              "name": "name",
              "type": "string"
            },
            {
              "internalType": "address payable",
              "name": "doctorAddress",
              "type": "address"
            },
            {
              "internalType": "uint256[]",
              "name": "prescriptionIds",
              "type": "uint256[]"
            },
            {
              "internalType": "bool",
              "name": "isValue",
              "type": "bool"
            }
          ],
          "indexed": false,
          "internalType": "struct Prescurity.Doctor",
          "name": "doctor",
          "type": "tuple"
        },
        {
          "indexed": false,
          "internalType": "uint256",
          "name": "amount",
          "type": "uint256"
        }
      ],
      "name": "Consultation",
      "type": "event"
    },
    {
      "anonymous": false,
      "inputs": [
        {
          "indexed": true,
          "internalType": "address",
          "name": "old_owner",
          "type": "address"
        },
        {
          "indexed": true,
          "internalType": "address",
          "name": "new_owner",
          "type": "address"
        }
      ],
      "name": "DefineOwnership",
      "type": "event"
    },
    {
      "anonymous": false,
      "inputs": [
        {
          "indexed": false,
          "internalType": "uint256",
          "name": "amount",
          "type": "uint256"
        },
        {
          "indexed": true,
          "internalType": "address",
          "name": "doctorAddress",
          "type": "address"
        },
        {
          "indexed": true,
          "internalType": "address",
          "name": "patientAddress",
          "type": "address"
        },
        {
          "indexed": false,
          "internalType": "uint256",
          "name": "doctorId",
          "type": "uint256"
        }
      ],
      "name": "DoctorPaid",
      "type": "event"
    },
    {
      "anonymous": false,
      "inputs": [
        {
          "components": [
            {
              "internalType": "uint256",
              "name": "id",
              "type": "uint256"
            },
            {
              "internalType": "uint256",
              "name": "patientId",
              "type": "uint256"
            },
            {
              "internalType": "uint256",
              "name": "doctorId",
              "type": "uint256"
            },
            {
              "internalType": "string",
              "name": "medicine",
              "type": "string"
            },
            {
              "internalType": "string",
              "name": "disease",
              "type": "string"
            },
            {
              "internalType": "string",
              "name": "frequency",
              "type": "string"
            },
            {
              "internalType": "uint256",
              "name": "startTimestamp",
              "type": "uint256"
            },
            {
              "internalType": "uint256",
              "name": "endTimestamp",
              "type": "uint256"
            },
            {
              "internalType": "uint256",
              "name": "dueToDoctor",
              "type": "uint256"
            },
            {
              "internalType": "bool",
              "name": "claimed",
              "type": "bool"
            },
            {
              "internalType": "bool",
              "name": "paid",
              "type": "bool"
            }
          ],
          "indexed": false,
          "internalType": "struct Prescurity.Prescription",
          "name": "prescription",
          "type": "tuple"
        },
        {
          "indexed": true,
          "internalType": "address",
          "name": "pharmaaddress",
          "type": "address"
        },
        {
          "components": [
            {
              "internalType": "uint256",
              "name": "numero_secu",
              "type": "uint256"
            },
            {
              "internalType": "address",
              "name": "patientAddress",
              "type": "address"
            },
            {
              "internalType": "uint256[]",
              "name": "prescriptionsIds",
              "type": "uint256[]"
            },
            {
              "internalType": "bool",
              "name": "isValue",
              "type": "bool"
            }
          ],
          "indexed": false,
          "internalType": "struct Prescurity.Patient",
          "name": "patient",
          "type": "tuple"
        }
      ],
      "name": "PharmaClaimed",
      "type": "event"
    },
    {
      "anonymous": false,
      "inputs": [
        {
          "components": [
            {
              "internalType": "uint256",
              "name": "numero_secu",
              "type": "uint256"
            },
            {
              "internalType": "address",
              "name": "patientAddress",
              "type": "address"
            },
            {
              "internalType": "uint256[]",
              "name": "prescriptionsIds",
              "type": "uint256[]"
            },
            {
              "internalType": "bool",
              "name": "isValue",
              "type": "bool"
            }
          ],
          "indexed": false,
          "internalType": "struct Prescurity.Patient",
          "name": "patient",
          "type": "tuple"
        },
        {
          "components": [
            {
              "internalType": "uint256",
              "name": "id",
              "type": "uint256"
            },
            {
              "internalType": "string",
              "name": "name",
              "type": "string"
            },
            {
              "internalType": "address",
              "name": "pharmacyAddress",
              "type": "address"
            },
            {
              "internalType": "bool",
              "name": "isValue",
              "type": "bool"
            }
          ],
          "indexed": false,
          "internalType": "struct Prescurity.Pharmacy",
          "name": "pharmacy",
          "type": "tuple"
        },
        {
          "components": [
            {
              "internalType": "uint256",
              "name": "id",
              "type": "uint256"
            },
            {
              "internalType": "uint256",
              "name": "patientId",
              "type": "uint256"
            },
            {
              "internalType": "uint256",
              "name": "doctorId",
              "type": "uint256"
            },
            {
              "internalType": "string",
              "name": "medicine",
              "type": "string"
            },
            {
              "internalType": "string",
              "name": "disease",
              "type": "string"
            },
            {
              "internalType": "string",
              "name": "frequency",
              "type": "string"
            },
            {
              "internalType": "uint256",
              "name": "startTimestamp",
              "type": "uint256"
            },
            {
              "internalType": "uint256",
              "name": "endTimestamp",
              "type": "uint256"
            },
            {
              "internalType": "uint256",
              "name": "dueToDoctor",
              "type": "uint256"
            },
            {
              "internalType": "bool",
              "name": "claimed",
              "type": "bool"
            },
            {
              "internalType": "bool",
              "name": "paid",
              "type": "bool"
            }
          ],
          "indexed": false,
          "internalType": "struct Prescurity.Prescription",
          "name": "prescription",
          "type": "tuple"
        }
      ],
      "name": "RetrieveMedicaments",
      "type": "event"
    },
    {
      "anonymous": false,
      "inputs": [
        {
          "components": [
            {
              "internalType": "uint256",
              "name": "id",
              "type": "uint256"
            },
            {
              "internalType": "uint256",
              "name": "patientId",
              "type": "uint256"
            },
            {
              "internalType": "uint256",
              "name": "doctorId",
              "type": "uint256"
            },
            {
              "internalType": "string",
              "name": "medicine",
              "type": "string"
            },
            {
              "internalType": "string",
              "name": "disease",
              "type": "string"
            },
            {
              "internalType": "string",
              "name": "frequency",
              "type": "string"
            },
            {
              "internalType": "uint256",
              "name": "startTimestamp",
              "type": "uint256"
            },
            {
              "internalType": "uint256",
              "name": "endTimestamp",
              "type": "uint256"
            },
            {
              "internalType": "uint256",
              "name": "dueToDoctor",
              "type": "uint256"
            },
            {
              "internalType": "bool",
              "name": "claimed",
              "type": "bool"
            },
            {
              "internalType": "bool",
              "name": "paid",
              "type": "bool"
            }
          ],
          "indexed": false,
          "internalType": "struct Prescurity.Prescription[]",
          "name": "prescription",
          "type": "tuple[]"
        }
      ],
      "name": "prescriptionsShow",
      "type": "event"
    },
    {
      "constant": true,
      "inputs": [],
      "name": "getOwner",
      "outputs": [
        {
          "internalType": "address",
          "name": "",
          "type": "address"
        }
      ],
      "payable": false,
      "stateMutability": "view",
      "type": "function"
    },
    {
      "constant": true,
      "inputs": [],
      "name": "getUserType",
      "outputs": [
        {
          "internalType": "string",
          "name": "",
          "type": "string"
        }
      ],
      "payable": false,
      "stateMutability": "view",
      "type": "function"
    },
    {
      "constant": false,
      "inputs": [
        {
          "internalType": "address payable",
          "name": "addr",
          "type": "address"
        },
        {
          "internalType": "string",
          "name": "name",
          "type": "string"
        },
        {
          "internalType": "string",
          "name": "speciality",
          "type": "string"
        }
      ],
      "name": "addDoctor",
      "outputs": [],
      "payable": false,
      "stateMutability": "nonpayable",
      "type": "function"
    },
    {
      "constant": false,
      "inputs": [
        {
          "internalType": "address",
          "name": "addr",
          "type": "address"
        },
        {
          "internalType": "string",
          "name": "name",
          "type": "string"
        }
      ],
      "name": "addPharmacy",
      "outputs": [],
      "payable": false,
      "stateMutability": "nonpayable",
      "type": "function"
    },
    {
      "constant": false,
      "inputs": [
        {
          "internalType": "uint256",
          "name": "numero_secu",
          "type": "uint256"
        },
        {
          "internalType": "address",
          "name": "addr",
          "type": "address"
        }
      ],
      "name": "addPatient",
      "outputs": [],
      "payable": false,
      "stateMutability": "nonpayable",
      "type": "function"
    },
    {
      "constant": false,
      "inputs": [
        {
          "internalType": "uint256",
          "name": "amountAskedByDoctor",
          "type": "uint256"
        },
        {
          "internalType": "uint256",
          "name": "numero_secu",
          "type": "uint256"
        },
        {
          "internalType": "string",
          "name": "medicine",
          "type": "string"
        },
        {
          "internalType": "string",
          "name": "disease",
          "type": "string"
        },
        {
          "internalType": "string",
          "name": "frequency",
          "type": "string"
        }
      ],
      "name": "addPrescription",
      "outputs": [],
      "payable": false,
      "stateMutability": "nonpayable",
      "type": "function"
    },
    {
      "constant": false,
      "inputs": [
        {
          "internalType": "uint256",
          "name": "prescriptionId",
          "type": "uint256"
        }
      ],
      "name": "payPrescription",
      "outputs": [],
      "payable": true,
      "stateMutability": "payable",
      "type": "function"
    },
    {
      "constant": false,
      "inputs": [
        {
          "internalType": "uint256",
          "name": "prescriptionId",
          "type": "uint256"
        }
      ],
      "name": "claimPrescription",
      "outputs": [],
      "payable": false,
      "stateMutability": "nonpayable",
      "type": "function"
    },
    {
      "constant": true,
      "inputs": [
        {
          "internalType": "uint256",
          "name": "numSecuPatient",
          "type": "uint256"
        }
      ],
      "name": "showPrescriptionPatient",
      "outputs": [
        {
          "components": [
            {
              "internalType": "uint256",
              "name": "id",
              "type": "uint256"
            },
            {
              "internalType": "uint256",
              "name": "patientId",
              "type": "uint256"
            },
            {
              "internalType": "uint256",
              "name": "doctorId",
              "type": "uint256"
            },
            {
              "internalType": "string",
              "name": "medicine",
              "type": "string"
            },
            {
              "internalType": "string",
              "name": "disease",
              "type": "string"
            },
            {
              "internalType": "string",
              "name": "frequency",
              "type": "string"
            },
            {
              "internalType": "uint256",
              "name": "startTimestamp",
              "type": "uint256"
            },
            {
              "internalType": "uint256",
              "name": "endTimestamp",
              "type": "uint256"
            },
            {
              "internalType": "uint256",
              "name": "dueToDoctor",
              "type": "uint256"
            },
            {
              "internalType": "bool",
              "name": "claimed",
              "type": "bool"
            },
            {
              "internalType": "bool",
              "name": "paid",
              "type": "bool"
            }
          ],
          "internalType": "struct Prescurity.Prescription[]",
          "name": "",
          "type": "tuple[]"
        }
      ],
      "payable": false,
      "stateMutability": "view",
      "type": "function"
    },
    {
      "constant": true,
      "inputs": [
        {
          "internalType": "uint256",
          "name": "idprescription",
          "type": "uint256"
        }
      ],
      "name": "getPrescription",
      "outputs": [
        {
          "components": [
            {
              "internalType": "uint256",
              "name": "id",
              "type": "uint256"
            },
            {
              "internalType": "uint256",
              "name": "patientId",
              "type": "uint256"
            },
            {
              "internalType": "uint256",
              "name": "doctorId",
              "type": "uint256"
            },
            {
              "internalType": "string",
              "name": "medicine",
              "type": "string"
            },
            {
              "internalType": "string",
              "name": "disease",
              "type": "string"
            },
            {
              "internalType": "string",
              "name": "frequency",
              "type": "string"
            },
            {
              "internalType": "uint256",
              "name": "startTimestamp",
              "type": "uint256"
            },
            {
              "internalType": "uint256",
              "name": "endTimestamp",
              "type": "uint256"
            },
            {
              "internalType": "uint256",
              "name": "dueToDoctor",
              "type": "uint256"
            },
            {
              "internalType": "bool",
              "name": "claimed",
              "type": "bool"
            },
            {
              "internalType": "bool",
              "name": "paid",
              "type": "bool"
            }
          ],
          "internalType": "struct Prescurity.Prescription",
          "name": "",
          "type": "tuple"
        }
      ],
      "payable": false,
      "stateMutability": "view",
      "type": "function"
    },
    {
      "constant": true,
      "inputs": [
        {
          "internalType": "uint256",
          "name": "iddoctor",
          "type": "uint256"
        }
      ],
      "name": "getDoctor",
      "outputs": [
        {
          "components": [
            {
              "internalType": "uint256",
              "name": "id",
              "type": "uint256"
            },
            {
              "internalType": "string",
              "name": "speciality",
              "type": "string"
            },
            {
              "internalType": "string",
              "name": "name",
              "type": "string"
            },
            {
              "internalType": "address payable",
              "name": "doctorAddress",
              "type": "address"
            },
            {
              "internalType": "uint256[]",
              "name": "prescriptionIds",
              "type": "uint256[]"
            },
            {
              "internalType": "bool",
              "name": "isValue",
              "type": "bool"
            }
          ],
          "internalType": "struct Prescurity.Doctor",
          "name": "",
          "type": "tuple"
        }
      ],
      "payable": false,
      "stateMutability": "view",
      "type": "function"
    }
  ],
  "bytecode": "0x60806040523480156200001157600080fd5b5062000023336200005f60201b60201c565b6200003560016200012360201b60201c565b6200004760016200012d60201b60201c565b6200005960016200013760201b60201c565b62000141565b60008060009054906101000a900473ffffffffffffffffffffffffffffffffffffffff169050816000806101000a81548173ffffffffffffffffffffffffffffffffffffffff021916908373ffffffffffffffffffffffffffffffffffffffff1602179055508173ffffffffffffffffffffffffffffffffffffffff168173ffffffffffffffffffffffffffffffffffffffff167f98581b7da302c99fda82be041a3e5b468220ad63d7ed673d0b2b1de92dfa4a9660405160405180910390a35050565b8060018190555050565b8060028190555050565b8060038190555050565b61356680620001516000396000f3fe60806040526004361061009c5760003560e01c80636f16af10116100645780636f16af1014610184578063893d20e8146101c15780639db683c8146101ec578063bcbb493514610215578063df0acd401461023e578063f934c88d1461025a5761009c565b80630709e284146100a157806334b78998146100ca5780633abeaa47146100f3578063419900771461011c57806369b0a72d14610147575b600080fd5b3480156100ad57600080fd5b506100c860048036036100c39190810190612210565b610297565b005b3480156100d657600080fd5b506100f160048036036100ec919081019061212f565b610461565b005b3480156100ff57600080fd5b5061011a600480360361011591908101906121b8565b6107ce565b005b34801561012857600080fd5b50610131610b13565b60405161013e919061300e565b60405180910390f35b34801561015357600080fd5b5061016e60048036036101699190810190612210565b610dc0565b60405161017b9190613150565b60405180910390f35b34801561019057600080fd5b506101ab60048036036101a69190810190612210565b61100a565b6040516101b89190613172565b60405180910390f35b3480156101cd57600080fd5b506101d6611341565b6040516101e39190612fd1565b60405180910390f35b3480156101f857600080fd5b50610213600480360361020e9190810190612239565b61136a565b005b34801561022157600080fd5b5061023c60048036036102379190810190612275565b6114d2565b005b61025860048036036102539190810190612210565b611816565b005b34801561026657600080fd5b50610281600480360361027c9190810190612210565b611ace565b60405161028e9190612fec565b60405180910390f35b6003808111156102a357fe5b600c60003373ffffffffffffffffffffffffffffffffffffffff1673ffffffffffffffffffffffffffffffffffffffff16815260200190815260200160002060009054906101000a900460ff1660038111156102fb57fe5b14156104235760001515600d600083815260200190815260200160002060090160009054906101000a900460ff1615151461036b576040517f08c379a000000000000000000000000000000000000000000000000000000000815260040161036290613030565b60405180910390fd5b6000600d600083815260200190815260200160002090506000600460008360010154815260200190815260200160002090506001600d600085815260200190815260200160002060090160006101000a81548160ff0219169083151502179055503373ffffffffffffffffffffffffffffffffffffffff167fd57bcd110700c211647ef97f8252b0f2f6add603da28b029a0c53a000b1ea8ee8383604051610414929190613194565b60405180910390a2505061045e565b6040517f08c379a0000000000000000000000000000000000000000000000000000000008152600401610455906130f0565b60405180910390fd5b50565b3373ffffffffffffffffffffffffffffffffffffffff16610480611341565b73ffffffffffffffffffffffffffffffffffffffff16141561078c57600260038111156104a957fe5b600960008773ffffffffffffffffffffffffffffffffffffffff1673ffffffffffffffffffffffffffffffffffffffff16815260200190815260200160002060009054906101000a900460ff16600381111561050157fe5b1415610542576040517f08c379a0000000000000000000000000000000000000000000000000000000008152600401610539906130b0565b60405180910390fd5b60038081111561054e57fe5b600c60008773ffffffffffffffffffffffffffffffffffffffff1673ffffffffffffffffffffffffffffffffffffffff16815260200190815260200160002060009054906101000a900460ff1660038111156105a657fe5b14156105e7576040517f08c379a00000000000000000000000000000000000000000000000000000000081526004016105de906130b0565b60405180910390fd5b60006105f1611ec7565b90508060076000838152602001908152602001600020600001819055508282600760008481526020019081526020016000206001019190610633929190611ef7565b508484600760008481526020019081526020016000206002019190610659929190611ef7565b50856007600083815260200190815260200160002060030160006101000a81548173ffffffffffffffffffffffffffffffffffffffff021916908373ffffffffffffffffffffffffffffffffffffffff16021790555060016007600083815260200190815260200160002060050160006101000a81548160ff02191690831515021790555080600860008873ffffffffffffffffffffffffffffffffffffffff1673ffffffffffffffffffffffffffffffffffffffff168152602001908152602001600020600001819055506002600960008873ffffffffffffffffffffffffffffffffffffffff1673ffffffffffffffffffffffffffffffffffffffff16815260200190815260200160002060006101000a81548160ff0219169083600381111561078157fe5b0217905550506107c7565b6040517f08c379a00000000000000000000000000000000000000000000000000000000081526004016107be90613070565b60405180910390fd5b5050505050565b3373ffffffffffffffffffffffffffffffffffffffff166107ed611341565b73ffffffffffffffffffffffffffffffffffffffff161415610ad35760038081111561081557fe5b600c60008573ffffffffffffffffffffffffffffffffffffffff1673ffffffffffffffffffffffffffffffffffffffff16815260200190815260200160002060009054906101000a900460ff16600381111561086d57fe5b14156108ae576040517f08c379a00000000000000000000000000000000000000000000000000000000081526004016108a5906130b0565b60405180910390fd5b600260038111156108bb57fe5b600960008573ffffffffffffffffffffffffffffffffffffffff1673ffffffffffffffffffffffffffffffffffffffff16815260200190815260200160002060009054906101000a900460ff16600381111561091357fe5b1415610954576040517f08c379a000000000000000000000000000000000000000000000000000000000815260040161094b906130b0565b60405180910390fd5b600061095e611ec7565b905080600a6000838152602001908152602001600020600001819055508282600a600084815260200190815260200160002060010191906109a0929190611ef7565b5083600a600083815260200190815260200160002060020160006101000a81548173ffffffffffffffffffffffffffffffffffffffff021916908373ffffffffffffffffffffffffffffffffffffffff1602179055506001600a600083815260200190815260200160002060020160146101000a81548160ff02191690831515021790555080600b60008673ffffffffffffffffffffffffffffffffffffffff1673ffffffffffffffffffffffffffffffffffffffff168152602001908152602001600020600001819055506003600c60008673ffffffffffffffffffffffffffffffffffffffff1673ffffffffffffffffffffffffffffffffffffffff16815260200190815260200160002060006101000a81548160ff02191690836003811115610ac857fe5b021790555050610b0e565b6040517f08c379a0000000000000000000000000000000000000000000000000000000008152600401610b0590613070565b60405180910390fd5b505050565b606060026003811115610b2257fe5b600960003373ffffffffffffffffffffffffffffffffffffffff1673ffffffffffffffffffffffffffffffffffffffff16815260200190815260200160002060009054906101000a900460ff166003811115610b7a57fe5b1415610bbd576040518060400160405280600681526020017f646f63746f7200000000000000000000000000000000000000000000000000008152509050610dbd565b600380811115610bc957fe5b600c60003373ffffffffffffffffffffffffffffffffffffffff1673ffffffffffffffffffffffffffffffffffffffff16815260200190815260200160002060009054906101000a900460ff166003811115610c2157fe5b1415610c64576040518060400160405280600881526020017f706861726d6163790000000000000000000000000000000000000000000000008152509050610dbd565b60016003811115610c7157fe5b600660003373ffffffffffffffffffffffffffffffffffffffff1673ffffffffffffffffffffffffffffffffffffffff16815260200190815260200160002060009054906101000a900460ff166003811115610cc957fe5b1415610d0c576040518060400160405280600781526020017f70617469656e74000000000000000000000000000000000000000000000000008152509050610dbd565b610d14611341565b73ffffffffffffffffffffffffffffffffffffffff163373ffffffffffffffffffffffffffffffffffffffff161415610d84576040518060400160405280600581526020017f6f776e65720000000000000000000000000000000000000000000000000000008152509050610dbd565b6040518060400160405280600481526020017f6e6f6e650000000000000000000000000000000000000000000000000000000081525090505b90565b610dc8611f77565b6000600760008481526020019081526020016000209050806040518060c001604052908160008201548152602001600182018054600181600116156101000203166002900480601f016020809104026020016040519081016040528092919081815260200182805460018160011615610100020316600290048015610e8e5780601f10610e6357610100808354040283529160200191610e8e565b820191906000526020600020905b815481529060010190602001808311610e7157829003601f168201915b50505050508152602001600282018054600181600116156101000203166002900480601f016020809104026020016040519081016040528092919081815260200182805460018160011615610100020316600290048015610f305780601f10610f0557610100808354040283529160200191610f30565b820191906000526020600020905b815481529060010190602001808311610f1357829003601f168201915b505050505081526020016003820160009054906101000a900473ffffffffffffffffffffffffffffffffffffffff1673ffffffffffffffffffffffffffffffffffffffff1673ffffffffffffffffffffffffffffffffffffffff16815260200160048201805480602002602001604051908101604052809291908181526020018280548015610fde57602002820191906000526020600020905b815481526020019060010190808311610fca575b505050505081526020016005820160009054906101000a900460ff161515151581525050915050919050565b611012611fc5565b6002600381111561101f57fe5b600960003373ffffffffffffffffffffffffffffffffffffffff1673ffffffffffffffffffffffffffffffffffffffff16815260200190815260200160002060009054906101000a900460ff16600381111561107757fe5b1415611301576000600d600084815260200190815260200160002090508060405180610160016040529081600082015481526020016001820154815260200160028201548152602001600382018054600181600116156101000203166002900480601f0160208091040260200160405190810160405280929190818152602001828054600181600116156101000203166002900480156111585780601f1061112d57610100808354040283529160200191611158565b820191906000526020600020905b81548152906001019060200180831161113b57829003601f168201915b50505050508152602001600482018054600181600116156101000203166002900480601f0160208091040260200160405190810160405280929190818152602001828054600181600116156101000203166002900480156111fa5780601f106111cf576101008083540402835291602001916111fa565b820191906000526020600020905b8154815290600101906020018083116111dd57829003601f168201915b50505050508152602001600582018054600181600116156101000203166002900480601f01602080910402602001604051908101604052809291908181526020018280546001816001161561010002031660029004801561129c5780601f106112715761010080835404028352916020019161129c565b820191906000526020600020905b81548152906001019060200180831161127f57829003601f168201915b505050505081526020016006820154815260200160078201548152602001600882015481526020016009820160009054906101000a900460ff161515151581526020016009820160019054906101000a900460ff16151515158152505091505061133c565b6040517f08c379a0000000000000000000000000000000000000000000000000000000008152600401611333906130d0565b60405180910390fd5b919050565b60008060009054906101000a900473ffffffffffffffffffffffffffffffffffffffff16905090565b6004600083815260200190815260200160002060030160009054906101000a900460ff16156113ce576040517f08c379a00000000000000000000000000000000000000000000000000000000081526004016113c590613090565b60405180910390fd5b81600460008481526020019081526020016000206000018190555060016004600084815260200190815260200160002060030160006101000a81548160ff021916908315150217905550806004600084815260200190815260200160002060010160006101000a81548173ffffffffffffffffffffffffffffffffffffffff021916908373ffffffffffffffffffffffffffffffffffffffff1602179055506001600660008373ffffffffffffffffffffffffffffffffffffffff1673ffffffffffffffffffffffffffffffffffffffff16815260200190815260200160002060006101000a81548160ff021916908360038111156114c957fe5b02179055505050565b600260038111156114df57fe5b600960003373ffffffffffffffffffffffffffffffffffffffff1673ffffffffffffffffffffffffffffffffffffffff16815260200190815260200160002060009054906101000a900460ff16600381111561153757fe5b14156117d1576000600860003373ffffffffffffffffffffffffffffffffffffffff1673ffffffffffffffffffffffffffffffffffffffff16815260200190815260200160002090506000600460008a8152602001908152602001600020905060006115a1611edf565b9050816002018190806001815401808255809150509060018203906000526020600020016000909192909190915055508260040181908060018154018082558091505090600182039060005260206000200160009091929091909150555080600d6000838152602001908152602001600020600001819055506000600d600083815260200190815260200160002060090160006101000a81548160ff0219169083151502179055506000600d600083815260200190815260200160002060090160016101000a81548160ff02191690831515021790555089600d6000838152602001908152602001600020600101819055508260000154600d6000838152602001908152602001600020600201819055508888600d600084815260200190815260200160002060030191906116d7929190611ef7565b508484600d600084815260200190815260200160002060050191906116fd929190611ef7565b508686600d60008481526020019081526020016000206004019190611723929190611ef7565b508a600d60008381526020019081526020016000206008018190555042600d600083815260200190815260200160002060060181905550627a9b804201600d6000838152602001908152602001600020600701819055507fa4d50c5fdd7b30fe77465e274d38f46d4892023d34f1da500443eb1a9a6b42d6600d600083815260200190815260200160002083858e6040516117c194939291906131cb565b60405180910390a150505061180c565b6040517f08c379a0000000000000000000000000000000000000000000000000000000008152600401611803906130d0565b60405180910390fd5b5050505050505050565b6001600381111561182357fe5b600660003373ffffffffffffffffffffffffffffffffffffffff1673ffffffffffffffffffffffffffffffffffffffff16815260200190815260200160002060009054906101000a900460ff16600381111561187b57fe5b1415611a9057344710156118c4576040517f08c379a00000000000000000000000000000000000000000000000000000000081526004016118bb90613130565b60405180910390fd5b600d600082815260200190815260200160002060090160019054906101000a900460ff1615611928576040517f08c379a000000000000000000000000000000000000000000000000000000000815260040161191f90613110565b60405180910390fd5b6000600d6000838152602001908152602001600020905060006007600083600201548152602001908152602001600020905060008160030160009054906101000a900473ffffffffffffffffffffffffffffffffffffffff1690508073ffffffffffffffffffffffffffffffffffffffff166108fc349081150290604051600060405180830381858888f193505050501580156119c9573d6000803e3d6000fd5b503373ffffffffffffffffffffffffffffffffffffffff168260030160009054906101000a900473ffffffffffffffffffffffffffffffffffffffff1673ffffffffffffffffffffffffffffffffffffffff167fc063efac985b8a228415ff3bb4f0766a3108513fbb464fe953d78d6543614bf3348660020154604051611a51929190613225565b60405180910390a36001600d600086815260200190815260200160002060090160016101000a81548160ff021916908315150217905550505050611acb565b6040517f08c379a0000000000000000000000000000000000000000000000000000000008152600401611ac290613050565b60405180910390fd5b50565b6060600380811115611adc57fe5b600c60003373ffffffffffffffffffffffffffffffffffffffff1673ffffffffffffffffffffffffffffffffffffffff16815260200190815260200160002060009054906101000a900460ff166003811115611b3457fe5b1415611e87576000600460008481526020019081526020016000209050600060059050600582600201805490501015611b7257816002018054905090505b606081604051908082528060200260200182016040528015611bae57816020015b611b9b612023565b815260200190600190039081611b935790505b50905060008090505b82811015611e7b576000600d60008660020184870381548110611bd657fe5b9060005260206000200154815260200190815260200160002090508060405180610160016040529081600082015481526020016001820154815260200160028201548152602001600382018054600181600116156101000203166002900480601f016020809104026020016040519081016040528092919081815260200182805460018160011615610100020316600290048015611cb55780601f10611c8a57610100808354040283529160200191611cb5565b820191906000526020600020905b815481529060010190602001808311611c9857829003601f168201915b50505050508152602001600482018054600181600116156101000203166002900480601f016020809104026020016040519081016040528092919081815260200182805460018160011615610100020316600290048015611d575780601f10611d2c57610100808354040283529160200191611d57565b820191906000526020600020905b815481529060010190602001808311611d3a57829003601f168201915b50505050508152602001600582018054600181600116156101000203166002900480601f016020809104026020016040519081016040528092919081815260200182805460018160011615610100020316600290048015611df95780601f10611dce57610100808354040283529160200191611df9565b820191906000526020600020905b815481529060010190602001808311611ddc57829003601f168201915b505050505081526020016006820154815260200160078201548152602001600882015481526020016009820160009054906101000a900460ff161515151581526020016009820160019054906101000a900460ff161515151581525050838381518110611e6257fe5b6020026020010181905250508080600101915050611bb7565b50809350505050611ec2565b6040517f08c379a0000000000000000000000000000000000000000000000000000000008152600401611eb9906130f0565b60405180910390fd5b919050565b60006001600081548092919060010191905055905090565b60006003600081548092919060010191905055905090565b828054600181600116156101000203166002900490600052602060002090601f016020900481019282601f10611f3857803560ff1916838001178555611f66565b82800160010185558215611f66579182015b82811115611f65578235825591602001919060010190611f4a565b5b509050611f739190612081565b5090565b6040518060c00160405280600081526020016060815260200160608152602001600073ffffffffffffffffffffffffffffffffffffffff168152602001606081526020016000151581525090565b6040518061016001604052806000815260200160008152602001600081526020016060815260200160608152602001606081526020016000815260200160008152602001600081526020016000151581526020016000151581525090565b6040518061016001604052806000815260200160008152602001600081526020016060815260200160608152602001606081526020016000815260200160008152602001600081526020016000151581526020016000151581525090565b6120a391905b8082111561209f576000816000905550600101612087565b5090565b90565b6000813590506120b5816134de565b92915050565b6000813590506120ca816134f5565b92915050565b60008083601f8401126120e257600080fd5b8235905067ffffffffffffffff8111156120fb57600080fd5b60208301915083600182028301111561211357600080fd5b9250929050565b6000813590506121298161350c565b92915050565b60008060008060006060868803121561214757600080fd5b6000612155888289016120bb565b955050602086013567ffffffffffffffff81111561217257600080fd5b61217e888289016120d0565b9450945050604086013567ffffffffffffffff81111561219d57600080fd5b6121a9888289016120d0565b92509250509295509295909350565b6000806000604084860312156121cd57600080fd5b60006121db868287016120a6565b935050602084013567ffffffffffffffff8111156121f857600080fd5b612204868287016120d0565b92509250509250925092565b60006020828403121561222257600080fd5b60006122308482850161211a565b91505092915050565b6000806040838503121561224c57600080fd5b600061225a8582860161211a565b925050602061226b858286016120a6565b9150509250929050565b60008060008060008060008060a0898b03121561229157600080fd5b600061229f8b828c0161211a565b98505060206122b08b828c0161211a565b975050604089013567ffffffffffffffff8111156122cd57600080fd5b6122d98b828c016120d0565b9650965050606089013567ffffffffffffffff8111156122f857600080fd5b6123048b828c016120d0565b9450945050608089013567ffffffffffffffff81111561232357600080fd5b61232f8b828c016120d0565b92509250509295985092959890939650565b600061234d8383612c22565b905092915050565b60006123618383612fb3565b60208301905092915050565b612376816133a3565b82525050565b61238581613391565b82525050565b61239481613391565b82525050565b60006123a582613298565b6123af81856132f6565b9350836020820285016123c18561324e565b8060005b858110156123fd57848403895281516123de8582612341565b94506123e9836132cf565b925060208a019950506001810190506123c5565b50829750879550505050505092915050565b600061241a826132a3565b6124248185613307565b935061242f8361325e565b8060005b838110156124605781516124478882612355565b9750612452836132dc565b925050600181019050612433565b5085935050505092915050565b6000612478826132ae565b6124828185613307565b935061248d8361326e565b8060005b838110156124c5576124a2826134a0565b6124ac8882612355565b97506124b7836132e9565b925050600181019050612491565b5085935050505092915050565b6124db816133b5565b82525050565b60006124ec826132c4565b6124f68185613329565b93506125068185602086016133eb565b61250f816134b3565b840191505092915050565b6000612525826132b9565b61252f8185613318565b935061253f8185602086016133eb565b612548816134b3565b840191505092915050565b6000815460018116600081146125705760018114612596576125da565b607f60028304166125818187613318565b955060ff1983168652602086019350506125da565b600282046125a48187613318565b95506125af85613283565b60005b828110156125d1578154818901526001820191506020810190506125b2565b80880195505050505b505092915050565b60006125ef602383613329565b91507f54686973207072657363697074696f6e20697320616c726561647920636c616960008301527f6d656400000000000000000000000000000000000000000000000000000000006020830152604082019050919050565b6000612655602f83613329565b91507f536f7272792c20746869732066756e6374696f6e20697320726573657276656460008301527f20746f207468652070617469656e7400000000000000000000000000000000006020830152604082019050919050565b60006126bb604383613329565b91507f536f7272792c20746869732066756e6374696f6e20697320726573657276656460008301527f20746f20746865206f776e6572206f662074686520736d61727420636f6e747260208301527f61637400000000000000000000000000000000000000000000000000000000006040830152606082019050919050565b6000612747602d83613329565b91507f54686973206e756d207365637520697320616c726561647920646566696e656460008301527f20617320612070617469656e74000000000000000000000000000000000000006020830152604082019050919050565b60006127ad602b83613329565b91507f54686973206164647265737320697320616c726561647920646566696e65642060008301527f6173206120646f63746f720000000000000000000000000000000000000000006020830152604082019050919050565b6000612813602e83613329565b91507f536f7272792c20746869732066756e6374696f6e20697320726573657276656460008301527f20746f2074686520646f63746f720000000000000000000000000000000000006020830152604082019050919050565b6000612879603083613329565b91507f536f7272792c20746869732066756e6374696f6e20697320726573657276656460008301527f20746f2074686520706861726d616379000000000000000000000000000000006020830152604082019050919050565b60006128df601f83613329565b91507f507265736372697074696f6e2073686f756c64206e6f742062652070616964006000830152602082019050919050565b600061291f601583613329565b91507f42616c616e6365206973206e6f7420656e6f75676800000000000000000000006000830152602082019050919050565b600060c08301600083015161296a6000860182612fb3565b5060208301518482036020860152612982828261251a565b9150506040830151848203604086015261299c828261251a565b91505060608301516129b1606086018261236d565b50608083015184820360808601526129c9828261240f565b91505060a08301516129de60a08601826124d2565b508091505092915050565b600060c083016000808401549050612a008161346c565b612a0d6000870182612fb3565b50600184018583036020870152612a248382612553565b925050600284018583036040870152612a3d8382612553565b92505060038401549050612a5081613438565b612a5d606087018261236d565b50600484018583036080870152612a74838261246d565b92505060058401549050612a8781613452565b612a9460a08701826124d2565b50819250505092915050565b6000608083016000808401549050612ab78161346c565b612ac46000870182612fb3565b5060018401549050612ad58161341e565b612ae2602087018261237c565b50600284018583036040870152612af9838261246d565b92505060038401549050612b0c81613452565b612b1960608701826124d2565b50819250505092915050565b600061016083016000830151612b3e6000860182612fb3565b506020830151612b516020860182612fb3565b506040830151612b646040860182612fb3565b5060608301518482036060860152612b7c828261251a565b91505060808301518482036080860152612b96828261251a565b91505060a083015184820360a0860152612bb0828261251a565b91505060c0830151612bc560c0860182612fb3565b5060e0830151612bd860e0860182612fb3565b50610100830151612bed610100860182612fb3565b50610120830151612c026101208601826124d2565b50610140830151612c176101408601826124d2565b508091505092915050565b600061016083016000830151612c3b6000860182612fb3565b506020830151612c4e6020860182612fb3565b506040830151612c616040860182612fb3565b5060608301518482036060860152612c79828261251a565b91505060808301518482036080860152612c93828261251a565b91505060a083015184820360a0860152612cad828261251a565b91505060c0830151612cc260c0860182612fb3565b5060e0830151612cd560e0860182612fb3565b50610100830151612cea610100860182612fb3565b50610120830151612cff6101208601826124d2565b50610140830151612d146101408601826124d2565b508091505092915050565b600061016083016000808401549050612d378161346c565b612d446000870182612fb3565b5060018401549050612d558161346c565b612d626020870182612fb3565b5060028401549050612d738161346c565b612d806040870182612fb3565b50600384018583036060870152612d978382612553565b925050600484018583036080870152612db08382612553565b9250506005840185830360a0870152612dc98382612553565b92505060068401549050612ddc8161346c565b612de960c0870182612fb3565b5060078401549050612dfa8161346c565b612e0760e0870182612fb3565b5060088401549050612e188161346c565b612e26610100870182612fb3565b5060098401549050612e3781613452565b612e456101208701826124d2565b50612e4f81613486565b612e5d6101408701826124d2565b50819250505092915050565b600061016083016000808401549050612e818161346c565b612e8e6000870182612fb3565b5060018401549050612e9f8161346c565b612eac6020870182612fb3565b5060028401549050612ebd8161346c565b612eca6040870182612fb3565b50600384018583036060870152612ee18382612553565b925050600484018583036080870152612efa8382612553565b9250506005840185830360a0870152612f138382612553565b92505060068401549050612f268161346c565b612f3360c0870182612fb3565b5060078401549050612f448161346c565b612f5160e0870182612fb3565b5060088401549050612f628161346c565b612f70610100870182612fb3565b5060098401549050612f8181613452565b612f8f6101208701826124d2565b50612f9981613486565b612fa76101408701826124d2565b50819250505092915050565b612fbc816133e1565b82525050565b612fcb816133e1565b82525050565b6000602082019050612fe6600083018461238b565b92915050565b60006020820190508181036000830152613006818461239a565b905092915050565b6000602082019050818103600083015261302881846124e1565b905092915050565b60006020820190508181036000830152613049816125e2565b9050919050565b6000602082019050818103600083015261306981612648565b9050919050565b60006020820190508181036000830152613089816126ae565b9050919050565b600060208201905081810360008301526130a98161273a565b9050919050565b600060208201905081810360008301526130c9816127a0565b9050919050565b600060208201905081810360008301526130e981612806565b9050919050565b600060208201905081810360008301526131098161286c565b9050919050565b60006020820190508181036000830152613129816128d2565b9050919050565b6000602082019050818103600083015261314981612912565b9050919050565b6000602082019050818103600083015261316a8184612952565b905092915050565b6000602082019050818103600083015261318c8184612b25565b905092915050565b600060408201905081810360008301526131ae8185612d1f565b905081810360208301526131c28184612aa0565b90509392505050565b600060808201905081810360008301526131e58187612e69565b905081810360208301526131f98186612aa0565b9050818103604083015261320d81856129e9565b905061321c6060830184612fc2565b95945050505050565b600060408201905061323a6000830185612fc2565b6132476020830184612fc2565b9392505050565b6000819050602082019050919050565b6000819050602082019050919050565b60008190508160005260206000209050919050565b60008190508160005260206000209050919050565b600081519050919050565b600081519050919050565b600081549050919050565b600081519050919050565b600081519050919050565b6000602082019050919050565b6000602082019050919050565b6000600182019050919050565b600082825260208201905092915050565b600082825260208201905092915050565b600082825260208201905092915050565b600082825260208201905092915050565b600073ffffffffffffffffffffffffffffffffffffffff82169050919050565b600073ffffffffffffffffffffffffffffffffffffffff82169050919050565b600060ff82169050919050565b6000819050919050565b600061339c826133c1565b9050919050565b60006133ae826133c1565b9050919050565b60008115159050919050565b600073ffffffffffffffffffffffffffffffffffffffff82169050919050565b6000819050919050565b60005b838110156134095780820151818401526020810190506133ee565b83811115613418576000848401525b50505050565b600061343161342c836134c4565b61333a565b9050919050565b600061344b613446836134c4565b61335a565b9050919050565b6000613465613460836134c4565b61337a565b9050919050565b600061347f61347a836134c4565b613387565b9050919050565b6000613499613494836134d1565b61337a565b9050919050565b60006134ac825461346c565b9050919050565b6000601f19601f8301169050919050565b60008160001c9050919050565b60008160081c9050919050565b6134e781613391565b81146134f257600080fd5b50565b6134fe816133a3565b811461350957600080fd5b50565b613515816133e1565b811461352057600080fd5b5056fea365627a7a72315820dd12635a612ebe46aebe3f4e16b9a76cd1a0eb246c990c18a9d4bb2d38c602656c6578706572696d656e74616cf564736f6c63430005100040",
  "source": "// SPDX-License-Identifier: MIT\npragma solidity >=0.4.22 <0.9.0;\npragma experimental ABIEncoderV2;\n\n/// @title Prescription made by the doctor after a consultation\ncontract Prescurity {\n\n    /**\n     * @dev Owner should be the admin\n     * He is responsible for adding Doctors and Pharmacists\n     */\n    address private _owner;\n\n    uint private _doctorId;\n    uint private _pharmacyId;\n    uint private _prescriptionId;\n\n    struct Patient {\n        uint numero_secu;\n        address patientAddress;\n        uint[] prescriptionsIds;\n        bool isValue;\n    }\n\n    struct Doctor {\n        uint id;\n        string speciality;\n        string name;\n        address payable doctorAddress;\n        uint[] prescriptionIds;\n        bool isValue;\n    }\n\n    struct Pharmacy {\n        uint id;\n        string name;\n        address pharmacyAddress;\n        bool isValue;\n    }\n    \n    struct Prescription {\n        uint id;\n        uint patientId;\n        uint doctorId;\n        string medicine;\n        string disease;\n        string frequency;\n        uint256 startTimestamp;\n        uint256 endTimestamp;\n        uint dueToDoctor;\n        bool claimed;\n        bool paid;\n    } \n\n    // set owner as first interactor with the contract\n    constructor() public {\n        _setOwner(msg.sender);\n        _setDoctorId(1);\n        _setPharmacyId(1);\n        _setPrescriptionId(1);\n    }\n\n    enum authentification {\n        anon,\n        patient,\n        doctor,\n        pharmacy\n    }\n\n    mapping (uint => Patient) patientNumSecuMap;\n    mapping(address => Patient) patientAddressMap;\n    mapping (address => authentification) patientAuthentification;\n    mapping (uint => Doctor) doctorIdMap;\n    mapping (address => Doctor) doctorAddressMap;\n    mapping (address => authentification) doctorAuthentification;\n    mapping (uint => Pharmacy) pharmacyIdMap;\n    mapping (address => Pharmacy) pharmacyAddressMap;\n    mapping (address => authentification) pharmacyAuthentification;\n    mapping (uint => Prescription) prescriptionIdMap;\n\n    modifier patientOnly() {\n        if (patientAuthentification[msg.sender] == authentification.patient) {\n            _;\n        } else {\n            revert(\"Sorry, this function is reserved to the patient\");\n        }\n    }\n\n    modifier doctorOnly() {\n        if (doctorAuthentification[msg.sender] == authentification.doctor) {\n            _;\n        } else {\n            revert(\"Sorry, this function is reserved to the doctor\");\n        }\n    }\n    \n    modifier pharmacyOnly(){\n        if (pharmacyAuthentification[msg.sender] == authentification.pharmacy) {\n            _;\n        } else {\n            revert(\"Sorry, this function is reserved to the pharmacy\");\n        }\n    }\n    \n    modifier ownerOnly(){\n        if (getOwner() == msg.sender) {\n            _;\n        } else {\n            revert(\"Sorry, this function is reserved to the owner of the smart contract\");\n        }\n    }\n\n    function uint2str(uint _i) internal pure returns (string memory _uintAsString) {\n        if (_i == 0) {\n            return \"0\";\n        }\n        uint j = _i;\n        uint len;\n        while (j != 0) {\n            len++;\n            j /= 10;\n        }\n        bytes memory bstr = new bytes(len);\n        uint k = len;\n        while (_i != 0) {\n            k = k-1;\n            uint8 temp = (48 + uint8(_i - _i / 10 * 10));\n            bytes1 b1 = bytes1(temp);\n            bstr[k] = b1;\n            _i /= 10;\n        }\n        return string(bstr);\n    }\n\n    function append(string memory a, string memory b) internal pure returns (string memory) {\n        return string(abi.encodePacked(a, b));\n    }\n\n    function getOwner() public view returns (address) {\n        return _owner;\n    }\n\n    function getDoctorId() internal returns (uint) {\n        return _doctorId++;\n    }\n\n    function getPrescriptionId() internal returns (uint) {\n        return _prescriptionId++;\n    }\n\n    function getUserType() view public returns (string memory) {\n        if (doctorAuthentification[msg.sender] == authentification.doctor) {\n            return \"doctor\";\n        }\n        if (pharmacyAuthentification[msg.sender] == authentification.pharmacy) {\n            return \"pharmacy\";\n        }\n        if (patientAuthentification[msg.sender] == authentification.patient) {\n            return \"patient\";\n        }\n        if(msg.sender == getOwner()){\n            return \"owner\";\n        }\n        return \"none\";\n    }\n\n    function addDoctor(address payable addr, string calldata name, string calldata speciality) external ownerOnly {\n        require(doctorAuthentification[addr] != authentification.doctor, \"This address is already defined as a doctor\");\n        require(pharmacyAuthentification[addr] != authentification.pharmacy, \"This address is already defined as a doctor\");\n        uint id = getDoctorId();\n        doctorIdMap[id].id = id;\n        doctorIdMap[id].speciality = speciality;\n        doctorIdMap[id].name = name;\n        doctorIdMap[id].doctorAddress = addr;\n        doctorIdMap[id].isValue = true;\n        doctorAddressMap[addr].id = id;\n        doctorAuthentification[addr] = authentification.doctor;\n    }\n\n    function addPharmacy(address addr, string calldata name) external ownerOnly {\n        require(pharmacyAuthentification[addr] != authentification.pharmacy, \"This address is already defined as a doctor\");\n        require(doctorAuthentification[addr] != authentification.doctor, \"This address is already defined as a doctor\");\n        uint id = getDoctorId();\n        pharmacyIdMap[id].id = id;\n        pharmacyIdMap[id].name = name;\n        pharmacyIdMap[id].pharmacyAddress = addr;\n        pharmacyIdMap[id].isValue = true;\n        pharmacyAddressMap[addr].id = id;\n        pharmacyAuthentification[addr] = authentification.pharmacy;\n    }\n\n    /**\n     * @dev problme: une personne mal-intentione pourrait lier un numro de scu ne lui appartenant pas  une addresse quelconque \n     */\n    function addPatient(uint numero_secu, address addr) external {\n        require(!patientNumSecuMap[numero_secu].isValue, \"This num secu is already defined as a patient\");\n        patientNumSecuMap[numero_secu].numero_secu = numero_secu;\n        patientNumSecuMap[numero_secu].isValue = true;\n        patientNumSecuMap[numero_secu].patientAddress = addr;\n        patientAuthentification[addr] = authentification.patient;\n    }\n\n    function addPrescription(uint amountAskedByDoctor, uint numero_secu, string calldata medicine, string calldata disease, string calldata frequency) external doctorOnly {\n        //require(msg.value == amountAskedByDoctor, append(\"Please match the asked value by the doctor: \",uint2str(amountAskedByDoctor)));\n        Doctor storage doctor = doctorAddressMap[msg.sender];\n        Patient storage patient = patientNumSecuMap[numero_secu];\n        uint prescriptionId = getPrescriptionId();\n        patient.prescriptionsIds.push(prescriptionId);\n        doctor.prescriptionIds.push(prescriptionId);\n        prescriptionIdMap[prescriptionId].id = prescriptionId;\n        prescriptionIdMap[prescriptionId].claimed = false;\n        prescriptionIdMap[prescriptionId].paid = false;\n        prescriptionIdMap[prescriptionId].patientId = numero_secu;\n        prescriptionIdMap[prescriptionId].doctorId = doctor.id;\n        prescriptionIdMap[prescriptionId].medicine = medicine;\n        prescriptionIdMap[prescriptionId].frequency = frequency;\n        prescriptionIdMap[prescriptionId].disease = disease;\n        prescriptionIdMap[prescriptionId].dueToDoctor = amountAskedByDoctor;\n        prescriptionIdMap[prescriptionId].startTimestamp = block.timestamp;\n        prescriptionIdMap[prescriptionId].endTimestamp = block.timestamp + 93 days;\n        emit Consultation(prescriptionIdMap[prescriptionId], patient, doctor, amountAskedByDoctor);\n    }\n\n    function payPrescription(uint prescriptionId) payable external patientOnly {\n        require(address(this).balance >= msg.value, \"Balance is not enough\");\n        require(!prescriptionIdMap[prescriptionId].paid, \"Prescription should not be paid\");\n        Prescription storage prescription = prescriptionIdMap[prescriptionId];\n        Doctor storage doctor = doctorIdMap[prescription.doctorId];\n        address payable doctorAddr = doctor.doctorAddress;\n        doctorAddr.transfer(msg.value);\n        emit DoctorPaid(msg.value, doctor.doctorAddress, msg.sender, prescription.doctorId);\n        prescriptionIdMap[prescriptionId].paid = true;\n    }\n\n    function claimPrescription(uint prescriptionId) external pharmacyOnly {\n        require(prescriptionIdMap[prescriptionId].claimed == false, \"This presciption is already claimed\");\n        Prescription storage prescription = prescriptionIdMap[prescriptionId];\n        Patient storage patient = patientNumSecuMap[prescription.patientId];\n        prescriptionIdMap[prescriptionId].claimed = true;\n        emit PharmaClaimed(prescription, msg.sender, patient);\n    }\n\n    function showPrescriptionPatient(uint numSecuPatient) view public pharmacyOnly returns(Prescription[] memory){\n        //require(numSecuPatient.length == 15, \"not a secu number\");\n\n        Patient storage patient = patientNumSecuMap[numSecuPatient];\n        uint len = 5;\n        if(patient.prescriptionsIds.length < 5){\n            len = patient.prescriptionsIds.length;\n        }\n        Prescription[] memory prescriptions = new Prescription[](len);\n        for(uint i=0; i < len; i++){\n            Prescription storage prescription = prescriptionIdMap[patient.prescriptionsIds[len-i]];\n            prescriptions[i] = prescription;\n        }\n        return prescriptions;\n    }\n\n    function getPrescription(uint idprescription) view public doctorOnly returns(Prescription memory) {\n        Prescription storage prescription= prescriptionIdMap[idprescription];\n        return prescription;\n    }\n\n    function _setOwner(address new_owner) private {\n        address old_owner = _owner;\n        _owner = new_owner;\n        emit DefineOwnership(old_owner, new_owner);\n    }\n\n    function getDoctor(uint iddoctor) view public returns(Doctor memory) {\n        Doctor storage doctor= doctorIdMap[iddoctor];\n        return doctor;\n    }\n    function _setDoctorId(uint index) private {\n        _doctorId = index;\n    }\n\n    function _setPharmacyId(uint index) private {\n        _pharmacyId = index;\n    }\n\n    function _setPrescriptionId(uint index) private {\n        _prescriptionId = index;\n    }\n    \n    event prescriptionsShow(Prescription[] prescription);\n    event PharmaClaimed(Prescription prescription,address indexed pharmaaddress,Patient patient);\n    event DefineOwnership(address indexed old_owner, address indexed new_owner);\n    event Consultation(Prescription prescription, Patient patient, Doctor doctor, uint amount);\n    event DoctorPaid(uint amount, address indexed doctorAddress, address indexed patientAddress, uint doctorId);\n    event RetrieveMedicaments(Patient patient, Pharmacy pharmacy, Prescription prescription);\n}",
  "sourcePath": "/Users/martin/Documents/EFREI/L3/MasterCamp/prescurity-blockchain/contracts/Prescurity.sol",
  "compiler": {
    "name": "solc",
    "version": "0.5.16+commit.9c3226ce.Emscripten.clang"
  },
  "schemaVersion": "3.4.1",
  "updatedAt": "2021-07-02T09:27:13.789Z",
  "devdoc": {
    "methods": {
      "addPatient(uint256,address)": {
        "details": "problme: une personne mal-intentione pourrait lier un numro de scu ne lui appartenant pas  une addresse quelconque "
      }
    },
    "title": "Prescription made by the doctor after a consultation"
  },
  "userdoc": {
    "methods": {}
  }
}