{
  "contractName": "Prescurity",
  "abi": [
    {
      "inputs": [],
      "payable": false,
      "stateMutability": "nonpayable",
      "type": "constructor"
    },
    {
      "anonymous": false,
      "inputs": [
        {
          "components": [
            {
              "internalType": "uint256",
              "name": "id",
              "type": "uint256"
            },
            {
              "internalType": "uint256",
              "name": "patientId",
              "type": "uint256"
            },
            {
              "internalType": "uint256",
              "name": "doctorId",
              "type": "uint256"
            },
            {
              "internalType": "string",
              "name": "medicine",
              "type": "string"
            },
            {
              "internalType": "string",
              "name": "disease",
              "type": "string"
            },
            {
              "internalType": "string",
              "name": "frequency",
              "type": "string"
            },
            {
              "internalType": "uint256",
              "name": "startTimestamp",
              "type": "uint256"
            },
            {
              "internalType": "uint256",
              "name": "endTimestamp",
              "type": "uint256"
            },
            {
              "internalType": "uint256",
              "name": "dueToDoctor",
              "type": "uint256"
            },
            {
              "internalType": "bool",
              "name": "claimed",
              "type": "bool"
            },
            {
              "internalType": "bool",
              "name": "paid",
              "type": "bool"
            }
          ],
          "indexed": false,
          "internalType": "struct Prescurity.Prescription",
          "name": "prescription",
          "type": "tuple"
        },
        {
          "components": [
            {
              "internalType": "uint256",
              "name": "numero_secu",
              "type": "uint256"
            },
            {
              "internalType": "address",
              "name": "patientAddress",
              "type": "address"
            },
            {
              "internalType": "uint256[]",
              "name": "prescriptionsIds",
              "type": "uint256[]"
            },
            {
              "internalType": "bool",
              "name": "isValue",
              "type": "bool"
            }
          ],
          "indexed": false,
          "internalType": "struct Prescurity.Patient",
          "name": "patient",
          "type": "tuple"
        },
        {
          "components": [
            {
              "internalType": "uint256",
              "name": "id",
              "type": "uint256"
            },
            {
              "internalType": "string",
              "name": "speciality",
              "type": "string"
            },
            {
              "internalType": "string",
              "name": "name",
              "type": "string"
            },
            {
              "internalType": "address payable",
              "name": "doctorAddress",
              "type": "address"
            },
            {
              "internalType": "uint256[]",
              "name": "prescriptionsIds",
              "type": "uint256[]"
            },
            {
              "internalType": "bool",
              "name": "isValue",
              "type": "bool"
            }
          ],
          "indexed": false,
          "internalType": "struct Prescurity.Doctor",
          "name": "doctor",
          "type": "tuple"
        },
        {
          "indexed": false,
          "internalType": "uint256",
          "name": "amount",
          "type": "uint256"
        }
      ],
      "name": "Consultation",
      "type": "event"
    },
    {
      "anonymous": false,
      "inputs": [
        {
          "indexed": true,
          "internalType": "address",
          "name": "old_owner",
          "type": "address"
        },
        {
          "indexed": true,
          "internalType": "address",
          "name": "new_owner",
          "type": "address"
        }
      ],
      "name": "DefineOwnership",
      "type": "event"
    },
    {
      "anonymous": false,
      "inputs": [
        {
          "indexed": false,
          "internalType": "uint256",
          "name": "amount",
          "type": "uint256"
        },
        {
          "indexed": true,
          "internalType": "address",
          "name": "doctorAddress",
          "type": "address"
        },
        {
          "indexed": true,
          "internalType": "address",
          "name": "patientAddress",
          "type": "address"
        },
        {
          "indexed": false,
          "internalType": "uint256",
          "name": "doctorId",
          "type": "uint256"
        }
      ],
      "name": "DoctorPaid",
      "type": "event"
    },
    {
      "anonymous": false,
      "inputs": [
        {
          "components": [
            {
              "internalType": "uint256",
              "name": "id",
              "type": "uint256"
            },
            {
              "internalType": "uint256",
              "name": "patientId",
              "type": "uint256"
            },
            {
              "internalType": "uint256",
              "name": "doctorId",
              "type": "uint256"
            },
            {
              "internalType": "string",
              "name": "medicine",
              "type": "string"
            },
            {
              "internalType": "string",
              "name": "disease",
              "type": "string"
            },
            {
              "internalType": "string",
              "name": "frequency",
              "type": "string"
            },
            {
              "internalType": "uint256",
              "name": "startTimestamp",
              "type": "uint256"
            },
            {
              "internalType": "uint256",
              "name": "endTimestamp",
              "type": "uint256"
            },
            {
              "internalType": "uint256",
              "name": "dueToDoctor",
              "type": "uint256"
            },
            {
              "internalType": "bool",
              "name": "claimed",
              "type": "bool"
            },
            {
              "internalType": "bool",
              "name": "paid",
              "type": "bool"
            }
          ],
          "indexed": false,
          "internalType": "struct Prescurity.Prescription",
          "name": "prescription",
          "type": "tuple"
        },
        {
          "indexed": true,
          "internalType": "address",
          "name": "pharmaaddress",
          "type": "address"
        },
        {
          "components": [
            {
              "internalType": "uint256",
              "name": "numero_secu",
              "type": "uint256"
            },
            {
              "internalType": "address",
              "name": "patientAddress",
              "type": "address"
            },
            {
              "internalType": "uint256[]",
              "name": "prescriptionsIds",
              "type": "uint256[]"
            },
            {
              "internalType": "bool",
              "name": "isValue",
              "type": "bool"
            }
          ],
          "indexed": false,
          "internalType": "struct Prescurity.Patient",
          "name": "patient",
          "type": "tuple"
        }
      ],
      "name": "PharmaClaimed",
      "type": "event"
    },
    {
      "anonymous": false,
      "inputs": [
        {
          "components": [
            {
              "internalType": "uint256",
              "name": "numero_secu",
              "type": "uint256"
            },
            {
              "internalType": "address",
              "name": "patientAddress",
              "type": "address"
            },
            {
              "internalType": "uint256[]",
              "name": "prescriptionsIds",
              "type": "uint256[]"
            },
            {
              "internalType": "bool",
              "name": "isValue",
              "type": "bool"
            }
          ],
          "indexed": false,
          "internalType": "struct Prescurity.Patient",
          "name": "patient",
          "type": "tuple"
        },
        {
          "components": [
            {
              "internalType": "uint256",
              "name": "id",
              "type": "uint256"
            },
            {
              "internalType": "string",
              "name": "name",
              "type": "string"
            },
            {
              "internalType": "address",
              "name": "pharmacyAddress",
              "type": "address"
            },
            {
              "internalType": "bool",
              "name": "isValue",
              "type": "bool"
            }
          ],
          "indexed": false,
          "internalType": "struct Prescurity.Pharmacy",
          "name": "pharmacy",
          "type": "tuple"
        },
        {
          "components": [
            {
              "internalType": "uint256",
              "name": "id",
              "type": "uint256"
            },
            {
              "internalType": "uint256",
              "name": "patientId",
              "type": "uint256"
            },
            {
              "internalType": "uint256",
              "name": "doctorId",
              "type": "uint256"
            },
            {
              "internalType": "string",
              "name": "medicine",
              "type": "string"
            },
            {
              "internalType": "string",
              "name": "disease",
              "type": "string"
            },
            {
              "internalType": "string",
              "name": "frequency",
              "type": "string"
            },
            {
              "internalType": "uint256",
              "name": "startTimestamp",
              "type": "uint256"
            },
            {
              "internalType": "uint256",
              "name": "endTimestamp",
              "type": "uint256"
            },
            {
              "internalType": "uint256",
              "name": "dueToDoctor",
              "type": "uint256"
            },
            {
              "internalType": "bool",
              "name": "claimed",
              "type": "bool"
            },
            {
              "internalType": "bool",
              "name": "paid",
              "type": "bool"
            }
          ],
          "indexed": false,
          "internalType": "struct Prescurity.Prescription",
          "name": "prescription",
          "type": "tuple"
        }
      ],
      "name": "RetrieveMedicaments",
      "type": "event"
    },
    {
      "anonymous": false,
      "inputs": [
        {
          "components": [
            {
              "internalType": "uint256",
              "name": "id",
              "type": "uint256"
            },
            {
              "internalType": "uint256",
              "name": "patientId",
              "type": "uint256"
            },
            {
              "internalType": "uint256",
              "name": "doctorId",
              "type": "uint256"
            },
            {
              "internalType": "string",
              "name": "medicine",
              "type": "string"
            },
            {
              "internalType": "string",
              "name": "disease",
              "type": "string"
            },
            {
              "internalType": "string",
              "name": "frequency",
              "type": "string"
            },
            {
              "internalType": "uint256",
              "name": "startTimestamp",
              "type": "uint256"
            },
            {
              "internalType": "uint256",
              "name": "endTimestamp",
              "type": "uint256"
            },
            {
              "internalType": "uint256",
              "name": "dueToDoctor",
              "type": "uint256"
            },
            {
              "internalType": "bool",
              "name": "claimed",
              "type": "bool"
            },
            {
              "internalType": "bool",
              "name": "paid",
              "type": "bool"
            }
          ],
          "indexed": false,
          "internalType": "struct Prescurity.Prescription[]",
          "name": "prescription",
          "type": "tuple[]"
        }
      ],
      "name": "prescriptionsShow",
      "type": "event"
    },
    {
      "constant": true,
      "inputs": [],
      "name": "getOwner",
      "outputs": [
        {
          "internalType": "address",
          "name": "",
          "type": "address"
        }
      ],
      "payable": false,
      "stateMutability": "view",
      "type": "function"
    },
    {
      "constant": true,
      "inputs": [],
      "name": "getUserType",
      "outputs": [
        {
          "internalType": "string",
          "name": "",
          "type": "string"
        }
      ],
      "payable": false,
      "stateMutability": "view",
      "type": "function"
    },
    {
      "constant": false,
      "inputs": [
        {
          "internalType": "address payable",
          "name": "addr",
          "type": "address"
        },
        {
          "internalType": "string",
          "name": "name",
          "type": "string"
        },
        {
          "internalType": "string",
          "name": "speciality",
          "type": "string"
        }
      ],
      "name": "addDoctor",
      "outputs": [],
      "payable": false,
      "stateMutability": "nonpayable",
      "type": "function"
    },
    {
      "constant": false,
      "inputs": [
        {
          "internalType": "address",
          "name": "addr",
          "type": "address"
        },
        {
          "internalType": "string",
          "name": "name",
          "type": "string"
        }
      ],
      "name": "addPharmacy",
      "outputs": [],
      "payable": false,
      "stateMutability": "nonpayable",
      "type": "function"
    },
    {
      "constant": false,
      "inputs": [
        {
          "internalType": "uint256",
          "name": "numero_secu",
          "type": "uint256"
        },
        {
          "internalType": "address",
          "name": "addr",
          "type": "address"
        }
      ],
      "name": "addPatient",
      "outputs": [],
      "payable": false,
      "stateMutability": "nonpayable",
      "type": "function"
    },
    {
      "constant": false,
      "inputs": [
        {
          "internalType": "uint256",
          "name": "amountAskedByDoctor",
          "type": "uint256"
        },
        {
          "internalType": "uint256",
          "name": "numero_secu",
          "type": "uint256"
        },
        {
          "internalType": "string",
          "name": "medicine",
          "type": "string"
        },
        {
          "internalType": "string",
          "name": "disease",
          "type": "string"
        },
        {
          "internalType": "string",
          "name": "frequency",
          "type": "string"
        }
      ],
      "name": "addPrescription",
      "outputs": [],
      "payable": false,
      "stateMutability": "nonpayable",
      "type": "function"
    },
    {
      "constant": false,
      "inputs": [
        {
          "internalType": "uint256",
          "name": "prescriptionId",
          "type": "uint256"
        }
      ],
      "name": "payPrescription",
      "outputs": [],
      "payable": true,
      "stateMutability": "payable",
      "type": "function"
    },
    {
      "constant": false,
      "inputs": [
        {
          "internalType": "uint256",
          "name": "prescriptionId",
          "type": "uint256"
        }
      ],
      "name": "claimPrescription",
      "outputs": [],
      "payable": false,
      "stateMutability": "nonpayable",
      "type": "function"
    },
    {
      "constant": true,
      "inputs": [
        {
          "internalType": "uint256",
          "name": "numSecuPatient",
          "type": "uint256"
        }
      ],
      "name": "showPrescriptionPatient",
      "outputs": [
        {
          "components": [
            {
              "internalType": "uint256",
              "name": "id",
              "type": "uint256"
            },
            {
              "internalType": "uint256",
              "name": "patientId",
              "type": "uint256"
            },
            {
              "internalType": "uint256",
              "name": "doctorId",
              "type": "uint256"
            },
            {
              "internalType": "string",
              "name": "medicine",
              "type": "string"
            },
            {
              "internalType": "string",
              "name": "disease",
              "type": "string"
            },
            {
              "internalType": "string",
              "name": "frequency",
              "type": "string"
            },
            {
              "internalType": "uint256",
              "name": "startTimestamp",
              "type": "uint256"
            },
            {
              "internalType": "uint256",
              "name": "endTimestamp",
              "type": "uint256"
            },
            {
              "internalType": "uint256",
              "name": "dueToDoctor",
              "type": "uint256"
            },
            {
              "internalType": "bool",
              "name": "claimed",
              "type": "bool"
            },
            {
              "internalType": "bool",
              "name": "paid",
              "type": "bool"
            }
          ],
          "internalType": "struct Prescurity.Prescription[]",
          "name": "",
          "type": "tuple[]"
        }
      ],
      "payable": false,
      "stateMutability": "view",
      "type": "function"
    },
    {
      "constant": true,
      "inputs": [
        {
          "internalType": "uint256",
          "name": "amountOfPrescriptions",
          "type": "uint256"
        }
      ],
      "name": "getLastDoctorPrescriptions",
      "outputs": [
        {
          "components": [
            {
              "internalType": "uint256",
              "name": "id",
              "type": "uint256"
            },
            {
              "internalType": "uint256",
              "name": "patientId",
              "type": "uint256"
            },
            {
              "internalType": "uint256",
              "name": "doctorId",
              "type": "uint256"
            },
            {
              "internalType": "string",
              "name": "medicine",
              "type": "string"
            },
            {
              "internalType": "string",
              "name": "disease",
              "type": "string"
            },
            {
              "internalType": "string",
              "name": "frequency",
              "type": "string"
            },
            {
              "internalType": "uint256",
              "name": "startTimestamp",
              "type": "uint256"
            },
            {
              "internalType": "uint256",
              "name": "endTimestamp",
              "type": "uint256"
            },
            {
              "internalType": "uint256",
              "name": "dueToDoctor",
              "type": "uint256"
            },
            {
              "internalType": "bool",
              "name": "claimed",
              "type": "bool"
            },
            {
              "internalType": "bool",
              "name": "paid",
              "type": "bool"
            }
          ],
          "internalType": "struct Prescurity.Prescription[]",
          "name": "",
          "type": "tuple[]"
        }
      ],
      "payable": false,
      "stateMutability": "view",
      "type": "function"
    },
    {
      "constant": true,
      "inputs": [
        {
          "internalType": "uint256",
          "name": "idprescription",
          "type": "uint256"
        }
      ],
      "name": "getPrescription",
      "outputs": [
        {
          "components": [
            {
              "internalType": "uint256",
              "name": "id",
              "type": "uint256"
            },
            {
              "internalType": "uint256",
              "name": "patientId",
              "type": "uint256"
            },
            {
              "internalType": "uint256",
              "name": "doctorId",
              "type": "uint256"
            },
            {
              "internalType": "string",
              "name": "medicine",
              "type": "string"
            },
            {
              "internalType": "string",
              "name": "disease",
              "type": "string"
            },
            {
              "internalType": "string",
              "name": "frequency",
              "type": "string"
            },
            {
              "internalType": "uint256",
              "name": "startTimestamp",
              "type": "uint256"
            },
            {
              "internalType": "uint256",
              "name": "endTimestamp",
              "type": "uint256"
            },
            {
              "internalType": "uint256",
              "name": "dueToDoctor",
              "type": "uint256"
            },
            {
              "internalType": "bool",
              "name": "claimed",
              "type": "bool"
            },
            {
              "internalType": "bool",
              "name": "paid",
              "type": "bool"
            }
          ],
          "internalType": "struct Prescurity.Prescription",
          "name": "",
          "type": "tuple"
        }
      ],
      "payable": false,
      "stateMutability": "view",
      "type": "function"
    },
    {
      "constant": true,
      "inputs": [
        {
          "internalType": "uint256",
          "name": "iddoctor",
          "type": "uint256"
        }
      ],
      "name": "getDoctor",
      "outputs": [
        {
          "components": [
            {
              "internalType": "uint256",
              "name": "id",
              "type": "uint256"
            },
            {
              "internalType": "string",
              "name": "speciality",
              "type": "string"
            },
            {
              "internalType": "string",
              "name": "name",
              "type": "string"
            },
            {
              "internalType": "address payable",
              "name": "doctorAddress",
              "type": "address"
            },
            {
              "internalType": "uint256[]",
              "name": "prescriptionsIds",
              "type": "uint256[]"
            },
            {
              "internalType": "bool",
              "name": "isValue",
              "type": "bool"
            }
          ],
          "internalType": "struct Prescurity.Doctor",
          "name": "",
          "type": "tuple"
        }
      ],
      "payable": false,
      "stateMutability": "view",
      "type": "function"
    },
    {
      "constant": true,
      "inputs": [
        {
          "internalType": "uint256",
          "name": "numPatient",
          "type": "uint256"
        }
      ],
      "name": "getPatient",
      "outputs": [
        {
          "components": [
            {
              "internalType": "uint256",
              "name": "numero_secu",
              "type": "uint256"
            },
            {
              "internalType": "address",
              "name": "patientAddress",
              "type": "address"
            },
            {
              "internalType": "uint256[]",
              "name": "prescriptionsIds",
              "type": "uint256[]"
            },
            {
              "internalType": "bool",
              "name": "isValue",
              "type": "bool"
            }
          ],
          "internalType": "struct Prescurity.Patient",
          "name": "",
          "type": "tuple"
        }
      ],
      "payable": false,
      "stateMutability": "view",
      "type": "function"
    },
    {
      "constant": true,
      "inputs": [
        {
          "internalType": "address",
          "name": "patientaddress",
          "type": "address"
        }
      ],
      "name": "getPatientAddress",
      "outputs": [
        {
          "components": [
            {
              "internalType": "uint256",
              "name": "numero_secu",
              "type": "uint256"
            },
            {
              "internalType": "address",
              "name": "patientAddress",
              "type": "address"
            },
            {
              "internalType": "uint256[]",
              "name": "prescriptionsIds",
              "type": "uint256[]"
            },
            {
              "internalType": "bool",
              "name": "isValue",
              "type": "bool"
            }
          ],
          "internalType": "struct Prescurity.Patient",
          "name": "",
          "type": "tuple"
        }
      ],
      "payable": false,
      "stateMutability": "view",
      "type": "function"
    }
  ],
  "bytecode": "0x60806040523480156200001157600080fd5b5062000023336200005f60201b60201c565b6200003560016200012360201b60201c565b6200004760016200012d60201b60201c565b6200005960016200013760201b60201c565b62000141565b60008060009054906101000a900473ffffffffffffffffffffffffffffffffffffffff169050816000806101000a81548173ffffffffffffffffffffffffffffffffffffffff021916908373ffffffffffffffffffffffffffffffffffffffff1602179055508173ffffffffffffffffffffffffffffffffffffffff168173ffffffffffffffffffffffffffffffffffffffff167f98581b7da302c99fda82be041a3e5b468220ad63d7ed673d0b2b1de92dfa4a9660405160405180910390a35050565b8060018190555050565b8060028190555050565b8060038190555050565b613f3180620001516000396000f3fe6080604052600436106100dd5760003560e01c80637d3a67961161007f578063b513415e11610059578063b513415e146102d0578063bcbb49351461030d578063df0acd4014610336578063f934c88d14610352576100dd565b80637d3a67961461023f578063893d20e81461027c5780639db683c8146102a7576100dd565b806341990077116100bb578063419900771461015d578063681fcac31461018857806369b0a72d146101c55780636f16af1014610202576100dd565b80630709e284146100e257806334b789981461010b5780633abeaa4714610134575b600080fd5b3480156100ee57600080fd5b5061010960048036036101049190810190612a4a565b61038f565b005b34801561011757600080fd5b50610132600480360361012d9190810190612969565b610559565b005b34801561014057600080fd5b5061015b600480360361015691908101906129f2565b6108c6565b005b34801561016957600080fd5b50610172610c0b565b60405161017f9190613977565b60405180910390f35b34801561019457600080fd5b506101af60048036036101aa9190810190612940565b610eb8565b6040516101bc9190613b1b565b60405180910390f35b3480156101d157600080fd5b506101ec60048036036101e79190810190612a4a565b610fea565b6040516101f99190613af9565b60405180910390f35b34801561020e57600080fd5b5061022960048036036102249190810190612a4a565b611234565b6040516102369190613b3d565b60405180910390f35b34801561024b57600080fd5b5061026660048036036102619190810190612a4a565b611565565b6040516102739190613b1b565b60405180910390f35b34801561028857600080fd5b5061029161166b565b60405161029e919061393a565b60405180910390f35b3480156102b357600080fd5b506102ce60048036036102c99190810190612a73565b611694565b005b3480156102dc57600080fd5b506102f760048036036102f29190810190612a4a565b611843565b6040516103049190613955565b60405180910390f35b34801561031957600080fd5b50610334600480360361032f9190810190612aaf565b611cd5565b005b610350600480360361034b9190810190612a4a565b612035565b005b34801561035e57600080fd5b5061037960048036036103749190810190612a4a565b6122ed565b6040516103869190613955565b60405180910390f35b60038081111561039b57fe5b600c60003373ffffffffffffffffffffffffffffffffffffffff1673ffffffffffffffffffffffffffffffffffffffff16815260200190815260200160002060009054906101000a900460ff1660038111156103f357fe5b141561051b5760001515600d600083815260200190815260200160002060090160009054906101000a900460ff16151514610463576040517f08c379a000000000000000000000000000000000000000000000000000000000815260040161045a90613999565b60405180910390fd5b6000600d600083815260200190815260200160002090506000600460008360010154815260200190815260200160002090506001600d600085815260200190815260200160002060090160006101000a81548160ff0219169083151502179055503373ffffffffffffffffffffffffffffffffffffffff167fd57bcd110700c211647ef97f8252b0f2f6add603da28b029a0c53a000b1ea8ee838360405161050c929190613b5f565b60405180910390a25050610556565b6040517f08c379a000000000000000000000000000000000000000000000000000000000815260040161054d90613a99565b60405180910390fd5b50565b3373ffffffffffffffffffffffffffffffffffffffff1661057861166b565b73ffffffffffffffffffffffffffffffffffffffff16141561088457600260038111156105a157fe5b600960008773ffffffffffffffffffffffffffffffffffffffff1673ffffffffffffffffffffffffffffffffffffffff16815260200190815260200160002060009054906101000a900460ff1660038111156105f957fe5b141561063a576040517f08c379a000000000000000000000000000000000000000000000000000000000815260040161063190613a59565b60405180910390fd5b60038081111561064657fe5b600c60008773ffffffffffffffffffffffffffffffffffffffff1673ffffffffffffffffffffffffffffffffffffffff16815260200190815260200160002060009054906101000a900460ff16600381111561069e57fe5b14156106df576040517f08c379a00000000000000000000000000000000000000000000000000000000081526004016106d690613a59565b60405180910390fd5b60006106e9612698565b9050806007600083815260200190815260200160002060000181905550828260076000848152602001908152602001600020600101919061072b9291906126c8565b5084846007600084815260200190815260200160002060020191906107519291906126c8565b50856007600083815260200190815260200160002060030160006101000a81548173ffffffffffffffffffffffffffffffffffffffff021916908373ffffffffffffffffffffffffffffffffffffffff16021790555060016007600083815260200190815260200160002060050160006101000a81548160ff02191690831515021790555080600860008873ffffffffffffffffffffffffffffffffffffffff1673ffffffffffffffffffffffffffffffffffffffff168152602001908152602001600020600001819055506002600960008873ffffffffffffffffffffffffffffffffffffffff1673ffffffffffffffffffffffffffffffffffffffff16815260200190815260200160002060006101000a81548160ff0219169083600381111561087957fe5b0217905550506108bf565b6040517f08c379a00000000000000000000000000000000000000000000000000000000081526004016108b690613a19565b60405180910390fd5b5050505050565b3373ffffffffffffffffffffffffffffffffffffffff166108e561166b565b73ffffffffffffffffffffffffffffffffffffffff161415610bcb5760038081111561090d57fe5b600c60008573ffffffffffffffffffffffffffffffffffffffff1673ffffffffffffffffffffffffffffffffffffffff16815260200190815260200160002060009054906101000a900460ff16600381111561096557fe5b14156109a6576040517f08c379a000000000000000000000000000000000000000000000000000000000815260040161099d90613a59565b60405180910390fd5b600260038111156109b357fe5b600960008573ffffffffffffffffffffffffffffffffffffffff1673ffffffffffffffffffffffffffffffffffffffff16815260200190815260200160002060009054906101000a900460ff166003811115610a0b57fe5b1415610a4c576040517f08c379a0000000000000000000000000000000000000000000000000000000008152600401610a4390613a59565b60405180910390fd5b6000610a56612698565b905080600a6000838152602001908152602001600020600001819055508282600a60008481526020019081526020016000206001019190610a989291906126c8565b5083600a600083815260200190815260200160002060020160006101000a81548173ffffffffffffffffffffffffffffffffffffffff021916908373ffffffffffffffffffffffffffffffffffffffff1602179055506001600a600083815260200190815260200160002060020160146101000a81548160ff02191690831515021790555080600b60008673ffffffffffffffffffffffffffffffffffffffff1673ffffffffffffffffffffffffffffffffffffffff168152602001908152602001600020600001819055506003600c60008673ffffffffffffffffffffffffffffffffffffffff1673ffffffffffffffffffffffffffffffffffffffff16815260200190815260200160002060006101000a81548160ff02191690836003811115610bc057fe5b021790555050610c06565b6040517f08c379a0000000000000000000000000000000000000000000000000000000008152600401610bfd90613a19565b60405180910390fd5b505050565b606060026003811115610c1a57fe5b600960003373ffffffffffffffffffffffffffffffffffffffff1673ffffffffffffffffffffffffffffffffffffffff16815260200190815260200160002060009054906101000a900460ff166003811115610c7257fe5b1415610cb5576040518060400160405280600681526020017f646f63746f7200000000000000000000000000000000000000000000000000008152509050610eb5565b600380811115610cc157fe5b600c60003373ffffffffffffffffffffffffffffffffffffffff1673ffffffffffffffffffffffffffffffffffffffff16815260200190815260200160002060009054906101000a900460ff166003811115610d1957fe5b1415610d5c576040518060400160405280600881526020017f706861726d6163790000000000000000000000000000000000000000000000008152509050610eb5565b60016003811115610d6957fe5b600660003373ffffffffffffffffffffffffffffffffffffffff1673ffffffffffffffffffffffffffffffffffffffff16815260200190815260200160002060009054906101000a900460ff166003811115610dc157fe5b1415610e04576040518060400160405280600781526020017f70617469656e74000000000000000000000000000000000000000000000000008152509050610eb5565b610e0c61166b565b73ffffffffffffffffffffffffffffffffffffffff163373ffffffffffffffffffffffffffffffffffffffff161415610e7c576040518060400160405280600581526020017f6f776e65720000000000000000000000000000000000000000000000000000008152509050610eb5565b6040518060400160405280600481526020017f6e6f6e650000000000000000000000000000000000000000000000000000000081525090505b90565b610ec0612748565b6000600560008473ffffffffffffffffffffffffffffffffffffffff1673ffffffffffffffffffffffffffffffffffffffff168152602001908152602001600020905080604051806080016040529081600082015481526020016001820160009054906101000a900473ffffffffffffffffffffffffffffffffffffffff1673ffffffffffffffffffffffffffffffffffffffff1673ffffffffffffffffffffffffffffffffffffffff16815260200160028201805480602002602001604051908101604052809291908181526020018280548015610fbe57602002820191906000526020600020905b815481526020019060010190808311610faa575b505050505081526020016003820160009054906101000a900460ff161515151581525050915050919050565b610ff2612788565b6000600760008481526020019081526020016000209050806040518060c001604052908160008201548152602001600182018054600181600116156101000203166002900480601f0160208091040260200160405190810160405280929190818152602001828054600181600116156101000203166002900480156110b85780601f1061108d576101008083540402835291602001916110b8565b820191906000526020600020905b81548152906001019060200180831161109b57829003601f168201915b50505050508152602001600282018054600181600116156101000203166002900480601f01602080910402602001604051908101604052809291908181526020018280546001816001161561010002031660029004801561115a5780601f1061112f5761010080835404028352916020019161115a565b820191906000526020600020905b81548152906001019060200180831161113d57829003601f168201915b505050505081526020016003820160009054906101000a900473ffffffffffffffffffffffffffffffffffffffff1673ffffffffffffffffffffffffffffffffffffffff1673ffffffffffffffffffffffffffffffffffffffff1681526020016004820180548060200260200160405190810160405280929190818152602001828054801561120857602002820191906000526020600020905b8154815260200190600101908083116111f4575b505050505081526020016005820160009054906101000a900460ff161515151581525050915050919050565b61123c6127d6565b6002600381111561124957fe5b600960003373ffffffffffffffffffffffffffffffffffffffff1673ffffffffffffffffffffffffffffffffffffffff16815260200190815260200160002060009054906101000a900460ff1660038111156112a157fe5b141561152557600d600083815260200190815260200160002060405180610160016040529081600082015481526020016001820154815260200160028201548152602001600382018054600181600116156101000203166002900480601f01602080910402602001604051908101604052809291908181526020018280546001816001161561010002031660029004801561137d5780601f106113525761010080835404028352916020019161137d565b820191906000526020600020905b81548152906001019060200180831161136057829003601f168201915b50505050508152602001600482018054600181600116156101000203166002900480601f01602080910402602001604051908101604052809291908181526020018280546001816001161561010002031660029004801561141f5780601f106113f45761010080835404028352916020019161141f565b820191906000526020600020905b81548152906001019060200180831161140257829003601f168201915b50505050508152602001600582018054600181600116156101000203166002900480601f0160208091040260200160405190810160405280929190818152602001828054600181600116156101000203166002900480156114c15780601f10611496576101008083540402835291602001916114c1565b820191906000526020600020905b8154815290600101906020018083116114a457829003601f168201915b505050505081526020016006820154815260200160078201548152602001600882015481526020016009820160009054906101000a900460ff161515151581526020016009820160019054906101000a900460ff1615151515815250509050611560565b6040517f08c379a000000000000000000000000000000000000000000000000000000000815260040161155790613a79565b60405180910390fd5b919050565b61156d612748565b600060046000848152602001908152602001600020905080604051806080016040529081600082015481526020016001820160009054906101000a900473ffffffffffffffffffffffffffffffffffffffff1673ffffffffffffffffffffffffffffffffffffffff1673ffffffffffffffffffffffffffffffffffffffff1681526020016002820180548060200260200160405190810160405280929190818152602001828054801561163f57602002820191906000526020600020905b81548152602001906001019080831161162b575b505050505081526020016003820160009054906101000a900460ff161515151581525050915050919050565b60008060009054906101000a900473ffffffffffffffffffffffffffffffffffffffff16905090565b6004600083815260200190815260200160002060030160009054906101000a900460ff16156116f8576040517f08c379a00000000000000000000000000000000000000000000000000000000081526004016116ef90613a39565b60405180910390fd5b81600460008481526020019081526020016000206000018190555060016004600084815260200190815260200160002060030160006101000a81548160ff021916908315150217905550806004600084815260200190815260200160002060010160006101000a81548173ffffffffffffffffffffffffffffffffffffffff021916908373ffffffffffffffffffffffffffffffffffffffff16021790555081600560008373ffffffffffffffffffffffffffffffffffffffff1673ffffffffffffffffffffffffffffffffffffffff168152602001908152602001600020600001819055506001600660008373ffffffffffffffffffffffffffffffffffffffff1673ffffffffffffffffffffffffffffffffffffffff16815260200190815260200160002060006101000a81548160ff0219169083600381111561183a57fe5b02179055505050565b60606002600381111561185257fe5b600960003373ffffffffffffffffffffffffffffffffffffffff1673ffffffffffffffffffffffffffffffffffffffff16815260200190815260200160002060009054906101000a900460ff1660038111156118aa57fe5b1415611c95576000821180156118c05750601982105b6118ff576040517f08c379a00000000000000000000000000000000000000000000000000000000081526004016118f6906139d9565b60405180910390fd5b6000600860003373ffffffffffffffffffffffffffffffffffffffff1673ffffffffffffffffffffffffffffffffffffffff16815260200190815260200160002060000154905060006007600083815260200190815260200160002090506000849050808260040180549050101561197c57816004018054905090505b6060816040519080825280602002602001820160405280156119b857816020015b6119a5612834565b81526020019060019003908161199d5790505b50905060008090505b82811015611c88576000600d600086600401846001880303815481106119e357fe5b9060005260206000200154815260200190815260200160002090508060405180610160016040529081600082015481526020016001820154815260200160028201548152602001600382018054600181600116156101000203166002900480601f016020809104026020016040519081016040528092919081815260200182805460018160011615610100020316600290048015611ac25780601f10611a9757610100808354040283529160200191611ac2565b820191906000526020600020905b815481529060010190602001808311611aa557829003601f168201915b50505050508152602001600482018054600181600116156101000203166002900480601f016020809104026020016040519081016040528092919081815260200182805460018160011615610100020316600290048015611b645780601f10611b3957610100808354040283529160200191611b64565b820191906000526020600020905b815481529060010190602001808311611b4757829003601f168201915b50505050508152602001600582018054600181600116156101000203166002900480601f016020809104026020016040519081016040528092919081815260200182805460018160011615610100020316600290048015611c065780601f10611bdb57610100808354040283529160200191611c06565b820191906000526020600020905b815481529060010190602001808311611be957829003601f168201915b505050505081526020016006820154815260200160078201548152602001600882015481526020016009820160009054906101000a900460ff161515151581526020016009820160019054906101000a900460ff161515151581525050838381518110611c6f57fe5b60200260200101819052505080806001019150506119c1565b5080945050505050611cd0565b6040517f08c379a0000000000000000000000000000000000000000000000000000000008152600401611cc790613a79565b60405180910390fd5b919050565b60026003811115611ce257fe5b600960003373ffffffffffffffffffffffffffffffffffffffff1673ffffffffffffffffffffffffffffffffffffffff16815260200190815260200160002060009054906101000a900460ff166003811115611d3a57fe5b1415611ff0576000600860003373ffffffffffffffffffffffffffffffffffffffff1673ffffffffffffffffffffffffffffffffffffffff16815260200190815260200160002060000154905060006007600083815260200190815260200160002090506000600460008b815260200190815260200160002090506000611dbf6126b0565b9050816002018190806001815401808255809150509060018203906000526020600020016000909192909190915055508260040181908060018154018082558091505090600182039060005260206000200160009091929091909150555080600d6000838152602001908152602001600020600001819055506000600d600083815260200190815260200160002060090160006101000a81548160ff0219169083151502179055506000600d600083815260200190815260200160002060090160016101000a81548160ff0219169083151502179055508a600d6000838152602001908152602001600020600101819055508260000154600d6000838152602001908152602001600020600201819055508989600d60008481526020019081526020016000206003019190611ef59291906126c8565b508585600d60008481526020019081526020016000206005019190611f1b9291906126c8565b508787600d60008481526020019081526020016000206004019190611f419291906126c8565b508b600d60008381526020019081526020016000206008018190555042600d600083815260200190815260200160002060060181905550627a9b804201600d6000838152602001908152602001600020600701819055507fa4d50c5fdd7b30fe77465e274d38f46d4892023d34f1da500443eb1a9a6b42d6600d600083815260200190815260200160002083858f604051611fdf9493929190613b96565b60405180910390a15050505061202b565b6040517f08c379a000000000000000000000000000000000000000000000000000000000815260040161202290613a79565b60405180910390fd5b5050505050505050565b6001600381111561204257fe5b600660003373ffffffffffffffffffffffffffffffffffffffff1673ffffffffffffffffffffffffffffffffffffffff16815260200190815260200160002060009054906101000a900460ff16600381111561209a57fe5b14156122af57344710156120e3576040517f08c379a00000000000000000000000000000000000000000000000000000000081526004016120da90613ad9565b60405180910390fd5b600d600082815260200190815260200160002060090160019054906101000a900460ff1615612147576040517f08c379a000000000000000000000000000000000000000000000000000000000815260040161213e90613ab9565b60405180910390fd5b6000600d6000838152602001908152602001600020905060006007600083600201548152602001908152602001600020905060008160030160009054906101000a900473ffffffffffffffffffffffffffffffffffffffff1690508073ffffffffffffffffffffffffffffffffffffffff166108fc349081150290604051600060405180830381858888f193505050501580156121e8573d6000803e3d6000fd5b503373ffffffffffffffffffffffffffffffffffffffff168260030160009054906101000a900473ffffffffffffffffffffffffffffffffffffffff1673ffffffffffffffffffffffffffffffffffffffff167fc063efac985b8a228415ff3bb4f0766a3108513fbb464fe953d78d6543614bf3348660020154604051612270929190613bf0565b60405180910390a36001600d600086815260200190815260200160002060090160016101000a81548160ff0219169083151502179055505050506122ea565b6040517f08c379a00000000000000000000000000000000000000000000000000000000081526004016122e1906139f9565b60405180910390fd5b50565b6060655af3107a40008211801561230a575066038d7ea4c67fff82105b612349576040517f08c379a0000000000000000000000000000000000000000000000000000000008152600401612340906139b9565b60405180910390fd5b6000600460008481526020019081526020016000209050600060059050808260020180549050101561238057816002018054905090505b6060816040519080825280602002602001820160405280156123bc57816020015b6123a9612834565b8152602001906001900390816123a15790505b50905060008090505b8281101561268c576000600d600086600201846001880303815481106123e757fe5b9060005260206000200154815260200190815260200160002090508060405180610160016040529081600082015481526020016001820154815260200160028201548152602001600382018054600181600116156101000203166002900480601f0160208091040260200160405190810160405280929190818152602001828054600181600116156101000203166002900480156124c65780601f1061249b576101008083540402835291602001916124c6565b820191906000526020600020905b8154815290600101906020018083116124a957829003601f168201915b50505050508152602001600482018054600181600116156101000203166002900480601f0160208091040260200160405190810160405280929190818152602001828054600181600116156101000203166002900480156125685780601f1061253d57610100808354040283529160200191612568565b820191906000526020600020905b81548152906001019060200180831161254b57829003601f168201915b50505050508152602001600582018054600181600116156101000203166002900480601f01602080910402602001604051908101604052809291908181526020018280546001816001161561010002031660029004801561260a5780601f106125df5761010080835404028352916020019161260a565b820191906000526020600020905b8154815290600101906020018083116125ed57829003601f168201915b505050505081526020016006820154815260200160078201548152602001600882015481526020016009820160009054906101000a900460ff161515151581526020016009820160019054906101000a900460ff16151515158152505083838151811061267357fe5b60200260200101819052505080806001019150506123c5565b50809350505050919050565b60006001600081548092919060010191905055905090565b60006003600081548092919060010191905055905090565b828054600181600116156101000203166002900490600052602060002090601f016020900481019282601f1061270957803560ff1916838001178555612737565b82800160010185558215612737579182015b8281111561273657823582559160200191906001019061271b565b5b5090506127449190612892565b5090565b604051806080016040528060008152602001600073ffffffffffffffffffffffffffffffffffffffff168152602001606081526020016000151581525090565b6040518060c00160405280600081526020016060815260200160608152602001600073ffffffffffffffffffffffffffffffffffffffff168152602001606081526020016000151581525090565b6040518061016001604052806000815260200160008152602001600081526020016060815260200160608152602001606081526020016000815260200160008152602001600081526020016000151581526020016000151581525090565b6040518061016001604052806000815260200160008152602001600081526020016060815260200160608152602001606081526020016000815260200160008152602001600081526020016000151581526020016000151581525090565b6128b491905b808211156128b0576000816000905550600101612898565b5090565b90565b6000813590506128c681613ea9565b92915050565b6000813590506128db81613ec0565b92915050565b60008083601f8401126128f357600080fd5b8235905067ffffffffffffffff81111561290c57600080fd5b60208301915083600182028301111561292457600080fd5b9250929050565b60008135905061293a81613ed7565b92915050565b60006020828403121561295257600080fd5b6000612960848285016128b7565b91505092915050565b60008060008060006060868803121561298157600080fd5b600061298f888289016128cc565b955050602086013567ffffffffffffffff8111156129ac57600080fd5b6129b8888289016128e1565b9450945050604086013567ffffffffffffffff8111156129d757600080fd5b6129e3888289016128e1565b92509250509295509295909350565b600080600060408486031215612a0757600080fd5b6000612a15868287016128b7565b935050602084013567ffffffffffffffff811115612a3257600080fd5b612a3e868287016128e1565b92509250509250925092565b600060208284031215612a5c57600080fd5b6000612a6a8482850161292b565b91505092915050565b60008060408385031215612a8657600080fd5b6000612a948582860161292b565b9250506020612aa5858286016128b7565b9150509250929050565b60008060008060008060008060a0898b031215612acb57600080fd5b6000612ad98b828c0161292b565b9850506020612aea8b828c0161292b565b975050604089013567ffffffffffffffff811115612b0757600080fd5b612b138b828c016128e1565b9650965050606089013567ffffffffffffffff811115612b3257600080fd5b612b3e8b828c016128e1565b9450945050608089013567ffffffffffffffff811115612b5d57600080fd5b612b698b828c016128e1565b92509250509295985092959890939650565b6000612b87838361358b565b905092915050565b6000612b9b838361391c565b60208301905092915050565b612bb081613d6e565b82525050565b612bbf81613d5c565b82525050565b612bce81613d5c565b82525050565b6000612bdf82613c63565b612be98185613cc1565b935083602082028501612bfb85613c19565b8060005b85811015612c375784840389528151612c188582612b7b565b9450612c2383613c9a565b925060208a01995050600181019050612bff565b50829750879550505050505092915050565b6000612c5482613c6e565b612c5e8185613cd2565b9350612c6983613c29565b8060005b83811015612c9a578151612c818882612b8f565b9750612c8c83613ca7565b925050600181019050612c6d565b5085935050505092915050565b6000612cb282613c79565b612cbc8185613cd2565b9350612cc783613c39565b8060005b83811015612cff57612cdc82613e6b565b612ce68882612b8f565b9750612cf183613cb4565b925050600181019050612ccb565b5085935050505092915050565b612d1581613d80565b82525050565b6000612d2682613c8f565b612d308185613cf4565b9350612d40818560208601613db6565b612d4981613e7e565b840191505092915050565b6000612d5f82613c84565b612d698185613ce3565b9350612d79818560208601613db6565b612d8281613e7e565b840191505092915050565b600081546001811660008114612daa5760018114612dd057612e14565b607f6002830416612dbb8187613ce3565b955060ff198316865260208601935050612e14565b60028204612dde8187613ce3565b9550612de985613c4e565b60005b82811015612e0b57815481890152600182019150602081019050612dec565b80880195505050505b505092915050565b6000612e29602383613cf4565b91507f54686973207072657363697074696f6e20697320616c726561647920636c616960008301527f6d656400000000000000000000000000000000000000000000000000000000006020830152604082019050919050565b6000612e8f602583613cf4565b91507f4e756d65726f2064652073656375726974652072657175697265203135206e7560008301527f6d626572730000000000000000000000000000000000000000000000000000006020830152604082019050919050565b6000612ef5603883613cf4565b91507f506c6561736520696e70757420616e20616d6f756e74206f662070726573637260008301527f697074696f6e73206265747765656e203020616e6420323500000000000000006020830152604082019050919050565b6000612f5b602f83613cf4565b91507f536f7272792c20746869732066756e6374696f6e20697320726573657276656460008301527f20746f207468652070617469656e7400000000000000000000000000000000006020830152604082019050919050565b6000612fc1604383613cf4565b91507f536f7272792c20746869732066756e6374696f6e20697320726573657276656460008301527f20746f20746865206f776e6572206f662074686520736d61727420636f6e747260208301527f61637400000000000000000000000000000000000000000000000000000000006040830152606082019050919050565b600061304d602d83613cf4565b91507f54686973206e756d207365637520697320616c726561647920646566696e656460008301527f20617320612070617469656e74000000000000000000000000000000000000006020830152604082019050919050565b60006130b3602b83613cf4565b91507f54686973206164647265737320697320616c726561647920646566696e65642060008301527f6173206120646f63746f720000000000000000000000000000000000000000006020830152604082019050919050565b6000613119602e83613cf4565b91507f536f7272792c20746869732066756e6374696f6e20697320726573657276656460008301527f20746f2074686520646f63746f720000000000000000000000000000000000006020830152604082019050919050565b600061317f603083613cf4565b91507f536f7272792c20746869732066756e6374696f6e20697320726573657276656460008301527f20746f2074686520706861726d616379000000000000000000000000000000006020830152604082019050919050565b60006131e5601f83613cf4565b91507f507265736372697074696f6e2073686f756c64206e6f742062652070616964006000830152602082019050919050565b6000613225601583613cf4565b91507f42616c616e6365206973206e6f7420656e6f75676800000000000000000000006000830152602082019050919050565b600060c083016000830151613270600086018261391c565b50602083015184820360208601526132888282612d54565b915050604083015184820360408601526132a28282612d54565b91505060608301516132b76060860182612ba7565b50608083015184820360808601526132cf8282612c49565b91505060a08301516132e460a0860182612d0c565b508091505092915050565b600060c08301600080840154905061330681613e37565b613313600087018261391c565b5060018401858303602087015261332a8382612d8d565b9250506002840185830360408701526133438382612d8d565b9250506003840154905061335681613e03565b6133636060870182612ba7565b5060048401858303608087015261337a8382612ca7565b9250506005840154905061338d81613e1d565b61339a60a0870182612d0c565b50819250505092915050565b60006080830160008301516133be600086018261391c565b5060208301516133d16020860182612bb6565b50604083015184820360408601526133e98282612c49565b91505060608301516133fe6060860182612d0c565b508091505092915050565b600060808301600080840154905061342081613e37565b61342d600087018261391c565b506001840154905061343e81613de9565b61344b6020870182612bb6565b506002840185830360408701526134628382612ca7565b9250506003840154905061347581613e1d565b6134826060870182612d0c565b50819250505092915050565b6000610160830160008301516134a7600086018261391c565b5060208301516134ba602086018261391c565b5060408301516134cd604086018261391c565b50606083015184820360608601526134e58282612d54565b915050608083015184820360808601526134ff8282612d54565b91505060a083015184820360a08601526135198282612d54565b91505060c083015161352e60c086018261391c565b5060e083015161354160e086018261391c565b5061010083015161355661010086018261391c565b5061012083015161356b610120860182612d0c565b50610140830151613580610140860182612d0c565b508091505092915050565b6000610160830160008301516135a4600086018261391c565b5060208301516135b7602086018261391c565b5060408301516135ca604086018261391c565b50606083015184820360608601526135e28282612d54565b915050608083015184820360808601526135fc8282612d54565b91505060a083015184820360a08601526136168282612d54565b91505060c083015161362b60c086018261391c565b5060e083015161363e60e086018261391c565b5061010083015161365361010086018261391c565b50610120830151613668610120860182612d0c565b5061014083015161367d610140860182612d0c565b508091505092915050565b6000610160830160008084015490506136a081613e37565b6136ad600087018261391c565b50600184015490506136be81613e37565b6136cb602087018261391c565b50600284015490506136dc81613e37565b6136e9604087018261391c565b506003840185830360608701526137008382612d8d565b9250506004840185830360808701526137198382612d8d565b9250506005840185830360a08701526137328382612d8d565b9250506006840154905061374581613e37565b61375260c087018261391c565b506007840154905061376381613e37565b61377060e087018261391c565b506008840154905061378181613e37565b61378f61010087018261391c565b50600984015490506137a081613e1d565b6137ae610120870182612d0c565b506137b881613e51565b6137c6610140870182612d0c565b50819250505092915050565b6000610160830160008084015490506137ea81613e37565b6137f7600087018261391c565b506001840154905061380881613e37565b613815602087018261391c565b506002840154905061382681613e37565b613833604087018261391c565b5060038401858303606087015261384a8382612d8d565b9250506004840185830360808701526138638382612d8d565b9250506005840185830360a087015261387c8382612d8d565b9250506006840154905061388f81613e37565b61389c60c087018261391c565b50600784015490506138ad81613e37565b6138ba60e087018261391c565b50600884015490506138cb81613e37565b6138d961010087018261391c565b50600984015490506138ea81613e1d565b6138f8610120870182612d0c565b5061390281613e51565b613910610140870182612d0c565b50819250505092915050565b61392581613dac565b82525050565b61393481613dac565b82525050565b600060208201905061394f6000830184612bc5565b92915050565b6000602082019050818103600083015261396f8184612bd4565b905092915050565b600060208201905081810360008301526139918184612d1b565b905092915050565b600060208201905081810360008301526139b281612e1c565b9050919050565b600060208201905081810360008301526139d281612e82565b9050919050565b600060208201905081810360008301526139f281612ee8565b9050919050565b60006020820190508181036000830152613a1281612f4e565b9050919050565b60006020820190508181036000830152613a3281612fb4565b9050919050565b60006020820190508181036000830152613a5281613040565b9050919050565b60006020820190508181036000830152613a72816130a6565b9050919050565b60006020820190508181036000830152613a928161310c565b9050919050565b60006020820190508181036000830152613ab281613172565b9050919050565b60006020820190508181036000830152613ad2816131d8565b9050919050565b60006020820190508181036000830152613af281613218565b9050919050565b60006020820190508181036000830152613b138184613258565b905092915050565b60006020820190508181036000830152613b3581846133a6565b905092915050565b60006020820190508181036000830152613b57818461348e565b905092915050565b60006040820190508181036000830152613b798185613688565b90508181036020830152613b8d8184613409565b90509392505050565b60006080820190508181036000830152613bb081876137d2565b90508181036020830152613bc48186613409565b90508181036040830152613bd881856132ef565b9050613be7606083018461392b565b95945050505050565b6000604082019050613c05600083018561392b565b613c12602083018461392b565b9392505050565b6000819050602082019050919050565b6000819050602082019050919050565b60008190508160005260206000209050919050565b60008190508160005260206000209050919050565b600081519050919050565b600081519050919050565b600081549050919050565b600081519050919050565b600081519050919050565b6000602082019050919050565b6000602082019050919050565b6000600182019050919050565b600082825260208201905092915050565b600082825260208201905092915050565b600082825260208201905092915050565b600082825260208201905092915050565b600073ffffffffffffffffffffffffffffffffffffffff82169050919050565b600073ffffffffffffffffffffffffffffffffffffffff82169050919050565b600060ff82169050919050565b6000819050919050565b6000613d6782613d8c565b9050919050565b6000613d7982613d8c565b9050919050565b60008115159050919050565b600073ffffffffffffffffffffffffffffffffffffffff82169050919050565b6000819050919050565b60005b83811015613dd4578082015181840152602081019050613db9565b83811115613de3576000848401525b50505050565b6000613dfc613df783613e8f565b613d05565b9050919050565b6000613e16613e1183613e8f565b613d25565b9050919050565b6000613e30613e2b83613e8f565b613d45565b9050919050565b6000613e4a613e4583613e8f565b613d52565b9050919050565b6000613e64613e5f83613e9c565b613d45565b9050919050565b6000613e778254613e37565b9050919050565b6000601f19601f8301169050919050565b60008160001c9050919050565b60008160081c9050919050565b613eb281613d5c565b8114613ebd57600080fd5b50565b613ec981613d6e565b8114613ed457600080fd5b50565b613ee081613dac565b8114613eeb57600080fd5b5056fea365627a7a72315820b8af8de25d9fad7a30aa4ad4f6d296a4b46fbc9edfadb852f649d27301273c586c6578706572696d656e74616cf564736f6c63430005100040",
  "source": "// SPDX-License-Identifier: MIT\npragma solidity >=0.4.22 <0.9.0;\npragma experimental ABIEncoderV2;\n\n/// @title Prescription made by the doctor after a consultation\ncontract Prescurity {\n\n    /**\n     * @dev Owner should be the admin\n     * He is responsible for adding Doctors and Pharmacists\n     */\n    address private _owner;\n\n    uint private _doctorId;\n    uint private _pharmacyId;\n    uint private _prescriptionId;\n\n    struct Patient {\n        uint numero_secu;\n        address patientAddress;\n        uint[] prescriptionsIds;\n        bool isValue;\n    }\n\n    struct Doctor {\n        uint id;\n        string speciality;\n        string name;\n        address payable doctorAddress;\n        uint[] prescriptionsIds;\n        bool isValue;\n    }\n\n    struct Pharmacy {\n        uint id;\n        string name;\n        address pharmacyAddress;\n        bool isValue;\n    }\n    \n    struct Prescription {\n        uint id;\n        uint patientId;\n        uint doctorId;\n        string medicine;\n        string disease;\n        string frequency;\n        uint256 startTimestamp;\n        uint256 endTimestamp;\n        uint dueToDoctor;\n        bool claimed;\n        bool paid;\n    } \n\n    // set owner as first interactor with the contract\n    constructor() public {\n        _setOwner(msg.sender);\n        _setDoctorId(1);\n        _setPharmacyId(1);\n        _setPrescriptionId(1);\n    }\n\n    enum authentification {\n        anon,\n        patient,\n        doctor,\n        pharmacy\n    }\n\n    mapping (uint => Patient) patientNumSecuMap;\n    mapping(address => Patient) patientAddressMap;\n    mapping (address => authentification) patientAuthentification;\n    mapping (uint => Doctor) doctorIdMap;\n    mapping (address => Doctor) doctorAddressMap;\n    mapping (address => authentification) doctorAuthentification;\n    mapping (uint => Pharmacy) pharmacyIdMap;\n    mapping (address => Pharmacy) pharmacyAddressMap;\n    mapping (address => authentification) pharmacyAuthentification;\n    mapping (uint => Prescription) prescriptionIdMap;\n\n    modifier patientOnly() {\n        if (patientAuthentification[msg.sender] == authentification.patient) {\n            _;\n        } else {\n            revert(\"Sorry, this function is reserved to the patient\");\n        }\n    }\n\n    modifier doctorOnly() {\n        if (doctorAuthentification[msg.sender] == authentification.doctor) {\n            _;\n        } else {\n            revert(\"Sorry, this function is reserved to the doctor\");\n        }\n    }\n    \n    modifier pharmacyOnly(){\n        if (pharmacyAuthentification[msg.sender] == authentification.pharmacy) {\n            _;\n        } else {\n            revert(\"Sorry, this function is reserved to the pharmacy\");\n        }\n    }\n    \n    modifier ownerOnly(){\n        if (getOwner() == msg.sender) {\n            _;\n        } else {\n            revert(\"Sorry, this function is reserved to the owner of the smart contract\");\n        }\n    }\n\n    function uint2str(uint _i) internal pure returns (string memory _uintAsString) {\n        if (_i == 0) {\n            return \"0\";\n        }\n        uint j = _i;\n        uint len;\n        while (j != 0) {\n            len++;\n            j /= 10;\n        }\n        bytes memory bstr = new bytes(len);\n        uint k = len;\n        while (_i != 0) {\n            k = k-1;\n            uint8 temp = (48 + uint8(_i - _i / 10 * 10));\n            bytes1 b1 = bytes1(temp);\n            bstr[k] = b1;\n            _i /= 10;\n        }\n        return string(bstr);\n    }\n\n    function append(string memory a, string memory b) internal pure returns (string memory) {\n        return string(abi.encodePacked(a, b));\n    }\n\n    function getOwner() public view returns (address) {\n        return _owner;\n    }\n\n    function getDoctorId() internal returns (uint) {\n        return _doctorId++;\n    }\n\n    function getPrescriptionId() internal returns (uint) {\n        return _prescriptionId++;\n    }\n\n    function getUserType() view public returns (string memory) {\n        if (doctorAuthentification[msg.sender] == authentification.doctor) {\n            return \"doctor\";\n        }\n        if (pharmacyAuthentification[msg.sender] == authentification.pharmacy) {\n            return \"pharmacy\";\n        }\n        if (patientAuthentification[msg.sender] == authentification.patient) {\n            return \"patient\";\n        }\n        if(msg.sender == getOwner()){\n            return \"owner\";\n        }\n        return \"none\";\n    }\n\n    function addDoctor(address payable addr, string calldata name, string calldata speciality) external ownerOnly {\n        require(doctorAuthentification[addr] != authentification.doctor, \"This address is already defined as a doctor\");\n        require(pharmacyAuthentification[addr] != authentification.pharmacy, \"This address is already defined as a doctor\");\n        uint id = getDoctorId();\n        doctorIdMap[id].id = id;\n        doctorIdMap[id].speciality = speciality;\n        doctorIdMap[id].name = name;\n        doctorIdMap[id].doctorAddress = addr;\n        doctorIdMap[id].isValue = true;\n        doctorAddressMap[addr].id = id;\n        doctorAuthentification[addr] = authentification.doctor;\n    }\n\n    function addPharmacy(address addr, string calldata name) external ownerOnly {\n        require(pharmacyAuthentification[addr] != authentification.pharmacy, \"This address is already defined as a doctor\");\n        require(doctorAuthentification[addr] != authentification.doctor, \"This address is already defined as a doctor\");\n        uint id = getDoctorId();\n        pharmacyIdMap[id].id = id;\n        pharmacyIdMap[id].name = name;\n        pharmacyIdMap[id].pharmacyAddress = addr;\n        pharmacyIdMap[id].isValue = true;\n        pharmacyAddressMap[addr].id = id;\n        pharmacyAuthentification[addr] = authentification.pharmacy;\n    }\n\n    /**\n     * @dev problme: une personne mal-intentione pourrait lier un numro de scu ne lui appartenant pas  une addresse quelconque \n     */\n    function addPatient(uint numero_secu, address addr) external {\n        require(!patientNumSecuMap[numero_secu].isValue, \"This num secu is already defined as a patient\");\n        patientNumSecuMap[numero_secu].numero_secu = numero_secu;\n        patientNumSecuMap[numero_secu].isValue = true;\n        patientNumSecuMap[numero_secu].patientAddress = addr;\n        patientAddressMap[addr].numero_secu = numero_secu;\n        patientAuthentification[addr] = authentification.patient;\n    }\n\n    function addPrescription(uint amountAskedByDoctor, uint numero_secu, string calldata medicine, string calldata disease, string calldata frequency) external doctorOnly {\n        //require(msg.value == amountAskedByDoctor, append(\"Please match the asked value by the doctor: \",uint2str(amountAskedByDoctor)));\n        uint doctorId = doctorAddressMap[msg.sender].id;\n        // We first fetch the doctor id from the msg.sender then get the doctor object mapped by the ID. \n        Doctor storage doctor = doctorIdMap[doctorId];\n        Patient storage patient = patientNumSecuMap[numero_secu];\n        uint prescriptionId = getPrescriptionId();\n        patient.prescriptionsIds.push(prescriptionId);\n        doctor.prescriptionsIds.push(prescriptionId);\n        prescriptionIdMap[prescriptionId].id = prescriptionId;\n        prescriptionIdMap[prescriptionId].claimed = false;\n        prescriptionIdMap[prescriptionId].paid = false;\n        prescriptionIdMap[prescriptionId].patientId = numero_secu;\n        prescriptionIdMap[prescriptionId].doctorId = doctor.id;\n        prescriptionIdMap[prescriptionId].medicine = medicine;\n        prescriptionIdMap[prescriptionId].frequency = frequency;\n        prescriptionIdMap[prescriptionId].disease = disease;\n        prescriptionIdMap[prescriptionId].dueToDoctor = amountAskedByDoctor;\n        prescriptionIdMap[prescriptionId].startTimestamp = block.timestamp;\n        prescriptionIdMap[prescriptionId].endTimestamp = block.timestamp + 93 days;\n        emit Consultation(prescriptionIdMap[prescriptionId], patient, doctor, amountAskedByDoctor);\n    }\n\n    function payPrescription(uint prescriptionId) payable external patientOnly {\n        require(address(this).balance >= msg.value, \"Balance is not enough\");\n        require(!prescriptionIdMap[prescriptionId].paid, \"Prescription should not be paid\");\n        Prescription storage prescription = prescriptionIdMap[prescriptionId];\n        Doctor storage doctor = doctorIdMap[prescription.doctorId];\n        address payable doctorAddr = doctor.doctorAddress;\n        doctorAddr.transfer(msg.value);\n        emit DoctorPaid(msg.value, doctor.doctorAddress, msg.sender, prescription.doctorId);\n        prescriptionIdMap[prescriptionId].paid = true;\n    }\n\n    function claimPrescription(uint prescriptionId) external pharmacyOnly {\n        require(prescriptionIdMap[prescriptionId].claimed == false, \"This presciption is already claimed\");\n        Prescription storage prescription = prescriptionIdMap[prescriptionId];\n        Patient storage patient = patientNumSecuMap[prescription.patientId];\n        prescriptionIdMap[prescriptionId].claimed = true;\n        emit PharmaClaimed(prescription, msg.sender, patient);\n    }\n\n    function showPrescriptionPatient(uint numSecuPatient) view public returns(Prescription[] memory){\n        require(numSecuPatient > 100000000000000 && numSecuPatient < 999999999999999, \"Numero de securite require 15 numbers\");\n\n        Patient storage patient = patientNumSecuMap[numSecuPatient];\n        uint len=5;\n        \n        if(patient.prescriptionsIds.length < len){\n            len = patient.prescriptionsIds.length;\n        }\n        Prescription[] memory prescriptions = new Prescription[](len);\n        for(uint i=0; i < len; i++){\n\n            Prescription storage prescription = prescriptionIdMap[patient.prescriptionsIds[len-1-i]];\n            prescriptions[i] = prescription;\n        }\n        return prescriptions;\n    }\n\n    /**\n     * Fetch the last \"amountOfPrescriptions\" a doctor has created.\n     * @param amountOfPrescriptions the amount of prescriptions to get\n     */\n    function getLastDoctorPrescriptions(uint amountOfPrescriptions) view public doctorOnly returns(Prescription[] memory){\n        require(amountOfPrescriptions > 0 && amountOfPrescriptions < 25, \"Please input an amount of prescriptions between 0 and 25\");\n        uint doctorId = doctorAddressMap[msg.sender].id;\n        Doctor storage doctor = doctorIdMap[doctorId];\n\n        uint len = amountOfPrescriptions;\n        if(doctor.prescriptionsIds.length < len){\n            len = doctor.prescriptionsIds.length;\n        }\n        Prescription[] memory prescriptions = new Prescription[](len);\n        for(uint i=0; i < len; i++){\n\n            Prescription storage prescription = prescriptionIdMap[doctor.prescriptionsIds[len-1-i]];\n            prescriptions[i] = prescription;\n        }\n        return prescriptions;\n    }\n\n    function getPrescription(uint idprescription) view public doctorOnly returns(Prescription memory) {\n        return prescriptionIdMap[idprescription];\n    }\n\n    function _setOwner(address new_owner) private {\n        address old_owner = _owner;\n        _owner = new_owner;\n        emit DefineOwnership(old_owner, new_owner);\n    }\n\n    function getDoctor(uint iddoctor) view public returns(Doctor memory) {\n        Doctor storage doctor= doctorIdMap[iddoctor];\n        return doctor;\n    }\n\n    function getPatient(uint numPatient) view public returns(Patient memory) {\n        Patient storage patient = patientNumSecuMap[numPatient];\n        return patient;\n    }\n\n    function getPatientAddress(address patientaddress) view public returns(Patient memory) {\n        Patient storage patient = patientAddressMap[patientaddress];\n        return patient;\n    }\n\n    function _setDoctorId(uint index) private {\n        _doctorId = index;\n    }\n\n    function _setPharmacyId(uint index) private {\n        _pharmacyId = index;\n    }\n\n    function _setPrescriptionId(uint index) private {\n        _prescriptionId = index;\n    }\n    \n    event prescriptionsShow(Prescription[] prescription);\n    event PharmaClaimed(Prescription prescription,address indexed pharmaaddress,Patient patient);\n    event DefineOwnership(address indexed old_owner, address indexed new_owner);\n    event Consultation(Prescription prescription, Patient patient, Doctor doctor, uint amount);\n    event DoctorPaid(uint amount, address indexed doctorAddress, address indexed patientAddress, uint doctorId);\n    event RetrieveMedicaments(Patient patient, Pharmacy pharmacy, Prescription prescription);\n}",
  "sourcePath": "/Users/azerpas/school/6th/mastercamp/blockchain/contracts/Prescurity.sol",
  "compiler": {
    "name": "solc",
    "version": "0.5.16+commit.9c3226ce.Emscripten.clang"
  },
  "schemaVersion": "3.3.3",
  "updatedAt": "2021-07-05T16:09:35.199Z",
  "networkType": "ethereum",
  "devdoc": {
    "methods": {
      "addPatient(uint256,address)": {
        "details": "problme: une personne mal-intentione pourrait lier un numro de scu ne lui appartenant pas  une addresse quelconque "
      },
      "getLastDoctorPrescriptions(uint256)": {
        "params": {
          "amountOfPrescriptions": "the amount of prescriptions to get"
        }
      }
    },
    "title": "Prescription made by the doctor after a consultation"
  },
  "userdoc": {
    "methods": {
      "getLastDoctorPrescriptions(uint256)": {
        "notice": "Fetch the last \"amountOfPrescriptions\" a doctor has created."
      }
    }
  }
}