{
  "contractName": "Prescurity",
  "abi": [
    {
      "inputs": [],
      "payable": false,
      "stateMutability": "nonpayable",
      "type": "constructor"
    },
    {
      "anonymous": false,
      "inputs": [
        {
          "components": [
            {
              "internalType": "uint256",
              "name": "id",
              "type": "uint256"
            },
            {
              "internalType": "uint256",
              "name": "patientId",
              "type": "uint256"
            },
            {
              "internalType": "uint256",
              "name": "doctorId",
              "type": "uint256"
            },
            {
              "internalType": "string",
              "name": "medicine",
              "type": "string"
            },
            {
              "internalType": "string",
              "name": "disease",
              "type": "string"
            },
            {
              "internalType": "string",
              "name": "frequency",
              "type": "string"
            },
            {
              "internalType": "uint256",
              "name": "startTimestamp",
              "type": "uint256"
            },
            {
              "internalType": "uint256",
              "name": "endTimestamp",
              "type": "uint256"
            },
            {
              "internalType": "uint256",
              "name": "dueToDoctor",
              "type": "uint256"
            },
            {
              "internalType": "bool",
              "name": "claimed",
              "type": "bool"
            },
            {
              "internalType": "bool",
              "name": "paid",
              "type": "bool"
            }
          ],
          "indexed": false,
          "internalType": "struct Prescurity.Prescription",
          "name": "prescription",
          "type": "tuple"
        },
        {
          "components": [
            {
              "internalType": "uint256",
              "name": "numero_secu",
              "type": "uint256"
            },
            {
              "internalType": "address",
              "name": "patientAddress",
              "type": "address"
            },
            {
              "internalType": "uint256[]",
              "name": "prescriptionsIds",
              "type": "uint256[]"
            },
            {
              "internalType": "bool",
              "name": "isValue",
              "type": "bool"
            }
          ],
          "indexed": false,
          "internalType": "struct Prescurity.Patient",
          "name": "patient",
          "type": "tuple"
        },
        {
          "components": [
            {
              "internalType": "uint256",
              "name": "id",
              "type": "uint256"
            },
            {
              "internalType": "string",
              "name": "speciality",
              "type": "string"
            },
            {
              "internalType": "string",
              "name": "name",
              "type": "string"
            },
            {
              "internalType": "address payable",
              "name": "doctorAddress",
              "type": "address"
            },
            {
              "internalType": "uint256[]",
              "name": "prescriptionsIds",
              "type": "uint256[]"
            },
            {
              "internalType": "bool",
              "name": "isValue",
              "type": "bool"
            }
          ],
          "indexed": false,
          "internalType": "struct Prescurity.Doctor",
          "name": "doctor",
          "type": "tuple"
        },
        {
          "indexed": false,
          "internalType": "uint256",
          "name": "amount",
          "type": "uint256"
        }
      ],
      "name": "Consultation",
      "type": "event"
    },
    {
      "anonymous": false,
      "inputs": [
        {
          "indexed": true,
          "internalType": "address",
          "name": "old_owner",
          "type": "address"
        },
        {
          "indexed": true,
          "internalType": "address",
          "name": "new_owner",
          "type": "address"
        }
      ],
      "name": "DefineOwnership",
      "type": "event"
    },
    {
      "anonymous": false,
      "inputs": [
        {
          "indexed": false,
          "internalType": "uint256",
          "name": "amount",
          "type": "uint256"
        },
        {
          "indexed": true,
          "internalType": "address",
          "name": "doctorAddress",
          "type": "address"
        },
        {
          "indexed": true,
          "internalType": "address",
          "name": "patientAddress",
          "type": "address"
        },
        {
          "indexed": false,
          "internalType": "uint256",
          "name": "doctorId",
          "type": "uint256"
        }
      ],
      "name": "DoctorPaid",
      "type": "event"
    },
    {
      "anonymous": false,
      "inputs": [
        {
          "components": [
            {
              "internalType": "uint256",
              "name": "id",
              "type": "uint256"
            },
            {
              "internalType": "uint256",
              "name": "patientId",
              "type": "uint256"
            },
            {
              "internalType": "uint256",
              "name": "doctorId",
              "type": "uint256"
            },
            {
              "internalType": "string",
              "name": "medicine",
              "type": "string"
            },
            {
              "internalType": "string",
              "name": "disease",
              "type": "string"
            },
            {
              "internalType": "string",
              "name": "frequency",
              "type": "string"
            },
            {
              "internalType": "uint256",
              "name": "startTimestamp",
              "type": "uint256"
            },
            {
              "internalType": "uint256",
              "name": "endTimestamp",
              "type": "uint256"
            },
            {
              "internalType": "uint256",
              "name": "dueToDoctor",
              "type": "uint256"
            },
            {
              "internalType": "bool",
              "name": "claimed",
              "type": "bool"
            },
            {
              "internalType": "bool",
              "name": "paid",
              "type": "bool"
            }
          ],
          "indexed": false,
          "internalType": "struct Prescurity.Prescription",
          "name": "prescription",
          "type": "tuple"
        },
        {
          "indexed": true,
          "internalType": "address",
          "name": "pharmaaddress",
          "type": "address"
        },
        {
          "components": [
            {
              "internalType": "uint256",
              "name": "numero_secu",
              "type": "uint256"
            },
            {
              "internalType": "address",
              "name": "patientAddress",
              "type": "address"
            },
            {
              "internalType": "uint256[]",
              "name": "prescriptionsIds",
              "type": "uint256[]"
            },
            {
              "internalType": "bool",
              "name": "isValue",
              "type": "bool"
            }
          ],
          "indexed": false,
          "internalType": "struct Prescurity.Patient",
          "name": "patient",
          "type": "tuple"
        }
      ],
      "name": "PharmaClaimed",
      "type": "event"
    },
    {
      "anonymous": false,
      "inputs": [
        {
          "components": [
            {
              "internalType": "uint256",
              "name": "numero_secu",
              "type": "uint256"
            },
            {
              "internalType": "address",
              "name": "patientAddress",
              "type": "address"
            },
            {
              "internalType": "uint256[]",
              "name": "prescriptionsIds",
              "type": "uint256[]"
            },
            {
              "internalType": "bool",
              "name": "isValue",
              "type": "bool"
            }
          ],
          "indexed": false,
          "internalType": "struct Prescurity.Patient",
          "name": "patient",
          "type": "tuple"
        },
        {
          "components": [
            {
              "internalType": "uint256",
              "name": "id",
              "type": "uint256"
            },
            {
              "internalType": "string",
              "name": "name",
              "type": "string"
            },
            {
              "internalType": "address",
              "name": "pharmacyAddress",
              "type": "address"
            },
            {
              "internalType": "bool",
              "name": "isValue",
              "type": "bool"
            }
          ],
          "indexed": false,
          "internalType": "struct Prescurity.Pharmacy",
          "name": "pharmacy",
          "type": "tuple"
        },
        {
          "components": [
            {
              "internalType": "uint256",
              "name": "id",
              "type": "uint256"
            },
            {
              "internalType": "uint256",
              "name": "patientId",
              "type": "uint256"
            },
            {
              "internalType": "uint256",
              "name": "doctorId",
              "type": "uint256"
            },
            {
              "internalType": "string",
              "name": "medicine",
              "type": "string"
            },
            {
              "internalType": "string",
              "name": "disease",
              "type": "string"
            },
            {
              "internalType": "string",
              "name": "frequency",
              "type": "string"
            },
            {
              "internalType": "uint256",
              "name": "startTimestamp",
              "type": "uint256"
            },
            {
              "internalType": "uint256",
              "name": "endTimestamp",
              "type": "uint256"
            },
            {
              "internalType": "uint256",
              "name": "dueToDoctor",
              "type": "uint256"
            },
            {
              "internalType": "bool",
              "name": "claimed",
              "type": "bool"
            },
            {
              "internalType": "bool",
              "name": "paid",
              "type": "bool"
            }
          ],
          "indexed": false,
          "internalType": "struct Prescurity.Prescription",
          "name": "prescription",
          "type": "tuple"
        }
      ],
      "name": "RetrieveMedicaments",
      "type": "event"
    },
    {
      "anonymous": false,
      "inputs": [
        {
          "components": [
            {
              "internalType": "uint256",
              "name": "id",
              "type": "uint256"
            },
            {
              "internalType": "uint256",
              "name": "patientId",
              "type": "uint256"
            },
            {
              "internalType": "uint256",
              "name": "doctorId",
              "type": "uint256"
            },
            {
              "internalType": "string",
              "name": "medicine",
              "type": "string"
            },
            {
              "internalType": "string",
              "name": "disease",
              "type": "string"
            },
            {
              "internalType": "string",
              "name": "frequency",
              "type": "string"
            },
            {
              "internalType": "uint256",
              "name": "startTimestamp",
              "type": "uint256"
            },
            {
              "internalType": "uint256",
              "name": "endTimestamp",
              "type": "uint256"
            },
            {
              "internalType": "uint256",
              "name": "dueToDoctor",
              "type": "uint256"
            },
            {
              "internalType": "bool",
              "name": "claimed",
              "type": "bool"
            },
            {
              "internalType": "bool",
              "name": "paid",
              "type": "bool"
            }
          ],
          "indexed": false,
          "internalType": "struct Prescurity.Prescription[]",
          "name": "prescription",
          "type": "tuple[]"
        }
      ],
      "name": "prescriptionsShow",
      "type": "event"
    },
    {
      "constant": true,
      "inputs": [],
      "name": "getOwner",
      "outputs": [
        {
          "internalType": "address",
          "name": "",
          "type": "address"
        }
      ],
      "payable": false,
      "stateMutability": "view",
      "type": "function"
    },
    {
      "constant": true,
      "inputs": [],
      "name": "getUserType",
      "outputs": [
        {
          "internalType": "string",
          "name": "",
          "type": "string"
        }
      ],
      "payable": false,
      "stateMutability": "view",
      "type": "function"
    },
    {
      "constant": false,
      "inputs": [
        {
          "internalType": "address payable",
          "name": "addr",
          "type": "address"
        },
        {
          "internalType": "string",
          "name": "name",
          "type": "string"
        },
        {
          "internalType": "string",
          "name": "speciality",
          "type": "string"
        }
      ],
      "name": "addDoctor",
      "outputs": [],
      "payable": false,
      "stateMutability": "nonpayable",
      "type": "function"
    },
    {
      "constant": false,
      "inputs": [
        {
          "internalType": "address",
          "name": "addr",
          "type": "address"
        },
        {
          "internalType": "string",
          "name": "name",
          "type": "string"
        }
      ],
      "name": "addPharmacy",
      "outputs": [],
      "payable": false,
      "stateMutability": "nonpayable",
      "type": "function"
    },
    {
      "constant": false,
      "inputs": [
        {
          "internalType": "uint256",
          "name": "numero_secu",
          "type": "uint256"
        },
        {
          "internalType": "address",
          "name": "addr",
          "type": "address"
        }
      ],
      "name": "addPatient",
      "outputs": [],
      "payable": false,
      "stateMutability": "nonpayable",
      "type": "function"
    },
    {
      "constant": false,
      "inputs": [
        {
          "internalType": "uint256",
          "name": "amountAskedByDoctor",
          "type": "uint256"
        },
        {
          "internalType": "uint256",
          "name": "numero_secu",
          "type": "uint256"
        },
        {
          "internalType": "string",
          "name": "medicine",
          "type": "string"
        },
        {
          "internalType": "string",
          "name": "disease",
          "type": "string"
        },
        {
          "internalType": "string",
          "name": "frequency",
          "type": "string"
        }
      ],
      "name": "addPrescription",
      "outputs": [],
      "payable": false,
      "stateMutability": "nonpayable",
      "type": "function"
    },
    {
      "constant": false,
      "inputs": [
        {
          "internalType": "uint256",
          "name": "prescriptionId",
          "type": "uint256"
        }
      ],
      "name": "payPrescription",
      "outputs": [],
      "payable": true,
      "stateMutability": "payable",
      "type": "function"
    },
    {
      "constant": false,
      "inputs": [
        {
          "internalType": "uint256",
          "name": "prescriptionId",
          "type": "uint256"
        }
      ],
      "name": "claimPrescription",
      "outputs": [],
      "payable": false,
      "stateMutability": "nonpayable",
      "type": "function"
    },
    {
      "constant": true,
      "inputs": [
        {
          "internalType": "uint256",
          "name": "numSecuPatient",
          "type": "uint256"
        }
      ],
      "name": "showPrescriptionPatient",
      "outputs": [
        {
          "components": [
            {
              "internalType": "uint256",
              "name": "id",
              "type": "uint256"
            },
            {
              "internalType": "uint256",
              "name": "patientId",
              "type": "uint256"
            },
            {
              "internalType": "uint256",
              "name": "doctorId",
              "type": "uint256"
            },
            {
              "internalType": "string",
              "name": "medicine",
              "type": "string"
            },
            {
              "internalType": "string",
              "name": "disease",
              "type": "string"
            },
            {
              "internalType": "string",
              "name": "frequency",
              "type": "string"
            },
            {
              "internalType": "uint256",
              "name": "startTimestamp",
              "type": "uint256"
            },
            {
              "internalType": "uint256",
              "name": "endTimestamp",
              "type": "uint256"
            },
            {
              "internalType": "uint256",
              "name": "dueToDoctor",
              "type": "uint256"
            },
            {
              "internalType": "bool",
              "name": "claimed",
              "type": "bool"
            },
            {
              "internalType": "bool",
              "name": "paid",
              "type": "bool"
            }
          ],
          "internalType": "struct Prescurity.Prescription[]",
          "name": "",
          "type": "tuple[]"
        }
      ],
      "payable": false,
      "stateMutability": "view",
      "type": "function"
    },
    {
      "constant": true,
      "inputs": [
        {
          "internalType": "uint256",
          "name": "amountOfPrescriptions",
          "type": "uint256"
        }
      ],
      "name": "getLastDoctorPrescriptions",
      "outputs": [
        {
          "components": [
            {
              "internalType": "uint256",
              "name": "id",
              "type": "uint256"
            },
            {
              "internalType": "uint256",
              "name": "patientId",
              "type": "uint256"
            },
            {
              "internalType": "uint256",
              "name": "doctorId",
              "type": "uint256"
            },
            {
              "internalType": "string",
              "name": "medicine",
              "type": "string"
            },
            {
              "internalType": "string",
              "name": "disease",
              "type": "string"
            },
            {
              "internalType": "string",
              "name": "frequency",
              "type": "string"
            },
            {
              "internalType": "uint256",
              "name": "startTimestamp",
              "type": "uint256"
            },
            {
              "internalType": "uint256",
              "name": "endTimestamp",
              "type": "uint256"
            },
            {
              "internalType": "uint256",
              "name": "dueToDoctor",
              "type": "uint256"
            },
            {
              "internalType": "bool",
              "name": "claimed",
              "type": "bool"
            },
            {
              "internalType": "bool",
              "name": "paid",
              "type": "bool"
            }
          ],
          "internalType": "struct Prescurity.Prescription[]",
          "name": "",
          "type": "tuple[]"
        }
      ],
      "payable": false,
      "stateMutability": "view",
      "type": "function"
    },
    {
      "constant": true,
      "inputs": [
        {
          "internalType": "uint256",
          "name": "idprescription",
          "type": "uint256"
        }
      ],
      "name": "getPrescription",
      "outputs": [
        {
          "components": [
            {
              "internalType": "uint256",
              "name": "id",
              "type": "uint256"
            },
            {
              "internalType": "uint256",
              "name": "patientId",
              "type": "uint256"
            },
            {
              "internalType": "uint256",
              "name": "doctorId",
              "type": "uint256"
            },
            {
              "internalType": "string",
              "name": "medicine",
              "type": "string"
            },
            {
              "internalType": "string",
              "name": "disease",
              "type": "string"
            },
            {
              "internalType": "string",
              "name": "frequency",
              "type": "string"
            },
            {
              "internalType": "uint256",
              "name": "startTimestamp",
              "type": "uint256"
            },
            {
              "internalType": "uint256",
              "name": "endTimestamp",
              "type": "uint256"
            },
            {
              "internalType": "uint256",
              "name": "dueToDoctor",
              "type": "uint256"
            },
            {
              "internalType": "bool",
              "name": "claimed",
              "type": "bool"
            },
            {
              "internalType": "bool",
              "name": "paid",
              "type": "bool"
            }
          ],
          "internalType": "struct Prescurity.Prescription",
          "name": "",
          "type": "tuple"
        }
      ],
      "payable": false,
      "stateMutability": "view",
      "type": "function"
    },
    {
      "constant": true,
      "inputs": [
        {
          "internalType": "uint256",
          "name": "iddoctor",
          "type": "uint256"
        }
      ],
      "name": "getDoctor",
      "outputs": [
        {
          "components": [
            {
              "internalType": "uint256",
              "name": "id",
              "type": "uint256"
            },
            {
              "internalType": "string",
              "name": "speciality",
              "type": "string"
            },
            {
              "internalType": "string",
              "name": "name",
              "type": "string"
            },
            {
              "internalType": "address payable",
              "name": "doctorAddress",
              "type": "address"
            },
            {
              "internalType": "uint256[]",
              "name": "prescriptionsIds",
              "type": "uint256[]"
            },
            {
              "internalType": "bool",
              "name": "isValue",
              "type": "bool"
            }
          ],
          "internalType": "struct Prescurity.Doctor",
          "name": "",
          "type": "tuple"
        }
      ],
      "payable": false,
      "stateMutability": "view",
      "type": "function"
    },
    {
      "constant": true,
      "inputs": [
        {
          "internalType": "uint256",
          "name": "numPatient",
          "type": "uint256"
        }
      ],
      "name": "getPatient",
      "outputs": [
        {
          "components": [
            {
              "internalType": "uint256",
              "name": "numero_secu",
              "type": "uint256"
            },
            {
              "internalType": "address",
              "name": "patientAddress",
              "type": "address"
            },
            {
              "internalType": "uint256[]",
              "name": "prescriptionsIds",
              "type": "uint256[]"
            },
            {
              "internalType": "bool",
              "name": "isValue",
              "type": "bool"
            }
          ],
          "internalType": "struct Prescurity.Patient",
          "name": "",
          "type": "tuple"
        }
      ],
      "payable": false,
      "stateMutability": "view",
      "type": "function"
    },
    {
      "constant": true,
      "inputs": [
        {
          "internalType": "address",
          "name": "patientaddress",
          "type": "address"
        }
      ],
      "name": "getPatientAddress",
      "outputs": [
        {
          "components": [
            {
              "internalType": "uint256",
              "name": "numero_secu",
              "type": "uint256"
            },
            {
              "internalType": "address",
              "name": "patientAddress",
              "type": "address"
            },
            {
              "internalType": "uint256[]",
              "name": "prescriptionsIds",
              "type": "uint256[]"
            },
            {
              "internalType": "bool",
              "name": "isValue",
              "type": "bool"
            }
          ],
          "internalType": "struct Prescurity.Patient",
          "name": "",
          "type": "tuple"
        }
      ],
      "payable": false,
      "stateMutability": "view",
      "type": "function"
    }
  ],
  "bytecode": "0x60806040523480156200001157600080fd5b5062000023336200005f60201b60201c565b6200003560016200012360201b60201c565b6200004760016200012d60201b60201c565b6200005960016200013760201b60201c565b62000141565b60008060009054906101000a900473ffffffffffffffffffffffffffffffffffffffff169050816000806101000a81548173ffffffffffffffffffffffffffffffffffffffff021916908373ffffffffffffffffffffffffffffffffffffffff1602179055508173ffffffffffffffffffffffffffffffffffffffff168173ffffffffffffffffffffffffffffffffffffffff167f98581b7da302c99fda82be041a3e5b468220ad63d7ed673d0b2b1de92dfa4a9660405160405180910390a35050565b8060018190555050565b8060028190555050565b8060038190555050565b613e5b80620001516000396000f3fe6080604052600436106100dd5760003560e01c80637d3a67961161007f578063b513415e11610059578063b513415e146102d0578063bcbb49351461030d578063df0acd4014610336578063f934c88d14610352576100dd565b80637d3a67961461023f578063893d20e81461027c5780639db683c8146102a7576100dd565b806341990077116100bb578063419900771461015d578063681fcac31461018857806369b0a72d146101c55780636f16af1014610202576100dd565b80630709e284146100e257806334b789981461010b5780633abeaa4714610134575b600080fd5b3480156100ee57600080fd5b50610109600480360361010491908101906129fa565b61038f565b005b34801561011757600080fd5b50610132600480360361012d9190810190612919565b610559565b005b34801561014057600080fd5b5061015b600480360361015691908101906129a2565b6108c6565b005b34801561016957600080fd5b50610172610c0b565b60405161017f91906138c1565b60405180910390f35b34801561019457600080fd5b506101af60048036036101aa91908101906128f0565b610eb8565b6040516101bc9190613a45565b60405180910390f35b3480156101d157600080fd5b506101ec60048036036101e791908101906129fa565b610fea565b6040516101f99190613a23565b60405180910390f35b34801561020e57600080fd5b50610229600480360361022491908101906129fa565b611234565b6040516102369190613a67565b60405180910390f35b34801561024b57600080fd5b50610266600480360361026191908101906129fa565b611565565b6040516102739190613a45565b60405180910390f35b34801561028857600080fd5b5061029161166b565b60405161029e9190613884565b60405180910390f35b3480156102b357600080fd5b506102ce60048036036102c99190810190612a23565b611694565b005b3480156102dc57600080fd5b506102f760048036036102f291908101906129fa565b611843565b604051610304919061389f565b60405180910390f35b34801561031957600080fd5b50610334600480360361032f9190810190612a5f565b611c86565b005b610350600480360361034b91908101906129fa565b611fe6565b005b34801561035e57600080fd5b50610379600480360361037491908101906129fa565b61229e565b604051610386919061389f565b60405180910390f35b60038081111561039b57fe5b600c60003373ffffffffffffffffffffffffffffffffffffffff1673ffffffffffffffffffffffffffffffffffffffff16815260200190815260200160002060009054906101000a900460ff1660038111156103f357fe5b141561051b5760001515600d600083815260200190815260200160002060090160009054906101000a900460ff16151514610463576040517f08c379a000000000000000000000000000000000000000000000000000000000815260040161045a906138e3565b60405180910390fd5b6000600d600083815260200190815260200160002090506000600460008360010154815260200190815260200160002090506001600d600085815260200190815260200160002060090160006101000a81548160ff0219169083151502179055503373ffffffffffffffffffffffffffffffffffffffff167fd57bcd110700c211647ef97f8252b0f2f6add603da28b029a0c53a000b1ea8ee838360405161050c929190613a89565b60405180910390a25050610556565b6040517f08c379a000000000000000000000000000000000000000000000000000000000815260040161054d906139c3565b60405180910390fd5b50565b3373ffffffffffffffffffffffffffffffffffffffff1661057861166b565b73ffffffffffffffffffffffffffffffffffffffff16141561088457600260038111156105a157fe5b600960008773ffffffffffffffffffffffffffffffffffffffff1673ffffffffffffffffffffffffffffffffffffffff16815260200190815260200160002060009054906101000a900460ff1660038111156105f957fe5b141561063a576040517f08c379a000000000000000000000000000000000000000000000000000000000815260040161063190613983565b60405180910390fd5b60038081111561064657fe5b600c60008773ffffffffffffffffffffffffffffffffffffffff1673ffffffffffffffffffffffffffffffffffffffff16815260200190815260200160002060009054906101000a900460ff16600381111561069e57fe5b14156106df576040517f08c379a00000000000000000000000000000000000000000000000000000000081526004016106d690613983565b60405180910390fd5b60006106e9612648565b9050806007600083815260200190815260200160002060000181905550828260076000848152602001908152602001600020600101919061072b929190612678565b508484600760008481526020019081526020016000206002019190610751929190612678565b50856007600083815260200190815260200160002060030160006101000a81548173ffffffffffffffffffffffffffffffffffffffff021916908373ffffffffffffffffffffffffffffffffffffffff16021790555060016007600083815260200190815260200160002060050160006101000a81548160ff02191690831515021790555080600860008873ffffffffffffffffffffffffffffffffffffffff1673ffffffffffffffffffffffffffffffffffffffff168152602001908152602001600020600001819055506002600960008873ffffffffffffffffffffffffffffffffffffffff1673ffffffffffffffffffffffffffffffffffffffff16815260200190815260200160002060006101000a81548160ff0219169083600381111561087957fe5b0217905550506108bf565b6040517f08c379a00000000000000000000000000000000000000000000000000000000081526004016108b690613943565b60405180910390fd5b5050505050565b3373ffffffffffffffffffffffffffffffffffffffff166108e561166b565b73ffffffffffffffffffffffffffffffffffffffff161415610bcb5760038081111561090d57fe5b600c60008573ffffffffffffffffffffffffffffffffffffffff1673ffffffffffffffffffffffffffffffffffffffff16815260200190815260200160002060009054906101000a900460ff16600381111561096557fe5b14156109a6576040517f08c379a000000000000000000000000000000000000000000000000000000000815260040161099d90613983565b60405180910390fd5b600260038111156109b357fe5b600960008573ffffffffffffffffffffffffffffffffffffffff1673ffffffffffffffffffffffffffffffffffffffff16815260200190815260200160002060009054906101000a900460ff166003811115610a0b57fe5b1415610a4c576040517f08c379a0000000000000000000000000000000000000000000000000000000008152600401610a4390613983565b60405180910390fd5b6000610a56612648565b905080600a6000838152602001908152602001600020600001819055508282600a60008481526020019081526020016000206001019190610a98929190612678565b5083600a600083815260200190815260200160002060020160006101000a81548173ffffffffffffffffffffffffffffffffffffffff021916908373ffffffffffffffffffffffffffffffffffffffff1602179055506001600a600083815260200190815260200160002060020160146101000a81548160ff02191690831515021790555080600b60008673ffffffffffffffffffffffffffffffffffffffff1673ffffffffffffffffffffffffffffffffffffffff168152602001908152602001600020600001819055506003600c60008673ffffffffffffffffffffffffffffffffffffffff1673ffffffffffffffffffffffffffffffffffffffff16815260200190815260200160002060006101000a81548160ff02191690836003811115610bc057fe5b021790555050610c06565b6040517f08c379a0000000000000000000000000000000000000000000000000000000008152600401610bfd90613943565b60405180910390fd5b505050565b606060026003811115610c1a57fe5b600960003373ffffffffffffffffffffffffffffffffffffffff1673ffffffffffffffffffffffffffffffffffffffff16815260200190815260200160002060009054906101000a900460ff166003811115610c7257fe5b1415610cb5576040518060400160405280600681526020017f646f63746f7200000000000000000000000000000000000000000000000000008152509050610eb5565b600380811115610cc157fe5b600c60003373ffffffffffffffffffffffffffffffffffffffff1673ffffffffffffffffffffffffffffffffffffffff16815260200190815260200160002060009054906101000a900460ff166003811115610d1957fe5b1415610d5c576040518060400160405280600881526020017f706861726d6163790000000000000000000000000000000000000000000000008152509050610eb5565b60016003811115610d6957fe5b600660003373ffffffffffffffffffffffffffffffffffffffff1673ffffffffffffffffffffffffffffffffffffffff16815260200190815260200160002060009054906101000a900460ff166003811115610dc157fe5b1415610e04576040518060400160405280600781526020017f70617469656e74000000000000000000000000000000000000000000000000008152509050610eb5565b610e0c61166b565b73ffffffffffffffffffffffffffffffffffffffff163373ffffffffffffffffffffffffffffffffffffffff161415610e7c576040518060400160405280600581526020017f6f776e65720000000000000000000000000000000000000000000000000000008152509050610eb5565b6040518060400160405280600481526020017f6e6f6e650000000000000000000000000000000000000000000000000000000081525090505b90565b610ec06126f8565b6000600560008473ffffffffffffffffffffffffffffffffffffffff1673ffffffffffffffffffffffffffffffffffffffff168152602001908152602001600020905080604051806080016040529081600082015481526020016001820160009054906101000a900473ffffffffffffffffffffffffffffffffffffffff1673ffffffffffffffffffffffffffffffffffffffff1673ffffffffffffffffffffffffffffffffffffffff16815260200160028201805480602002602001604051908101604052809291908181526020018280548015610fbe57602002820191906000526020600020905b815481526020019060010190808311610faa575b505050505081526020016003820160009054906101000a900460ff161515151581525050915050919050565b610ff2612738565b6000600760008481526020019081526020016000209050806040518060c001604052908160008201548152602001600182018054600181600116156101000203166002900480601f0160208091040260200160405190810160405280929190818152602001828054600181600116156101000203166002900480156110b85780601f1061108d576101008083540402835291602001916110b8565b820191906000526020600020905b81548152906001019060200180831161109b57829003601f168201915b50505050508152602001600282018054600181600116156101000203166002900480601f01602080910402602001604051908101604052809291908181526020018280546001816001161561010002031660029004801561115a5780601f1061112f5761010080835404028352916020019161115a565b820191906000526020600020905b81548152906001019060200180831161113d57829003601f168201915b505050505081526020016003820160009054906101000a900473ffffffffffffffffffffffffffffffffffffffff1673ffffffffffffffffffffffffffffffffffffffff1673ffffffffffffffffffffffffffffffffffffffff1681526020016004820180548060200260200160405190810160405280929190818152602001828054801561120857602002820191906000526020600020905b8154815260200190600101908083116111f4575b505050505081526020016005820160009054906101000a900460ff161515151581525050915050919050565b61123c612786565b6002600381111561124957fe5b600960003373ffffffffffffffffffffffffffffffffffffffff1673ffffffffffffffffffffffffffffffffffffffff16815260200190815260200160002060009054906101000a900460ff1660038111156112a157fe5b141561152557600d600083815260200190815260200160002060405180610160016040529081600082015481526020016001820154815260200160028201548152602001600382018054600181600116156101000203166002900480601f01602080910402602001604051908101604052809291908181526020018280546001816001161561010002031660029004801561137d5780601f106113525761010080835404028352916020019161137d565b820191906000526020600020905b81548152906001019060200180831161136057829003601f168201915b50505050508152602001600482018054600181600116156101000203166002900480601f01602080910402602001604051908101604052809291908181526020018280546001816001161561010002031660029004801561141f5780601f106113f45761010080835404028352916020019161141f565b820191906000526020600020905b81548152906001019060200180831161140257829003601f168201915b50505050508152602001600582018054600181600116156101000203166002900480601f0160208091040260200160405190810160405280929190818152602001828054600181600116156101000203166002900480156114c15780601f10611496576101008083540402835291602001916114c1565b820191906000526020600020905b8154815290600101906020018083116114a457829003601f168201915b505050505081526020016006820154815260200160078201548152602001600882015481526020016009820160009054906101000a900460ff161515151581526020016009820160019054906101000a900460ff1615151515815250509050611560565b6040517f08c379a0000000000000000000000000000000000000000000000000000000008152600401611557906139a3565b60405180910390fd5b919050565b61156d6126f8565b600060046000848152602001908152602001600020905080604051806080016040529081600082015481526020016001820160009054906101000a900473ffffffffffffffffffffffffffffffffffffffff1673ffffffffffffffffffffffffffffffffffffffff1673ffffffffffffffffffffffffffffffffffffffff1681526020016002820180548060200260200160405190810160405280929190818152602001828054801561163f57602002820191906000526020600020905b81548152602001906001019080831161162b575b505050505081526020016003820160009054906101000a900460ff161515151581525050915050919050565b60008060009054906101000a900473ffffffffffffffffffffffffffffffffffffffff16905090565b6004600083815260200190815260200160002060030160009054906101000a900460ff16156116f8576040517f08c379a00000000000000000000000000000000000000000000000000000000081526004016116ef90613963565b60405180910390fd5b81600460008481526020019081526020016000206000018190555060016004600084815260200190815260200160002060030160006101000a81548160ff021916908315150217905550806004600084815260200190815260200160002060010160006101000a81548173ffffffffffffffffffffffffffffffffffffffff021916908373ffffffffffffffffffffffffffffffffffffffff16021790555081600560008373ffffffffffffffffffffffffffffffffffffffff1673ffffffffffffffffffffffffffffffffffffffff168152602001908152602001600020600001819055506001600660008373ffffffffffffffffffffffffffffffffffffffff1673ffffffffffffffffffffffffffffffffffffffff16815260200190815260200160002060006101000a81548160ff0219169083600381111561183a57fe5b02179055505050565b60606002600381111561185257fe5b600960003373ffffffffffffffffffffffffffffffffffffffff1673ffffffffffffffffffffffffffffffffffffffff16815260200190815260200160002060009054906101000a900460ff1660038111156118aa57fe5b1415611c46576000600860003373ffffffffffffffffffffffffffffffffffffffff1673ffffffffffffffffffffffffffffffffffffffff16815260200190815260200160002060000154905060006007600083815260200190815260200160002090506000849050808260040180549050101561192d57816004018054905090505b60608160405190808252806020026020018201604052801561196957816020015b6119566127e4565b81526020019060019003908161194e5790505b50905060008090505b82811015611c39576000600d6000866004018460018803038154811061199457fe5b9060005260206000200154815260200190815260200160002090508060405180610160016040529081600082015481526020016001820154815260200160028201548152602001600382018054600181600116156101000203166002900480601f016020809104026020016040519081016040528092919081815260200182805460018160011615610100020316600290048015611a735780601f10611a4857610100808354040283529160200191611a73565b820191906000526020600020905b815481529060010190602001808311611a5657829003601f168201915b50505050508152602001600482018054600181600116156101000203166002900480601f016020809104026020016040519081016040528092919081815260200182805460018160011615610100020316600290048015611b155780601f10611aea57610100808354040283529160200191611b15565b820191906000526020600020905b815481529060010190602001808311611af857829003601f168201915b50505050508152602001600582018054600181600116156101000203166002900480601f016020809104026020016040519081016040528092919081815260200182805460018160011615610100020316600290048015611bb75780601f10611b8c57610100808354040283529160200191611bb7565b820191906000526020600020905b815481529060010190602001808311611b9a57829003601f168201915b505050505081526020016006820154815260200160078201548152602001600882015481526020016009820160009054906101000a900460ff161515151581526020016009820160019054906101000a900460ff161515151581525050838381518110611c2057fe5b6020026020010181905250508080600101915050611972565b5080945050505050611c81565b6040517f08c379a0000000000000000000000000000000000000000000000000000000008152600401611c78906139a3565b60405180910390fd5b919050565b60026003811115611c9357fe5b600960003373ffffffffffffffffffffffffffffffffffffffff1673ffffffffffffffffffffffffffffffffffffffff16815260200190815260200160002060009054906101000a900460ff166003811115611ceb57fe5b1415611fa1576000600860003373ffffffffffffffffffffffffffffffffffffffff1673ffffffffffffffffffffffffffffffffffffffff16815260200190815260200160002060000154905060006007600083815260200190815260200160002090506000600460008b815260200190815260200160002090506000611d70612660565b9050816002018190806001815401808255809150509060018203906000526020600020016000909192909190915055508260040181908060018154018082558091505090600182039060005260206000200160009091929091909150555080600d6000838152602001908152602001600020600001819055506000600d600083815260200190815260200160002060090160006101000a81548160ff0219169083151502179055506000600d600083815260200190815260200160002060090160016101000a81548160ff0219169083151502179055508a600d6000838152602001908152602001600020600101819055508260000154600d6000838152602001908152602001600020600201819055508989600d60008481526020019081526020016000206003019190611ea6929190612678565b508585600d60008481526020019081526020016000206005019190611ecc929190612678565b508787600d60008481526020019081526020016000206004019190611ef2929190612678565b508b600d60008381526020019081526020016000206008018190555042600d600083815260200190815260200160002060060181905550627a9b804201600d6000838152602001908152602001600020600701819055507fa4d50c5fdd7b30fe77465e274d38f46d4892023d34f1da500443eb1a9a6b42d6600d600083815260200190815260200160002083858f604051611f909493929190613ac0565b60405180910390a150505050611fdc565b6040517f08c379a0000000000000000000000000000000000000000000000000000000008152600401611fd3906139a3565b60405180910390fd5b5050505050505050565b60016003811115611ff357fe5b600660003373ffffffffffffffffffffffffffffffffffffffff1673ffffffffffffffffffffffffffffffffffffffff16815260200190815260200160002060009054906101000a900460ff16600381111561204b57fe5b14156122605734471015612094576040517f08c379a000000000000000000000000000000000000000000000000000000000815260040161208b90613a03565b60405180910390fd5b600d600082815260200190815260200160002060090160019054906101000a900460ff16156120f8576040517f08c379a00000000000000000000000000000000000000000000000000000000081526004016120ef906139e3565b60405180910390fd5b6000600d6000838152602001908152602001600020905060006007600083600201548152602001908152602001600020905060008160030160009054906101000a900473ffffffffffffffffffffffffffffffffffffffff1690508073ffffffffffffffffffffffffffffffffffffffff166108fc349081150290604051600060405180830381858888f19350505050158015612199573d6000803e3d6000fd5b503373ffffffffffffffffffffffffffffffffffffffff168260030160009054906101000a900473ffffffffffffffffffffffffffffffffffffffff1673ffffffffffffffffffffffffffffffffffffffff167fc063efac985b8a228415ff3bb4f0766a3108513fbb464fe953d78d6543614bf3348660020154604051612221929190613b1a565b60405180910390a36001600d600086815260200190815260200160002060090160016101000a81548160ff02191690831515021790555050505061229b565b6040517f08c379a000000000000000000000000000000000000000000000000000000000815260040161229290613923565b60405180910390fd5b50565b6060655af3107a40008210806122ba575066038d7ea4c67fff82115b6122f9576040517f08c379a00000000000000000000000000000000000000000000000000000000081526004016122f090613903565b60405180910390fd5b6000600460008481526020019081526020016000209050600060059050808260020180549050101561233057816002018054905090505b60608160405190808252806020026020018201604052801561236c57816020015b6123596127e4565b8152602001906001900390816123515790505b50905060008090505b8281101561263c576000600d6000866002018460018803038154811061239757fe5b9060005260206000200154815260200190815260200160002090508060405180610160016040529081600082015481526020016001820154815260200160028201548152602001600382018054600181600116156101000203166002900480601f0160208091040260200160405190810160405280929190818152602001828054600181600116156101000203166002900480156124765780601f1061244b57610100808354040283529160200191612476565b820191906000526020600020905b81548152906001019060200180831161245957829003601f168201915b50505050508152602001600482018054600181600116156101000203166002900480601f0160208091040260200160405190810160405280929190818152602001828054600181600116156101000203166002900480156125185780601f106124ed57610100808354040283529160200191612518565b820191906000526020600020905b8154815290600101906020018083116124fb57829003601f168201915b50505050508152602001600582018054600181600116156101000203166002900480601f0160208091040260200160405190810160405280929190818152602001828054600181600116156101000203166002900480156125ba5780601f1061258f576101008083540402835291602001916125ba565b820191906000526020600020905b81548152906001019060200180831161259d57829003601f168201915b505050505081526020016006820154815260200160078201548152602001600882015481526020016009820160009054906101000a900460ff161515151581526020016009820160019054906101000a900460ff16151515158152505083838151811061262357fe5b6020026020010181905250508080600101915050612375565b50809350505050919050565b60006001600081548092919060010191905055905090565b60006003600081548092919060010191905055905090565b828054600181600116156101000203166002900490600052602060002090601f016020900481019282601f106126b957803560ff19168380011785556126e7565b828001600101855582156126e7579182015b828111156126e65782358255916020019190600101906126cb565b5b5090506126f49190612842565b5090565b604051806080016040528060008152602001600073ffffffffffffffffffffffffffffffffffffffff168152602001606081526020016000151581525090565b6040518060c00160405280600081526020016060815260200160608152602001600073ffffffffffffffffffffffffffffffffffffffff168152602001606081526020016000151581525090565b6040518061016001604052806000815260200160008152602001600081526020016060815260200160608152602001606081526020016000815260200160008152602001600081526020016000151581526020016000151581525090565b6040518061016001604052806000815260200160008152602001600081526020016060815260200160608152602001606081526020016000815260200160008152602001600081526020016000151581526020016000151581525090565b61286491905b80821115612860576000816000905550600101612848565b5090565b90565b60008135905061287681613dd3565b92915050565b60008135905061288b81613dea565b92915050565b60008083601f8401126128a357600080fd5b8235905067ffffffffffffffff8111156128bc57600080fd5b6020830191508360018202830111156128d457600080fd5b9250929050565b6000813590506128ea81613e01565b92915050565b60006020828403121561290257600080fd5b600061291084828501612867565b91505092915050565b60008060008060006060868803121561293157600080fd5b600061293f8882890161287c565b955050602086013567ffffffffffffffff81111561295c57600080fd5b61296888828901612891565b9450945050604086013567ffffffffffffffff81111561298757600080fd5b61299388828901612891565b92509250509295509295909350565b6000806000604084860312156129b757600080fd5b60006129c586828701612867565b935050602084013567ffffffffffffffff8111156129e257600080fd5b6129ee86828701612891565b92509250509250925092565b600060208284031215612a0c57600080fd5b6000612a1a848285016128db565b91505092915050565b60008060408385031215612a3657600080fd5b6000612a44858286016128db565b9250506020612a5585828601612867565b9150509250929050565b60008060008060008060008060a0898b031215612a7b57600080fd5b6000612a898b828c016128db565b9850506020612a9a8b828c016128db565b975050604089013567ffffffffffffffff811115612ab757600080fd5b612ac38b828c01612891565b9650965050606089013567ffffffffffffffff811115612ae257600080fd5b612aee8b828c01612891565b9450945050608089013567ffffffffffffffff811115612b0d57600080fd5b612b198b828c01612891565b92509250509295985092959890939650565b6000612b3783836134d5565b905092915050565b6000612b4b8383613866565b60208301905092915050565b612b6081613c98565b82525050565b612b6f81613c86565b82525050565b612b7e81613c86565b82525050565b6000612b8f82613b8d565b612b998185613beb565b935083602082028501612bab85613b43565b8060005b85811015612be75784840389528151612bc88582612b2b565b9450612bd383613bc4565b925060208a01995050600181019050612baf565b50829750879550505050505092915050565b6000612c0482613b98565b612c0e8185613bfc565b9350612c1983613b53565b8060005b83811015612c4a578151612c318882612b3f565b9750612c3c83613bd1565b925050600181019050612c1d565b5085935050505092915050565b6000612c6282613ba3565b612c6c8185613bfc565b9350612c7783613b63565b8060005b83811015612caf57612c8c82613d95565b612c968882612b3f565b9750612ca183613bde565b925050600181019050612c7b565b5085935050505092915050565b612cc581613caa565b82525050565b6000612cd682613bb9565b612ce08185613c1e565b9350612cf0818560208601613ce0565b612cf981613da8565b840191505092915050565b6000612d0f82613bae565b612d198185613c0d565b9350612d29818560208601613ce0565b612d3281613da8565b840191505092915050565b600081546001811660008114612d5a5760018114612d8057612dc4565b607f6002830416612d6b8187613c0d565b955060ff198316865260208601935050612dc4565b60028204612d8e8187613c0d565b9550612d9985613b78565b60005b82811015612dbb57815481890152600182019150602081019050612d9c565b80880195505050505b505092915050565b6000612dd9602383613c1e565b91507f54686973207072657363697074696f6e20697320616c726561647920636c616960008301527f6d656400000000000000000000000000000000000000000000000000000000006020830152604082019050919050565b6000612e3f602583613c1e565b91507f4e756d65726f2064652073656375726974652072657175697265203135206e7560008301527f6d626572730000000000000000000000000000000000000000000000000000006020830152604082019050919050565b6000612ea5602f83613c1e565b91507f536f7272792c20746869732066756e6374696f6e20697320726573657276656460008301527f20746f207468652070617469656e7400000000000000000000000000000000006020830152604082019050919050565b6000612f0b604383613c1e565b91507f536f7272792c20746869732066756e6374696f6e20697320726573657276656460008301527f20746f20746865206f776e6572206f662074686520736d61727420636f6e747260208301527f61637400000000000000000000000000000000000000000000000000000000006040830152606082019050919050565b6000612f97602d83613c1e565b91507f54686973206e756d207365637520697320616c726561647920646566696e656460008301527f20617320612070617469656e74000000000000000000000000000000000000006020830152604082019050919050565b6000612ffd602b83613c1e565b91507f54686973206164647265737320697320616c726561647920646566696e65642060008301527f6173206120646f63746f720000000000000000000000000000000000000000006020830152604082019050919050565b6000613063602e83613c1e565b91507f536f7272792c20746869732066756e6374696f6e20697320726573657276656460008301527f20746f2074686520646f63746f720000000000000000000000000000000000006020830152604082019050919050565b60006130c9603083613c1e565b91507f536f7272792c20746869732066756e6374696f6e20697320726573657276656460008301527f20746f2074686520706861726d616379000000000000000000000000000000006020830152604082019050919050565b600061312f601f83613c1e565b91507f507265736372697074696f6e2073686f756c64206e6f742062652070616964006000830152602082019050919050565b600061316f601583613c1e565b91507f42616c616e6365206973206e6f7420656e6f75676800000000000000000000006000830152602082019050919050565b600060c0830160008301516131ba6000860182613866565b50602083015184820360208601526131d28282612d04565b915050604083015184820360408601526131ec8282612d04565b91505060608301516132016060860182612b57565b50608083015184820360808601526132198282612bf9565b91505060a083015161322e60a0860182612cbc565b508091505092915050565b600060c08301600080840154905061325081613d61565b61325d6000870182613866565b506001840185830360208701526132748382612d3d565b92505060028401858303604087015261328d8382612d3d565b925050600384015490506132a081613d2d565b6132ad6060870182612b57565b506004840185830360808701526132c48382612c57565b925050600584015490506132d781613d47565b6132e460a0870182612cbc565b50819250505092915050565b60006080830160008301516133086000860182613866565b50602083015161331b6020860182612b66565b50604083015184820360408601526133338282612bf9565b91505060608301516133486060860182612cbc565b508091505092915050565b600060808301600080840154905061336a81613d61565b6133776000870182613866565b506001840154905061338881613d13565b6133956020870182612b66565b506002840185830360408701526133ac8382612c57565b925050600384015490506133bf81613d47565b6133cc6060870182612cbc565b50819250505092915050565b6000610160830160008301516133f16000860182613866565b5060208301516134046020860182613866565b5060408301516134176040860182613866565b506060830151848203606086015261342f8282612d04565b915050608083015184820360808601526134498282612d04565b91505060a083015184820360a08601526134638282612d04565b91505060c083015161347860c0860182613866565b5060e083015161348b60e0860182613866565b506101008301516134a0610100860182613866565b506101208301516134b5610120860182612cbc565b506101408301516134ca610140860182612cbc565b508091505092915050565b6000610160830160008301516134ee6000860182613866565b5060208301516135016020860182613866565b5060408301516135146040860182613866565b506060830151848203606086015261352c8282612d04565b915050608083015184820360808601526135468282612d04565b91505060a083015184820360a08601526135608282612d04565b91505060c083015161357560c0860182613866565b5060e083015161358860e0860182613866565b5061010083015161359d610100860182613866565b506101208301516135b2610120860182612cbc565b506101408301516135c7610140860182612cbc565b508091505092915050565b6000610160830160008084015490506135ea81613d61565b6135f76000870182613866565b506001840154905061360881613d61565b6136156020870182613866565b506002840154905061362681613d61565b6136336040870182613866565b5060038401858303606087015261364a8382612d3d565b9250506004840185830360808701526136638382612d3d565b9250506005840185830360a087015261367c8382612d3d565b9250506006840154905061368f81613d61565b61369c60c0870182613866565b50600784015490506136ad81613d61565b6136ba60e0870182613866565b50600884015490506136cb81613d61565b6136d9610100870182613866565b50600984015490506136ea81613d47565b6136f8610120870182612cbc565b5061370281613d7b565b613710610140870182612cbc565b50819250505092915050565b60006101608301600080840154905061373481613d61565b6137416000870182613866565b506001840154905061375281613d61565b61375f6020870182613866565b506002840154905061377081613d61565b61377d6040870182613866565b506003840185830360608701526137948382612d3d565b9250506004840185830360808701526137ad8382612d3d565b9250506005840185830360a08701526137c68382612d3d565b925050600684015490506137d981613d61565b6137e660c0870182613866565b50600784015490506137f781613d61565b61380460e0870182613866565b506008840154905061381581613d61565b613823610100870182613866565b506009840154905061383481613d47565b613842610120870182612cbc565b5061384c81613d7b565b61385a610140870182612cbc565b50819250505092915050565b61386f81613cd6565b82525050565b61387e81613cd6565b82525050565b60006020820190506138996000830184612b75565b92915050565b600060208201905081810360008301526138b98184612b84565b905092915050565b600060208201905081810360008301526138db8184612ccb565b905092915050565b600060208201905081810360008301526138fc81612dcc565b9050919050565b6000602082019050818103600083015261391c81612e32565b9050919050565b6000602082019050818103600083015261393c81612e98565b9050919050565b6000602082019050818103600083015261395c81612efe565b9050919050565b6000602082019050818103600083015261397c81612f8a565b9050919050565b6000602082019050818103600083015261399c81612ff0565b9050919050565b600060208201905081810360008301526139bc81613056565b9050919050565b600060208201905081810360008301526139dc816130bc565b9050919050565b600060208201905081810360008301526139fc81613122565b9050919050565b60006020820190508181036000830152613a1c81613162565b9050919050565b60006020820190508181036000830152613a3d81846131a2565b905092915050565b60006020820190508181036000830152613a5f81846132f0565b905092915050565b60006020820190508181036000830152613a8181846133d8565b905092915050565b60006040820190508181036000830152613aa381856135d2565b90508181036020830152613ab78184613353565b90509392505050565b60006080820190508181036000830152613ada818761371c565b90508181036020830152613aee8186613353565b90508181036040830152613b028185613239565b9050613b116060830184613875565b95945050505050565b6000604082019050613b2f6000830185613875565b613b3c6020830184613875565b9392505050565b6000819050602082019050919050565b6000819050602082019050919050565b60008190508160005260206000209050919050565b60008190508160005260206000209050919050565b600081519050919050565b600081519050919050565b600081549050919050565b600081519050919050565b600081519050919050565b6000602082019050919050565b6000602082019050919050565b6000600182019050919050565b600082825260208201905092915050565b600082825260208201905092915050565b600082825260208201905092915050565b600082825260208201905092915050565b600073ffffffffffffffffffffffffffffffffffffffff82169050919050565b600073ffffffffffffffffffffffffffffffffffffffff82169050919050565b600060ff82169050919050565b6000819050919050565b6000613c9182613cb6565b9050919050565b6000613ca382613cb6565b9050919050565b60008115159050919050565b600073ffffffffffffffffffffffffffffffffffffffff82169050919050565b6000819050919050565b60005b83811015613cfe578082015181840152602081019050613ce3565b83811115613d0d576000848401525b50505050565b6000613d26613d2183613db9565b613c2f565b9050919050565b6000613d40613d3b83613db9565b613c4f565b9050919050565b6000613d5a613d5583613db9565b613c6f565b9050919050565b6000613d74613d6f83613db9565b613c7c565b9050919050565b6000613d8e613d8983613dc6565b613c6f565b9050919050565b6000613da18254613d61565b9050919050565b6000601f19601f8301169050919050565b60008160001c9050919050565b60008160081c9050919050565b613ddc81613c86565b8114613de757600080fd5b50565b613df381613c98565b8114613dfe57600080fd5b50565b613e0a81613cd6565b8114613e1557600080fd5b5056fea365627a7a723158202b0f041cc1fbe47ad9a5f17cfc5164a9b1a8cbdb2880c5c5bc7faa60c77c86e96c6578706572696d656e74616cf564736f6c63430005100040",
  "source": "// SPDX-License-Identifier: MIT\npragma solidity >=0.4.22 <0.9.0;\npragma experimental ABIEncoderV2;\n\n/// @title Prescription made by the doctor after a consultation\ncontract Prescurity {\n\n    /**\n     * @dev Owner should be the admin\n     * He is responsible for adding Doctors and Pharmacists\n     */\n    address private _owner;\n\n    uint private _doctorId;\n    uint private _pharmacyId;\n    uint private _prescriptionId;\n\n    struct Patient {\n        uint numero_secu;\n        address patientAddress;\n        uint[] prescriptionsIds;\n        bool isValue;\n    }\n\n    struct Doctor {\n        uint id;\n        string speciality;\n        string name;\n        address payable doctorAddress;\n        uint[] prescriptionsIds;\n        bool isValue;\n    }\n\n    struct Pharmacy {\n        uint id;\n        string name;\n        address pharmacyAddress;\n        bool isValue;\n    }\n    \n    struct Prescription {\n        uint id;\n        uint patientId;\n        uint doctorId;\n        string medicine;\n        string disease;\n        string frequency;\n        uint256 startTimestamp;\n        uint256 endTimestamp;\n        uint dueToDoctor;\n        bool claimed;\n        bool paid;\n    } \n\n    // set owner as first interactor with the contract\n    constructor() public {\n        _setOwner(msg.sender);\n        _setDoctorId(1);\n        _setPharmacyId(1);\n        _setPrescriptionId(1);\n    }\n\n    enum authentification {\n        anon,\n        patient,\n        doctor,\n        pharmacy\n    }\n\n    mapping (uint => Patient) patientNumSecuMap;\n    mapping(address => Patient) patientAddressMap;\n    mapping (address => authentification) patientAuthentification;\n    mapping (uint => Doctor) doctorIdMap;\n    mapping (address => Doctor) doctorAddressMap;\n    mapping (address => authentification) doctorAuthentification;\n    mapping (uint => Pharmacy) pharmacyIdMap;\n    mapping (address => Pharmacy) pharmacyAddressMap;\n    mapping (address => authentification) pharmacyAuthentification;\n    mapping (uint => Prescription) prescriptionIdMap;\n\n    modifier patientOnly() {\n        if (patientAuthentification[msg.sender] == authentification.patient) {\n            _;\n        } else {\n            revert(\"Sorry, this function is reserved to the patient\");\n        }\n    }\n\n    modifier doctorOnly() {\n        if (doctorAuthentification[msg.sender] == authentification.doctor) {\n            _;\n        } else {\n            revert(\"Sorry, this function is reserved to the doctor\");\n        }\n    }\n    \n    modifier pharmacyOnly(){\n        if (pharmacyAuthentification[msg.sender] == authentification.pharmacy) {\n            _;\n        } else {\n            revert(\"Sorry, this function is reserved to the pharmacy\");\n        }\n    }\n    \n    modifier ownerOnly(){\n        if (getOwner() == msg.sender) {\n            _;\n        } else {\n            revert(\"Sorry, this function is reserved to the owner of the smart contract\");\n        }\n    }\n\n    function uint2str(uint _i) internal pure returns (string memory _uintAsString) {\n        if (_i == 0) {\n            return \"0\";\n        }\n        uint j = _i;\n        uint len;\n        while (j != 0) {\n            len++;\n            j /= 10;\n        }\n        bytes memory bstr = new bytes(len);\n        uint k = len;\n        while (_i != 0) {\n            k = k-1;\n            uint8 temp = (48 + uint8(_i - _i / 10 * 10));\n            bytes1 b1 = bytes1(temp);\n            bstr[k] = b1;\n            _i /= 10;\n        }\n        return string(bstr);\n    }\n\n    function append(string memory a, string memory b) internal pure returns (string memory) {\n        return string(abi.encodePacked(a, b));\n    }\n\n    function getOwner() public view returns (address) {\n        return _owner;\n    }\n\n    function getDoctorId() internal returns (uint) {\n        return _doctorId++;\n    }\n\n    function getPrescriptionId() internal returns (uint) {\n        return _prescriptionId++;\n    }\n\n    function getUserType() view public returns (string memory) {\n        if (doctorAuthentification[msg.sender] == authentification.doctor) {\n            return \"doctor\";\n        }\n        if (pharmacyAuthentification[msg.sender] == authentification.pharmacy) {\n            return \"pharmacy\";\n        }\n        if (patientAuthentification[msg.sender] == authentification.patient) {\n            return \"patient\";\n        }\n        if(msg.sender == getOwner()){\n            return \"owner\";\n        }\n        return \"none\";\n    }\n\n    function addDoctor(address payable addr, string calldata name, string calldata speciality) external ownerOnly {\n        require(doctorAuthentification[addr] != authentification.doctor, \"This address is already defined as a doctor\");\n        require(pharmacyAuthentification[addr] != authentification.pharmacy, \"This address is already defined as a doctor\");\n        uint id = getDoctorId();\n        doctorIdMap[id].id = id;\n        doctorIdMap[id].speciality = speciality;\n        doctorIdMap[id].name = name;\n        doctorIdMap[id].doctorAddress = addr;\n        doctorIdMap[id].isValue = true;\n        doctorAddressMap[addr].id = id;\n        doctorAuthentification[addr] = authentification.doctor;\n    }\n\n    function addPharmacy(address addr, string calldata name) external ownerOnly {\n        require(pharmacyAuthentification[addr] != authentification.pharmacy, \"This address is already defined as a doctor\");\n        require(doctorAuthentification[addr] != authentification.doctor, \"This address is already defined as a doctor\");\n        uint id = getDoctorId();\n        pharmacyIdMap[id].id = id;\n        pharmacyIdMap[id].name = name;\n        pharmacyIdMap[id].pharmacyAddress = addr;\n        pharmacyIdMap[id].isValue = true;\n        pharmacyAddressMap[addr].id = id;\n        pharmacyAuthentification[addr] = authentification.pharmacy;\n    }\n\n    /**\n     * @dev problme: une personne mal-intentione pourrait lier un numro de scu ne lui appartenant pas  une addresse quelconque \n     */\n    function addPatient(uint numero_secu, address addr) external {\n        require(!patientNumSecuMap[numero_secu].isValue, \"This num secu is already defined as a patient\");\n        patientNumSecuMap[numero_secu].numero_secu = numero_secu;\n        patientNumSecuMap[numero_secu].isValue = true;\n        patientNumSecuMap[numero_secu].patientAddress = addr;\n        patientAddressMap[addr].numero_secu = numero_secu;\n        patientAuthentification[addr] = authentification.patient;\n    }\n\n    function addPrescription(uint amountAskedByDoctor, uint numero_secu, string calldata medicine, string calldata disease, string calldata frequency) external doctorOnly {\n        //require(msg.value == amountAskedByDoctor, append(\"Please match the asked value by the doctor: \",uint2str(amountAskedByDoctor)));\n        uint doctorId = doctorAddressMap[msg.sender].id;\n        // We first fetch the doctor id from the msg.sender then get the doctor object mapped by the ID. \n        Doctor storage doctor = doctorIdMap[doctorId];\n        Patient storage patient = patientNumSecuMap[numero_secu];\n        uint prescriptionId = getPrescriptionId();\n        patient.prescriptionsIds.push(prescriptionId);\n        doctor.prescriptionsIds.push(prescriptionId);\n        prescriptionIdMap[prescriptionId].id = prescriptionId;\n        prescriptionIdMap[prescriptionId].claimed = false;\n        prescriptionIdMap[prescriptionId].paid = false;\n        prescriptionIdMap[prescriptionId].patientId = numero_secu;\n        prescriptionIdMap[prescriptionId].doctorId = doctor.id;\n        prescriptionIdMap[prescriptionId].medicine = medicine;\n        prescriptionIdMap[prescriptionId].frequency = frequency;\n        prescriptionIdMap[prescriptionId].disease = disease;\n        prescriptionIdMap[prescriptionId].dueToDoctor = amountAskedByDoctor;\n        prescriptionIdMap[prescriptionId].startTimestamp = block.timestamp;\n        prescriptionIdMap[prescriptionId].endTimestamp = block.timestamp + 93 days;\n        emit Consultation(prescriptionIdMap[prescriptionId], patient, doctor, amountAskedByDoctor);\n    }\n\n    function payPrescription(uint prescriptionId) payable external patientOnly {\n        require(address(this).balance >= msg.value, \"Balance is not enough\");\n        require(!prescriptionIdMap[prescriptionId].paid, \"Prescription should not be paid\");\n        Prescription storage prescription = prescriptionIdMap[prescriptionId];\n        Doctor storage doctor = doctorIdMap[prescription.doctorId];\n        address payable doctorAddr = doctor.doctorAddress;\n        doctorAddr.transfer(msg.value);\n        emit DoctorPaid(msg.value, doctor.doctorAddress, msg.sender, prescription.doctorId);\n        prescriptionIdMap[prescriptionId].paid = true;\n    }\n\n    function claimPrescription(uint prescriptionId) external pharmacyOnly {\n        require(prescriptionIdMap[prescriptionId].claimed == false, \"This presciption is already claimed\");\n        Prescription storage prescription = prescriptionIdMap[prescriptionId];\n        Patient storage patient = patientNumSecuMap[prescription.patientId];\n        prescriptionIdMap[prescriptionId].claimed = true;\n        emit PharmaClaimed(prescription, msg.sender, patient);\n    }\n\n    function showPrescriptionPatient(uint numSecuPatient) view public returns(Prescription[] memory){\n        require(numSecuPatient < 100000000000000 || numSecuPatient > 999999999999999, \"Numero de securite require 15 numbers\");\n\n        Patient storage patient = patientNumSecuMap[numSecuPatient];\n        uint len=5;\n        \n        if(patient.prescriptionsIds.length < len){\n            len = patient.prescriptionsIds.length;\n        }\n        Prescription[] memory prescriptions = new Prescription[](len);\n        for(uint i=0; i < len; i++){\n\n            Prescription storage prescription = prescriptionIdMap[patient.prescriptionsIds[len-1-i]];\n            prescriptions[i] = prescription;\n        }\n        return prescriptions;\n    }\n\n    /**\n     * Fetch the last \"amountOfPrescriptions\" a doctor has created.\n     * @param amountOfPrescriptions the amount of prescriptions to get\n     */\n    function getLastDoctorPrescriptions(uint amountOfPrescriptions) view public doctorOnly returns(Prescription[] memory){\n        //require(amountOfPrescriptions < 0 || amountOfPrescriptions > 25, \"Please input an amount of prescriptions between 0 and 25\");\n        uint doctorId = doctorAddressMap[msg.sender].id;\n        Doctor storage doctor = doctorIdMap[doctorId];\n\n        uint len = amountOfPrescriptions;\n        if(doctor.prescriptionsIds.length < len){\n            len = doctor.prescriptionsIds.length;\n        }\n        Prescription[] memory prescriptions = new Prescription[](len);\n        for(uint i=0; i < len; i++){\n\n            Prescription storage prescription = prescriptionIdMap[doctor.prescriptionsIds[len-1-i]];\n            prescriptions[i] = prescription;\n        }\n        return prescriptions;\n    }\n\n    function getPrescription(uint idprescription) view public doctorOnly returns(Prescription memory) {\n        return prescriptionIdMap[idprescription];\n    }\n\n    function _setOwner(address new_owner) private {\n        address old_owner = _owner;\n        _owner = new_owner;\n        emit DefineOwnership(old_owner, new_owner);\n    }\n\n    function getDoctor(uint iddoctor) view public returns(Doctor memory) {\n        Doctor storage doctor= doctorIdMap[iddoctor];\n        return doctor;\n    }\n\n    function getPatient(uint numPatient) view public returns(Patient memory) {\n        Patient storage patient = patientNumSecuMap[numPatient];\n        return patient;\n    }\n\n    function getPatientAddress(address patientaddress) view public returns(Patient memory) {\n        Patient storage patient = patientAddressMap[patientaddress];\n        return patient;\n    }\n\n    function _setDoctorId(uint index) private {\n        _doctorId = index;\n    }\n\n    function _setPharmacyId(uint index) private {\n        _pharmacyId = index;\n    }\n\n    function _setPrescriptionId(uint index) private {\n        _prescriptionId = index;\n    }\n    \n    event prescriptionsShow(Prescription[] prescription);\n    event PharmaClaimed(Prescription prescription,address indexed pharmaaddress,Patient patient);\n    event DefineOwnership(address indexed old_owner, address indexed new_owner);\n    event Consultation(Prescription prescription, Patient patient, Doctor doctor, uint amount);\n    event DoctorPaid(uint amount, address indexed doctorAddress, address indexed patientAddress, uint doctorId);\n    event RetrieveMedicaments(Patient patient, Pharmacy pharmacy, Prescription prescription);\n}",
  "sourcePath": "/Users/martin/Documents/EFREI/L3/MasterCamp/prescurity-blockchain/contracts/Prescurity.sol",
  "compiler": {
    "name": "solc",
    "version": "0.5.16+commit.9c3226ce.Emscripten.clang"
  },
  "schemaVersion": "3.4.1",
  "updatedAt": "2021-07-05T12:43:19.300Z",
  "networkType": "ethereum",
  "devdoc": {
    "methods": {
      "addPatient(uint256,address)": {
        "details": "problme: une personne mal-intentione pourrait lier un numro de scu ne lui appartenant pas  une addresse quelconque "
      },
      "getLastDoctorPrescriptions(uint256)": {
        "params": {
          "amountOfPrescriptions": "the amount of prescriptions to get"
        }
      }
    },
    "title": "Prescription made by the doctor after a consultation"
  },
  "userdoc": {
    "methods": {
      "getLastDoctorPrescriptions(uint256)": {
        "notice": "Fetch the last \"amountOfPrescriptions\" a doctor has created."
      }
    }
  }
}