{
  "contractName": "Prescurity",
  "abi": [
    {
      "inputs": [],
      "payable": false,
      "stateMutability": "nonpayable",
      "type": "constructor"
    },
    {
      "anonymous": false,
      "inputs": [
        {
          "components": [
            {
              "internalType": "uint256",
              "name": "id",
              "type": "uint256"
            },
            {
              "internalType": "uint256",
              "name": "patientId",
              "type": "uint256"
            },
            {
              "internalType": "uint256",
              "name": "doctorId",
              "type": "uint256"
            },
            {
              "internalType": "string",
              "name": "medicine",
              "type": "string"
            },
            {
              "internalType": "string",
              "name": "disease",
              "type": "string"
            },
            {
              "internalType": "string",
              "name": "frequency",
              "type": "string"
            },
            {
              "internalType": "uint256",
              "name": "startTimestamp",
              "type": "uint256"
            },
            {
              "internalType": "uint256",
              "name": "endTimestamp",
              "type": "uint256"
            },
            {
              "internalType": "uint256",
              "name": "dueToDoctor",
              "type": "uint256"
            },
            {
              "internalType": "bool",
              "name": "claimed",
              "type": "bool"
            },
            {
              "internalType": "bool",
              "name": "paid",
              "type": "bool"
            }
          ],
          "indexed": false,
          "internalType": "struct Prescurity.Prescription",
          "name": "prescription",
          "type": "tuple"
        },
        {
          "components": [
            {
              "internalType": "uint256",
              "name": "numero_secu",
              "type": "uint256"
            },
            {
              "internalType": "address",
              "name": "patientAddress",
              "type": "address"
            },
            {
              "internalType": "uint256[]",
              "name": "prescriptionsIds",
              "type": "uint256[]"
            },
            {
              "internalType": "bool",
              "name": "isValue",
              "type": "bool"
            }
          ],
          "indexed": false,
          "internalType": "struct Prescurity.Patient",
          "name": "patient",
          "type": "tuple"
        },
        {
          "components": [
            {
              "internalType": "uint256",
              "name": "id",
              "type": "uint256"
            },
            {
              "internalType": "string",
              "name": "speciality",
              "type": "string"
            },
            {
              "internalType": "string",
              "name": "name",
              "type": "string"
            },
            {
              "internalType": "address payable",
              "name": "doctorAddress",
              "type": "address"
            },
            {
              "internalType": "bool",
              "name": "isValue",
              "type": "bool"
            }
          ],
          "indexed": false,
          "internalType": "struct Prescurity.Doctor",
          "name": "doctor",
          "type": "tuple"
        },
        {
          "indexed": false,
          "internalType": "uint256",
          "name": "amount",
          "type": "uint256"
        }
      ],
      "name": "Consultation",
      "type": "event"
    },
    {
      "anonymous": false,
      "inputs": [
        {
          "indexed": true,
          "internalType": "address",
          "name": "old_owner",
          "type": "address"
        },
        {
          "indexed": true,
          "internalType": "address",
          "name": "new_owner",
          "type": "address"
        }
      ],
      "name": "DefineOwnership",
      "type": "event"
    },
    {
      "anonymous": false,
      "inputs": [
        {
          "indexed": false,
          "internalType": "uint256",
          "name": "amount",
          "type": "uint256"
        },
        {
          "indexed": true,
          "internalType": "address",
          "name": "doctorAddress",
          "type": "address"
        },
        {
          "indexed": true,
          "internalType": "address",
          "name": "patientAddress",
          "type": "address"
        },
        {
          "indexed": false,
          "internalType": "uint256",
          "name": "doctorId",
          "type": "uint256"
        }
      ],
      "name": "DoctorPaid",
      "type": "event"
    },
    {
      "anonymous": false,
      "inputs": [
        {
          "components": [
            {
              "internalType": "uint256",
              "name": "numero_secu",
              "type": "uint256"
            },
            {
              "internalType": "address",
              "name": "patientAddress",
              "type": "address"
            },
            {
              "internalType": "uint256[]",
              "name": "prescriptionsIds",
              "type": "uint256[]"
            },
            {
              "internalType": "bool",
              "name": "isValue",
              "type": "bool"
            }
          ],
          "indexed": false,
          "internalType": "struct Prescurity.Patient",
          "name": "patient",
          "type": "tuple"
        },
        {
          "components": [
            {
              "internalType": "uint256",
              "name": "id",
              "type": "uint256"
            },
            {
              "internalType": "string",
              "name": "name",
              "type": "string"
            },
            {
              "internalType": "address",
              "name": "pharmacyAddress",
              "type": "address"
            },
            {
              "internalType": "bool",
              "name": "isValue",
              "type": "bool"
            }
          ],
          "indexed": false,
          "internalType": "struct Prescurity.Pharmacy",
          "name": "pharmacy",
          "type": "tuple"
        },
        {
          "components": [
            {
              "internalType": "uint256",
              "name": "id",
              "type": "uint256"
            },
            {
              "internalType": "uint256",
              "name": "patientId",
              "type": "uint256"
            },
            {
              "internalType": "uint256",
              "name": "doctorId",
              "type": "uint256"
            },
            {
              "internalType": "string",
              "name": "medicine",
              "type": "string"
            },
            {
              "internalType": "string",
              "name": "disease",
              "type": "string"
            },
            {
              "internalType": "string",
              "name": "frequency",
              "type": "string"
            },
            {
              "internalType": "uint256",
              "name": "startTimestamp",
              "type": "uint256"
            },
            {
              "internalType": "uint256",
              "name": "endTimestamp",
              "type": "uint256"
            },
            {
              "internalType": "uint256",
              "name": "dueToDoctor",
              "type": "uint256"
            },
            {
              "internalType": "bool",
              "name": "claimed",
              "type": "bool"
            },
            {
              "internalType": "bool",
              "name": "paid",
              "type": "bool"
            }
          ],
          "indexed": false,
          "internalType": "struct Prescurity.Prescription",
          "name": "prescription",
          "type": "tuple"
        }
      ],
      "name": "RetrieveMedicaments",
      "type": "event"
    },
    {
      "constant": true,
      "inputs": [],
      "name": "getOwner",
      "outputs": [
        {
          "internalType": "address",
          "name": "",
          "type": "address"
        }
      ],
      "payable": false,
      "stateMutability": "view",
      "type": "function"
    },
    {
      "constant": true,
      "inputs": [],
      "name": "getUserType",
      "outputs": [
        {
          "internalType": "string",
          "name": "",
          "type": "string"
        }
      ],
      "payable": false,
      "stateMutability": "view",
      "type": "function"
    },
    {
      "constant": false,
      "inputs": [
        {
          "internalType": "address payable",
          "name": "addr",
          "type": "address"
        },
        {
          "internalType": "string",
          "name": "name",
          "type": "string"
        },
        {
          "internalType": "string",
          "name": "speciality",
          "type": "string"
        }
      ],
      "name": "addDoctor",
      "outputs": [],
      "payable": false,
      "stateMutability": "nonpayable",
      "type": "function"
    },
    {
      "constant": false,
      "inputs": [
        {
          "internalType": "address",
          "name": "addr",
          "type": "address"
        },
        {
          "internalType": "string",
          "name": "name",
          "type": "string"
        }
      ],
      "name": "addPharmacy",
      "outputs": [],
      "payable": false,
      "stateMutability": "nonpayable",
      "type": "function"
    },
    {
      "constant": false,
      "inputs": [
        {
          "internalType": "uint256",
          "name": "numero_secu",
          "type": "uint256"
        },
        {
          "internalType": "address",
          "name": "addr",
          "type": "address"
        }
      ],
      "name": "addPatient",
      "outputs": [],
      "payable": false,
      "stateMutability": "nonpayable",
      "type": "function"
    },
    {
      "constant": false,
      "inputs": [
        {
          "internalType": "uint256",
          "name": "amountAskedByDoctor",
          "type": "uint256"
        },
        {
          "internalType": "uint256",
          "name": "numero_secu",
          "type": "uint256"
        },
        {
          "internalType": "string",
          "name": "medicine",
          "type": "string"
        },
        {
          "internalType": "string",
          "name": "disease",
          "type": "string"
        },
        {
          "internalType": "string",
          "name": "frequency",
          "type": "string"
        }
      ],
      "name": "addPrescription",
      "outputs": [],
      "payable": false,
      "stateMutability": "nonpayable",
      "type": "function"
    },
    {
      "constant": false,
      "inputs": [
        {
          "internalType": "uint256",
          "name": "prescriptionId",
          "type": "uint256"
        }
      ],
      "name": "payPrescription",
      "outputs": [],
      "payable": true,
      "stateMutability": "payable",
      "type": "function"
    },
    {
      "constant": false,
      "inputs": [
        {
          "internalType": "uint256",
          "name": "amountAskedByPharmacy",
          "type": "uint256"
        },
        {
          "internalType": "uint256",
          "name": "prescriptionId",
          "type": "uint256"
        }
      ],
      "name": "claimPrescription",
      "outputs": [],
      "payable": false,
      "stateMutability": "nonpayable",
      "type": "function"
    }
  ],
  "bytecode": "0x60806040523480156200001157600080fd5b5062000023336200005f60201b60201c565b6200003560016200012360201b60201c565b6200004760016200012d60201b60201c565b6200005960016200013760201b60201c565b62000141565b60008060009054906101000a900473ffffffffffffffffffffffffffffffffffffffff169050816000806101000a81548173ffffffffffffffffffffffffffffffffffffffff021916908373ffffffffffffffffffffffffffffffffffffffff1602179055508173ffffffffffffffffffffffffffffffffffffffff168173ffffffffffffffffffffffffffffffffffffffff167f98581b7da302c99fda82be041a3e5b468220ad63d7ed673d0b2b1de92dfa4a9660405160405180910390a35050565b8060018190555050565b8060028190555050565b8060038190555050565b61224b80620001516000396000f3fe60806040526004361061007b5760003560e01c80639db683c81161004e5780639db683c814610128578063a7a07c1714610151578063bcbb49351461017a578063df0acd40146101a35761007b565b806334b78998146100805780633abeaa47146100a957806341990077146100d2578063893d20e8146100fd575b600080fd5b34801561008c57600080fd5b506100a760048036036100a2919081019061145b565b6101bf565b005b3480156100b557600080fd5b506100d060048036036100cb91908101906114e4565b61052c565b005b3480156100de57600080fd5b506100e7610871565b6040516100f49190611dd3565b60405180910390f35b34801561010957600080fd5b50610112610b1e565b60405161011f9190611db8565b60405180910390f35b34801561013457600080fd5b5061014f600480360361014a9190810190611565565b610b47565b005b34801561015d57600080fd5b50610178600480360361017391908101906115a1565b610caf565b005b34801561018657600080fd5b506101a1600480360361019c91908101906115dd565b610d5d565b005b6101bd60048036036101b8919081019061153c565b611045565b005b3373ffffffffffffffffffffffffffffffffffffffff166101de610b1e565b73ffffffffffffffffffffffffffffffffffffffff1614156104ea576002600381111561020757fe5b600960008773ffffffffffffffffffffffffffffffffffffffff1673ffffffffffffffffffffffffffffffffffffffff16815260200190815260200160002060009054906101000a900460ff16600381111561025f57fe5b14156102a0576040517f08c379a000000000000000000000000000000000000000000000000000000000815260040161029790611e55565b60405180910390fd5b6003808111156102ac57fe5b600c60008773ffffffffffffffffffffffffffffffffffffffff1673ffffffffffffffffffffffffffffffffffffffff16815260200190815260200160002060009054906101000a900460ff16600381111561030457fe5b1415610345576040517f08c379a000000000000000000000000000000000000000000000000000000000815260040161033c90611e55565b60405180910390fd5b600061034f6112fd565b9050806007600083815260200190815260200160002060000181905550828260076000848152602001908152602001600020600101919061039192919061132d565b5084846007600084815260200190815260200160002060020191906103b792919061132d565b50856007600083815260200190815260200160002060030160006101000a81548173ffffffffffffffffffffffffffffffffffffffff021916908373ffffffffffffffffffffffffffffffffffffffff16021790555060016007600083815260200190815260200160002060030160146101000a81548160ff02191690831515021790555080600860008873ffffffffffffffffffffffffffffffffffffffff1673ffffffffffffffffffffffffffffffffffffffff168152602001908152602001600020600001819055506002600960008873ffffffffffffffffffffffffffffffffffffffff1673ffffffffffffffffffffffffffffffffffffffff16815260200190815260200160002060006101000a81548160ff021916908360038111156104df57fe5b021790555050610525565b6040517f08c379a000000000000000000000000000000000000000000000000000000000815260040161051c90611e15565b60405180910390fd5b5050505050565b3373ffffffffffffffffffffffffffffffffffffffff1661054b610b1e565b73ffffffffffffffffffffffffffffffffffffffff1614156108315760038081111561057357fe5b600c60008573ffffffffffffffffffffffffffffffffffffffff1673ffffffffffffffffffffffffffffffffffffffff16815260200190815260200160002060009054906101000a900460ff1660038111156105cb57fe5b141561060c576040517f08c379a000000000000000000000000000000000000000000000000000000000815260040161060390611e55565b60405180910390fd5b6002600381111561061957fe5b600960008573ffffffffffffffffffffffffffffffffffffffff1673ffffffffffffffffffffffffffffffffffffffff16815260200190815260200160002060009054906101000a900460ff16600381111561067157fe5b14156106b2576040517f08c379a00000000000000000000000000000000000000000000000000000000081526004016106a990611e55565b60405180910390fd5b60006106bc6112fd565b905080600a6000838152602001908152602001600020600001819055508282600a600084815260200190815260200160002060010191906106fe92919061132d565b5083600a600083815260200190815260200160002060020160006101000a81548173ffffffffffffffffffffffffffffffffffffffff021916908373ffffffffffffffffffffffffffffffffffffffff1602179055506001600a600083815260200190815260200160002060020160146101000a81548160ff02191690831515021790555080600b60008673ffffffffffffffffffffffffffffffffffffffff1673ffffffffffffffffffffffffffffffffffffffff168152602001908152602001600020600001819055506003600c60008673ffffffffffffffffffffffffffffffffffffffff1673ffffffffffffffffffffffffffffffffffffffff16815260200190815260200160002060006101000a81548160ff0219169083600381111561082657fe5b02179055505061086c565b6040517f08c379a000000000000000000000000000000000000000000000000000000000815260040161086390611e15565b60405180910390fd5b505050565b60606002600381111561088057fe5b600960003373ffffffffffffffffffffffffffffffffffffffff1673ffffffffffffffffffffffffffffffffffffffff16815260200190815260200160002060009054906101000a900460ff1660038111156108d857fe5b141561091b576040518060400160405280600681526020017f646f63746f7200000000000000000000000000000000000000000000000000008152509050610b1b565b60038081111561092757fe5b600c60003373ffffffffffffffffffffffffffffffffffffffff1673ffffffffffffffffffffffffffffffffffffffff16815260200190815260200160002060009054906101000a900460ff16600381111561097f57fe5b14156109c2576040518060400160405280600881526020017f706861726d6163790000000000000000000000000000000000000000000000008152509050610b1b565b600160038111156109cf57fe5b600660003373ffffffffffffffffffffffffffffffffffffffff1673ffffffffffffffffffffffffffffffffffffffff16815260200190815260200160002060009054906101000a900460ff166003811115610a2757fe5b1415610a6a576040518060400160405280600781526020017f70617469656e74000000000000000000000000000000000000000000000000008152509050610b1b565b610a72610b1e565b73ffffffffffffffffffffffffffffffffffffffff163373ffffffffffffffffffffffffffffffffffffffff161415610ae2576040518060400160405280600581526020017f6f776e65720000000000000000000000000000000000000000000000000000008152509050610b1b565b6040518060400160405280600481526020017f6e6f6e650000000000000000000000000000000000000000000000000000000081525090505b90565b60008060009054906101000a900473ffffffffffffffffffffffffffffffffffffffff16905090565b6004600083815260200190815260200160002060030160009054906101000a900460ff1615610bab576040517f08c379a0000000000000000000000000000000000000000000000000000000008152600401610ba290611e35565b60405180910390fd5b81600460008481526020019081526020016000206000018190555060016004600084815260200190815260200160002060030160006101000a81548160ff021916908315150217905550806004600084815260200190815260200160002060010160006101000a81548173ffffffffffffffffffffffffffffffffffffffff021916908373ffffffffffffffffffffffffffffffffffffffff1602179055506001600660008373ffffffffffffffffffffffffffffffffffffffff1673ffffffffffffffffffffffffffffffffffffffff16815260200190815260200160002060006101000a81548160ff02191690836003811115610ca657fe5b02179055505050565b600380811115610cbb57fe5b600c60003373ffffffffffffffffffffffffffffffffffffffff1673ffffffffffffffffffffffffffffffffffffffff16815260200190815260200160002060009054906101000a900460ff166003811115610d1357fe5b1415610d1e57610d59565b6040517f08c379a0000000000000000000000000000000000000000000000000000000008152600401610d5090611e95565b60405180910390fd5b5050565b60026003811115610d6a57fe5b600960003373ffffffffffffffffffffffffffffffffffffffff1673ffffffffffffffffffffffffffffffffffffffff16815260200190815260200160002060009054906101000a900460ff166003811115610dc257fe5b1415611000576000600860003373ffffffffffffffffffffffffffffffffffffffff1673ffffffffffffffffffffffffffffffffffffffff16815260200190815260200160002090506000600460008a815260200190815260200160002090506000610e2c611315565b905080600e6000838152602001908152602001600020600001819055506000600e600083815260200190815260200160002060090160006101000a81548160ff0219169083151502179055506000600e600083815260200190815260200160002060090160016101000a81548160ff02191690831515021790555089600e6000838152602001908152602001600020600101819055508260000154600e6000838152602001908152602001600020600201819055508888600e60008481526020019081526020016000206003019190610f0692919061132d565b508484600e60008481526020019081526020016000206005019190610f2c92919061132d565b508686600e60008481526020019081526020016000206004019190610f5292919061132d565b508a600e60008381526020019081526020016000206008018190555042600e600083815260200190815260200160002060060181905550627a9b804201600e6000838152602001908152602001600020600701819055507fa127477e3aceb938cd641d354b51096cf033066b6d4f25ce41a1773ad57915d7600e600083815260200190815260200160002083858e604051610ff09493929190611ef5565b60405180910390a150505061103b565b6040517f08c379a000000000000000000000000000000000000000000000000000000000815260040161103290611e75565b60405180910390fd5b5050505050505050565b6001600381111561105257fe5b600660003373ffffffffffffffffffffffffffffffffffffffff1673ffffffffffffffffffffffffffffffffffffffff16815260200190815260200160002060009054906101000a900460ff1660038111156110aa57fe5b14156112bf57344710156110f3576040517f08c379a00000000000000000000000000000000000000000000000000000000081526004016110ea90611ed5565b60405180910390fd5b600e600082815260200190815260200160002060090160019054906101000a900460ff1615611157576040517f08c379a000000000000000000000000000000000000000000000000000000000815260040161114e90611eb5565b60405180910390fd5b6000600e6000838152602001908152602001600020905060006007600083600201548152602001908152602001600020905060008160030160009054906101000a900473ffffffffffffffffffffffffffffffffffffffff1690508073ffffffffffffffffffffffffffffffffffffffff166108fc349081150290604051600060405180830381858888f193505050501580156111f8573d6000803e3d6000fd5b503373ffffffffffffffffffffffffffffffffffffffff168260030160009054906101000a900473ffffffffffffffffffffffffffffffffffffffff1673ffffffffffffffffffffffffffffffffffffffff167fc063efac985b8a228415ff3bb4f0766a3108513fbb464fe953d78d6543614bf3348660020154604051611280929190611f4f565b60405180910390a36001600e600086815260200190815260200160002060090160016101000a81548160ff0219169083151502179055505050506112fa565b6040517f08c379a00000000000000000000000000000000000000000000000000000000081526004016112f190611df5565b60405180910390fd5b50565b60006001600081548092919060010191905055905090565b60006003600081548092919060010191905055905090565b828054600181600116156101000203166002900490600052602060002090601f016020900481019282601f1061136e57803560ff191683800117855561139c565b8280016001018555821561139c579182015b8281111561139b578235825591602001919060010190611380565b5b5090506113a991906113ad565b5090565b6113cf91905b808211156113cb5760008160009055506001016113b3565b5090565b90565b6000813590506113e1816121c3565b92915050565b6000813590506113f6816121da565b92915050565b60008083601f84011261140e57600080fd5b8235905067ffffffffffffffff81111561142757600080fd5b60208301915083600182028301111561143f57600080fd5b9250929050565b600081359050611455816121f1565b92915050565b60008060008060006060868803121561147357600080fd5b6000611481888289016113e7565b955050602086013567ffffffffffffffff81111561149e57600080fd5b6114aa888289016113fc565b9450945050604086013567ffffffffffffffff8111156114c957600080fd5b6114d5888289016113fc565b92509250509295509295909350565b6000806000604084860312156114f957600080fd5b6000611507868287016113d2565b935050602084013567ffffffffffffffff81111561152457600080fd5b611530868287016113fc565b92509250509250925092565b60006020828403121561154e57600080fd5b600061155c84828501611446565b91505092915050565b6000806040838503121561157857600080fd5b600061158685828601611446565b9250506020611597858286016113d2565b9150509250929050565b600080604083850312156115b457600080fd5b60006115c285828601611446565b92505060206115d385828601611446565b9150509250929050565b60008060008060008060008060a0898b0312156115f957600080fd5b60006116078b828c01611446565b98505060206116188b828c01611446565b975050604089013567ffffffffffffffff81111561163557600080fd5b6116418b828c016113fc565b9650965050606089013567ffffffffffffffff81111561166057600080fd5b61166c8b828c016113fc565b9450945050608089013567ffffffffffffffff81111561168b57600080fd5b6116978b828c016113fc565b92509250509295985092959890939650565b60006116b58383611d9a565b60208301905092915050565b6116ca81612061565b82525050565b6116d98161204f565b82525050565b6116e88161204f565b82525050565b60006116f982611fa2565b6117038185611fc5565b935061170e83611f78565b8060005b838110156117465761172382612178565b61172d88826116a9565b975061173883611fb8565b925050600181019050611712565b5085935050505092915050565b61175c81612073565b82525050565b600061176d82611fad565b6117778185611fe7565b93506117878185602086016120a9565b6117908161218b565b840191505092915050565b6000815460018116600081146117b857600181146117de57611822565b607f60028304166117c98187611fd6565b955060ff198316865260208601935050611822565b600282046117ec8187611fd6565b95506117f785611f8d565b60005b82811015611819578154818901526001820191506020810190506117fa565b80880195505050505b505092915050565b6000611837602f83611fe7565b91507f536f7272792c20746869732066756e6374696f6e20697320726573657276656460008301527f20746f207468652070617469656e7400000000000000000000000000000000006020830152604082019050919050565b600061189d604383611fe7565b91507f536f7272792c20746869732066756e6374696f6e20697320726573657276656460008301527f20746f20746865206f776e6572206f662074686520736d61727420636f6e747260208301527f61637400000000000000000000000000000000000000000000000000000000006040830152606082019050919050565b6000611929602d83611fe7565b91507f54686973206e756d207365637520697320616c726561647920646566696e656460008301527f20617320612070617469656e74000000000000000000000000000000000000006020830152604082019050919050565b600061198f602b83611fe7565b91507f54686973206164647265737320697320616c726561647920646566696e65642060008301527f6173206120646f63746f720000000000000000000000000000000000000000006020830152604082019050919050565b60006119f5602e83611fe7565b91507f536f7272792c20746869732066756e6374696f6e20697320726573657276656460008301527f20746f2074686520646f63746f720000000000000000000000000000000000006020830152604082019050919050565b6000611a5b603083611fe7565b91507f536f7272792c20746869732066756e6374696f6e20697320726573657276656460008301527f20746f2074686520706861726d616379000000000000000000000000000000006020830152604082019050919050565b6000611ac1601f83611fe7565b91507f507265736372697074696f6e2073686f756c64206e6f742062652070616964006000830152602082019050919050565b6000611b01601583611fe7565b91507f42616c616e6365206973206e6f7420656e6f75676800000000000000000000006000830152602082019050919050565b600060a083016000808401549050611b4b8161212a565b611b586000870182611d9a565b50600184018583036020870152611b6f838261179b565b925050600284018583036040870152611b88838261179b565b92505060038401549050611b9b816120f6565b611ba860608701826116c1565b50611bb28161215e565b611bbf6080870182611753565b50819250505092915050565b6000608083016000808401549050611be28161212a565b611bef6000870182611d9a565b5060018401549050611c00816120dc565b611c0d60208701826116d0565b50600284018583036040870152611c2483826116ee565b92505060038401549050611c3781612110565b611c446060870182611753565b50819250505092915050565b600061016083016000808401549050611c688161212a565b611c756000870182611d9a565b5060018401549050611c868161212a565b611c936020870182611d9a565b5060028401549050611ca48161212a565b611cb16040870182611d9a565b50600384018583036060870152611cc8838261179b565b925050600484018583036080870152611ce1838261179b565b9250506005840185830360a0870152611cfa838261179b565b92505060068401549050611d0d8161212a565b611d1a60c0870182611d9a565b5060078401549050611d2b8161212a565b611d3860e0870182611d9a565b5060088401549050611d498161212a565b611d57610100870182611d9a565b5060098401549050611d6881612110565b611d76610120870182611753565b50611d8081612144565b611d8e610140870182611753565b50819250505092915050565b611da38161209f565b82525050565b611db28161209f565b82525050565b6000602082019050611dcd60008301846116df565b92915050565b60006020820190508181036000830152611ded8184611762565b905092915050565b60006020820190508181036000830152611e0e8161182a565b9050919050565b60006020820190508181036000830152611e2e81611890565b9050919050565b60006020820190508181036000830152611e4e8161191c565b9050919050565b60006020820190508181036000830152611e6e81611982565b9050919050565b60006020820190508181036000830152611e8e816119e8565b9050919050565b60006020820190508181036000830152611eae81611a4e565b9050919050565b60006020820190508181036000830152611ece81611ab4565b9050919050565b60006020820190508181036000830152611eee81611af4565b9050919050565b60006080820190508181036000830152611f0f8187611c50565b90508181036020830152611f238186611bcb565b90508181036040830152611f378185611b34565b9050611f466060830184611da9565b95945050505050565b6000604082019050611f646000830185611da9565b611f716020830184611da9565b9392505050565b60008190508160005260206000209050919050565b60008190508160005260206000209050919050565b600081549050919050565b600081519050919050565b6000600182019050919050565b600082825260208201905092915050565b600082825260208201905092915050565b600082825260208201905092915050565b600073ffffffffffffffffffffffffffffffffffffffff82169050919050565b600073ffffffffffffffffffffffffffffffffffffffff82169050919050565b600060ff82169050919050565b6000819050919050565b600061205a8261207f565b9050919050565b600061206c8261207f565b9050919050565b60008115159050919050565b600073ffffffffffffffffffffffffffffffffffffffff82169050919050565b6000819050919050565b60005b838110156120c75780820151818401526020810190506120ac565b838111156120d6576000848401525b50505050565b60006120ef6120ea8361219c565b611ff8565b9050919050565b60006121096121048361219c565b612018565b9050919050565b600061212361211e8361219c565b612038565b9050919050565b600061213d6121388361219c565b612045565b9050919050565b6000612157612152836121b6565b612038565b9050919050565b600061217161216c836121a9565b612038565b9050919050565b6000612184825461212a565b9050919050565b6000601f19601f8301169050919050565b60008160001c9050919050565b60008160a01c9050919050565b60008160081c9050919050565b6121cc8161204f565b81146121d757600080fd5b50565b6121e381612061565b81146121ee57600080fd5b50565b6121fa8161209f565b811461220557600080fd5b5056fea365627a7a7231582088dca7ba3ceedf80c72ab1f48fcf648311f71e07be6923437da87fe1de9d23196c6578706572696d656e74616cf564736f6c63430005100040",
  "source": "// SPDX-License-Identifier: MIT\npragma solidity >=0.4.22 <0.9.0;\npragma experimental ABIEncoderV2;\n\n/// @title Prescription made by the doctor after a consultation\ncontract Prescurity {\n\n    /**\n     * @dev Owner should be the admin\n     * He is responsible for adding Doctors and Pharmacists\n     */\n    address private _owner;\n\n    uint private _doctorId;\n    uint private _pharmacyId;\n    uint private _prescriptionId;\n\n    struct Patient {\n        uint numero_secu;\n        address patientAddress;\n        uint[] prescriptionsIds;\n        bool isValue;\n    }\n\n    struct Doctor {\n        uint id;\n        string speciality;\n        string name;\n        address payable doctorAddress;\n        bool isValue;\n    }\n\n    struct Pharmacy {\n        uint id;\n        string name;\n        address pharmacyAddress;\n        bool isValue;\n    }\n    \n    struct Prescription {\n        uint id;\n        uint patientId;\n        uint doctorId;\n        string medicine;\n        string disease;\n        string frequency;\n        uint256 startTimestamp;\n        uint256 endTimestamp;\n        uint dueToDoctor;\n        bool claimed;\n        bool paid;\n    } \n\n    // set owner as first interactor with the contract\n    constructor() public {\n        _setOwner(msg.sender);\n        _setDoctorId(1);\n        _setPharmacyId(1);\n        _setPrescriptionId(1);\n    }\n\n    enum authentification {\n        anon,\n        patient,\n        doctor,\n        pharmacy\n    }\n\n    mapping (uint => Patient) patientNumSecuMap;\n    mapping(address => Patient) patientAddressMap;\n    mapping (address => authentification) patientAuthentification;\n    mapping (uint => Doctor) doctorIdMap;\n    mapping (address => Doctor) doctorAddressMap;\n    mapping (address => authentification) doctorAuthentification;\n    mapping (uint => Pharmacy) pharmacyIdMap;\n    mapping (address => Pharmacy) pharmacyAddressMap;\n    mapping (address => authentification) pharmacyAuthentification;\n    mapping (uint => Prescription) prescIdMap;\n    mapping (uint => Prescription) prescriptionIdMap;\n\n    modifier patientOnly() {\n        if (patientAuthentification[msg.sender] == authentification.patient) {\n            _;\n        } else {\n            revert(\"Sorry, this function is reserved to the patient\");\n        }\n    }\n\n    modifier doctorOnly() {\n        if (doctorAuthentification[msg.sender] == authentification.doctor) {\n            _;\n        } else {\n            revert(\"Sorry, this function is reserved to the doctor\");\n        }\n    }\n    \n    modifier pharmacyOnly(){\n        if (pharmacyAuthentification[msg.sender] == authentification.pharmacy) {\n            _;\n        } else {\n            revert(\"Sorry, this function is reserved to the pharmacy\");\n        }\n    }\n    \n    modifier ownerOnly(){\n        if (getOwner() == msg.sender) {\n            _;\n        } else {\n            revert(\"Sorry, this function is reserved to the owner of the smart contract\");\n        }\n    }\n\n    function uint2str(uint _i) internal pure returns (string memory _uintAsString) {\n        if (_i == 0) {\n            return \"0\";\n        }\n        uint j = _i;\n        uint len;\n        while (j != 0) {\n            len++;\n            j /= 10;\n        }\n        bytes memory bstr = new bytes(len);\n        uint k = len;\n        while (_i != 0) {\n            k = k-1;\n            uint8 temp = (48 + uint8(_i - _i / 10 * 10));\n            bytes1 b1 = bytes1(temp);\n            bstr[k] = b1;\n            _i /= 10;\n        }\n        return string(bstr);\n    }\n\n    function append(string memory a, string memory b) internal pure returns (string memory) {\n        return string(abi.encodePacked(a, b));\n    }\n\n    function getOwner() public view returns (address) {\n        return _owner;\n    }\n\n    function getDoctorId() internal returns (uint) {\n        return _doctorId++;\n    }\n\n    function getPrescriptionId() internal returns (uint) {\n        return _prescriptionId++;\n    }\n\n    function getUserType() view public returns (string memory) {\n        if (doctorAuthentification[msg.sender] == authentification.doctor) {\n            return \"doctor\";\n        }\n        if (pharmacyAuthentification[msg.sender] == authentification.pharmacy) {\n            return \"pharmacy\";\n        }\n        if (patientAuthentification[msg.sender] == authentification.patient) {\n            return \"patient\";\n        }\n        if(msg.sender == getOwner()){\n            return \"owner\";\n        }\n        return \"none\";\n    }\n\n    function addDoctor(address payable addr, string calldata name, string calldata speciality) external ownerOnly {\n        require(doctorAuthentification[addr] != authentification.doctor, \"This address is already defined as a doctor\");\n        require(pharmacyAuthentification[addr] != authentification.pharmacy, \"This address is already defined as a doctor\");\n        uint id = getDoctorId();\n        doctorIdMap[id].id = id;\n        doctorIdMap[id].speciality = speciality;\n        doctorIdMap[id].name = name;\n        doctorIdMap[id].doctorAddress = addr;\n        doctorIdMap[id].isValue = true;\n        doctorAddressMap[addr].id = id;\n        doctorAuthentification[addr] = authentification.doctor;\n    }\n\n    function addPharmacy(address addr, string calldata name) external ownerOnly {\n        require(pharmacyAuthentification[addr] != authentification.pharmacy, \"This address is already defined as a doctor\");\n        require(doctorAuthentification[addr] != authentification.doctor, \"This address is already defined as a doctor\");\n        uint id = getDoctorId();\n        pharmacyIdMap[id].id = id;\n        pharmacyIdMap[id].name = name;\n        pharmacyIdMap[id].pharmacyAddress = addr;\n        pharmacyIdMap[id].isValue = true;\n        pharmacyAddressMap[addr].id = id;\n        pharmacyAuthentification[addr] = authentification.pharmacy;\n    }\n\n    /**\n     * @dev problme: une personne mal-intentione pourrait lier un numro de scu ne lui appartenant pas  une addresse quelconque \n     */\n    function addPatient(uint numero_secu, address addr) external {\n        require(!patientNumSecuMap[numero_secu].isValue, \"This num secu is already defined as a patient\");\n        patientNumSecuMap[numero_secu].numero_secu = numero_secu;\n        patientNumSecuMap[numero_secu].isValue = true;\n        patientNumSecuMap[numero_secu].patientAddress = addr;\n        patientAuthentification[addr] = authentification.patient;\n    }\n\n    function addPrescription(uint amountAskedByDoctor, uint numero_secu, string calldata medicine, string calldata disease, string calldata frequency) external doctorOnly {\n        //require(msg.value == amountAskedByDoctor, append(\"Please match the asked value by the doctor: \",uint2str(amountAskedByDoctor)));\n        Doctor storage doctor = doctorAddressMap[msg.sender];\n        Patient storage patient = patientNumSecuMap[numero_secu];\n        uint prescriptionId = getPrescriptionId();\n        prescriptionIdMap[prescriptionId].id = prescriptionId;\n        prescriptionIdMap[prescriptionId].claimed = false;\n        prescriptionIdMap[prescriptionId].paid = false;\n        prescriptionIdMap[prescriptionId].patientId = numero_secu;\n        prescriptionIdMap[prescriptionId].doctorId = doctor.id;\n        prescriptionIdMap[prescriptionId].medicine = medicine;\n        prescriptionIdMap[prescriptionId].frequency = frequency;\n        prescriptionIdMap[prescriptionId].disease = disease;\n        prescriptionIdMap[prescriptionId].dueToDoctor = amountAskedByDoctor;\n        prescriptionIdMap[prescriptionId].startTimestamp = block.timestamp;\n        prescriptionIdMap[prescriptionId].endTimestamp = block.timestamp + 93 days;\n        emit Consultation(prescriptionIdMap[prescriptionId], patient, doctor, amountAskedByDoctor);\n    }\n\n    function payPrescription(uint prescriptionId) payable external patientOnly {\n        require(address(this).balance >= msg.value, \"Balance is not enough\");\n        require(!prescriptionIdMap[prescriptionId].paid, \"Prescription should not be paid\");\n        Prescription storage prescription = prescriptionIdMap[prescriptionId];\n        Doctor storage doctor = doctorIdMap[prescription.doctorId];\n        address payable doctorAddr = doctor.doctorAddress;\n        doctorAddr.transfer(msg.value);\n        emit DoctorPaid(msg.value, doctor.doctorAddress, msg.sender, prescription.doctorId);\n        prescriptionIdMap[prescriptionId].paid = true;\n    }\n\n    function claimPrescription(uint amountAskedByPharmacy, uint prescriptionId) external pharmacyOnly {\n        // require(prescriptionIdMap[prescriptionId].claimed == false, \"sinon\");\n        // set prescriptionIdMap[prescriptionId].claimed = true;\n        // emit MedicineGiven(...);\n    }\n\n    function _setOwner(address new_owner) private {\n        address old_owner = _owner;\n        _owner = new_owner;\n        emit DefineOwnership(old_owner, new_owner);\n    }\n\n    function _setDoctorId(uint index) private {\n        _doctorId = index;\n    }\n\n    function _setPharmacyId(uint index) private {\n        _pharmacyId = index;\n    }\n\n    function _setPrescriptionId(uint index) private {\n        _prescriptionId = index;\n    }\n    \n    event DefineOwnership(address indexed old_owner, address indexed new_owner);\n    event Consultation(Prescription prescription, Patient patient, Doctor doctor, uint amount);\n    event DoctorPaid(uint amount, address indexed doctorAddress, address indexed patientAddress, uint doctorId);\n    event RetrieveMedicaments(Patient patient, Pharmacy pharmacy, Prescription prescription);\n}",
  "sourcePath": "/Users/azerpas/school/6th/mastercamp/blockchain/contracts/Prescurity.sol",
  "compiler": {
    "name": "solc",
    "version": "0.5.16+commit.9c3226ce.Emscripten.clang"
  },
  "schemaVersion": "3.3.3",
  "updatedAt": "2021-07-01T09:09:21.132Z",
  "networkType": "ethereum",
  "devdoc": {
    "methods": {
      "addPatient(uint256,address)": {
        "details": "problme: une personne mal-intentione pourrait lier un numro de scu ne lui appartenant pas  une addresse quelconque "
      }
    },
    "title": "Prescription made by the doctor after a consultation"
  },
  "userdoc": {
    "methods": {}
  }
}