{
  "contractName": "Prescurity",
  "abi": [
    {
      "inputs": [],
      "payable": false,
      "stateMutability": "nonpayable",
      "type": "constructor"
    },
    {
      "anonymous": false,
      "inputs": [
        {
          "components": [
            {
              "internalType": "uint256",
              "name": "id",
              "type": "uint256"
            },
            {
              "internalType": "uint256",
              "name": "patientId",
              "type": "uint256"
            },
            {
              "internalType": "uint256",
              "name": "doctorId",
              "type": "uint256"
            },
            {
              "internalType": "string",
              "name": "medicine",
              "type": "string"
            },
            {
              "internalType": "string",
              "name": "disease",
              "type": "string"
            },
            {
              "internalType": "string",
              "name": "frequency",
              "type": "string"
            },
            {
              "internalType": "uint256",
              "name": "startTimestamp",
              "type": "uint256"
            },
            {
              "internalType": "uint256",
              "name": "endTimestamp",
              "type": "uint256"
            },
            {
              "internalType": "uint256",
              "name": "dueToDoctor",
              "type": "uint256"
            },
            {
              "internalType": "bool",
              "name": "claimed",
              "type": "bool"
            },
            {
              "internalType": "bool",
              "name": "paid",
              "type": "bool"
            }
          ],
          "indexed": false,
          "internalType": "struct Prescurity.Prescription",
          "name": "prescription",
          "type": "tuple"
        },
        {
          "components": [
            {
              "internalType": "uint256",
              "name": "numero_secu",
              "type": "uint256"
            },
            {
              "internalType": "address",
              "name": "patientAddress",
              "type": "address"
            },
            {
              "internalType": "uint256[]",
              "name": "prescriptionsIds",
              "type": "uint256[]"
            },
            {
              "internalType": "bool",
              "name": "isValue",
              "type": "bool"
            }
          ],
          "indexed": false,
          "internalType": "struct Prescurity.Patient",
          "name": "patient",
          "type": "tuple"
        },
        {
          "components": [
            {
              "internalType": "uint256",
              "name": "id",
              "type": "uint256"
            },
            {
              "internalType": "string",
              "name": "speciality",
              "type": "string"
            },
            {
              "internalType": "string",
              "name": "name",
              "type": "string"
            },
            {
              "internalType": "address payable",
              "name": "doctorAddress",
              "type": "address"
            },
            {
              "internalType": "uint256[]",
              "name": "prescriptionIds",
              "type": "uint256[]"
            },
            {
              "internalType": "bool",
              "name": "isValue",
              "type": "bool"
            }
          ],
          "indexed": false,
          "internalType": "struct Prescurity.Doctor",
          "name": "doctor",
          "type": "tuple"
        },
        {
          "indexed": false,
          "internalType": "uint256",
          "name": "amount",
          "type": "uint256"
        }
      ],
      "name": "Consultation",
      "type": "event"
    },
    {
      "anonymous": false,
      "inputs": [
        {
          "indexed": true,
          "internalType": "address",
          "name": "old_owner",
          "type": "address"
        },
        {
          "indexed": true,
          "internalType": "address",
          "name": "new_owner",
          "type": "address"
        }
      ],
      "name": "DefineOwnership",
      "type": "event"
    },
    {
      "anonymous": false,
      "inputs": [
        {
          "indexed": false,
          "internalType": "uint256",
          "name": "amount",
          "type": "uint256"
        },
        {
          "indexed": true,
          "internalType": "address",
          "name": "doctorAddress",
          "type": "address"
        },
        {
          "indexed": true,
          "internalType": "address",
          "name": "patientAddress",
          "type": "address"
        },
        {
          "indexed": false,
          "internalType": "uint256",
          "name": "doctorId",
          "type": "uint256"
        }
      ],
      "name": "DoctorPaid",
      "type": "event"
    },
    {
      "anonymous": false,
      "inputs": [
        {
          "components": [
            {
              "internalType": "uint256",
              "name": "id",
              "type": "uint256"
            },
            {
              "internalType": "uint256",
              "name": "patientId",
              "type": "uint256"
            },
            {
              "internalType": "uint256",
              "name": "doctorId",
              "type": "uint256"
            },
            {
              "internalType": "string",
              "name": "medicine",
              "type": "string"
            },
            {
              "internalType": "string",
              "name": "disease",
              "type": "string"
            },
            {
              "internalType": "string",
              "name": "frequency",
              "type": "string"
            },
            {
              "internalType": "uint256",
              "name": "startTimestamp",
              "type": "uint256"
            },
            {
              "internalType": "uint256",
              "name": "endTimestamp",
              "type": "uint256"
            },
            {
              "internalType": "uint256",
              "name": "dueToDoctor",
              "type": "uint256"
            },
            {
              "internalType": "bool",
              "name": "claimed",
              "type": "bool"
            },
            {
              "internalType": "bool",
              "name": "paid",
              "type": "bool"
            }
          ],
          "indexed": false,
          "internalType": "struct Prescurity.Prescription",
          "name": "prescription",
          "type": "tuple"
        },
        {
          "indexed": true,
          "internalType": "address",
          "name": "pharmaaddress",
          "type": "address"
        },
        {
          "components": [
            {
              "internalType": "uint256",
              "name": "numero_secu",
              "type": "uint256"
            },
            {
              "internalType": "address",
              "name": "patientAddress",
              "type": "address"
            },
            {
              "internalType": "uint256[]",
              "name": "prescriptionsIds",
              "type": "uint256[]"
            },
            {
              "internalType": "bool",
              "name": "isValue",
              "type": "bool"
            }
          ],
          "indexed": false,
          "internalType": "struct Prescurity.Patient",
          "name": "patient",
          "type": "tuple"
        }
      ],
      "name": "PharmaClaimed",
      "type": "event"
    },
    {
      "anonymous": false,
      "inputs": [
        {
          "components": [
            {
              "internalType": "uint256",
              "name": "numero_secu",
              "type": "uint256"
            },
            {
              "internalType": "address",
              "name": "patientAddress",
              "type": "address"
            },
            {
              "internalType": "uint256[]",
              "name": "prescriptionsIds",
              "type": "uint256[]"
            },
            {
              "internalType": "bool",
              "name": "isValue",
              "type": "bool"
            }
          ],
          "indexed": false,
          "internalType": "struct Prescurity.Patient",
          "name": "patient",
          "type": "tuple"
        },
        {
          "components": [
            {
              "internalType": "uint256",
              "name": "id",
              "type": "uint256"
            },
            {
              "internalType": "string",
              "name": "name",
              "type": "string"
            },
            {
              "internalType": "address",
              "name": "pharmacyAddress",
              "type": "address"
            },
            {
              "internalType": "bool",
              "name": "isValue",
              "type": "bool"
            }
          ],
          "indexed": false,
          "internalType": "struct Prescurity.Pharmacy",
          "name": "pharmacy",
          "type": "tuple"
        },
        {
          "components": [
            {
              "internalType": "uint256",
              "name": "id",
              "type": "uint256"
            },
            {
              "internalType": "uint256",
              "name": "patientId",
              "type": "uint256"
            },
            {
              "internalType": "uint256",
              "name": "doctorId",
              "type": "uint256"
            },
            {
              "internalType": "string",
              "name": "medicine",
              "type": "string"
            },
            {
              "internalType": "string",
              "name": "disease",
              "type": "string"
            },
            {
              "internalType": "string",
              "name": "frequency",
              "type": "string"
            },
            {
              "internalType": "uint256",
              "name": "startTimestamp",
              "type": "uint256"
            },
            {
              "internalType": "uint256",
              "name": "endTimestamp",
              "type": "uint256"
            },
            {
              "internalType": "uint256",
              "name": "dueToDoctor",
              "type": "uint256"
            },
            {
              "internalType": "bool",
              "name": "claimed",
              "type": "bool"
            },
            {
              "internalType": "bool",
              "name": "paid",
              "type": "bool"
            }
          ],
          "indexed": false,
          "internalType": "struct Prescurity.Prescription",
          "name": "prescription",
          "type": "tuple"
        }
      ],
      "name": "RetrieveMedicaments",
      "type": "event"
    },
    {
      "anonymous": false,
      "inputs": [
        {
          "components": [
            {
              "internalType": "uint256",
              "name": "id",
              "type": "uint256"
            },
            {
              "internalType": "uint256",
              "name": "patientId",
              "type": "uint256"
            },
            {
              "internalType": "uint256",
              "name": "doctorId",
              "type": "uint256"
            },
            {
              "internalType": "string",
              "name": "medicine",
              "type": "string"
            },
            {
              "internalType": "string",
              "name": "disease",
              "type": "string"
            },
            {
              "internalType": "string",
              "name": "frequency",
              "type": "string"
            },
            {
              "internalType": "uint256",
              "name": "startTimestamp",
              "type": "uint256"
            },
            {
              "internalType": "uint256",
              "name": "endTimestamp",
              "type": "uint256"
            },
            {
              "internalType": "uint256",
              "name": "dueToDoctor",
              "type": "uint256"
            },
            {
              "internalType": "bool",
              "name": "claimed",
              "type": "bool"
            },
            {
              "internalType": "bool",
              "name": "paid",
              "type": "bool"
            }
          ],
          "indexed": false,
          "internalType": "struct Prescurity.Prescription[]",
          "name": "prescription",
          "type": "tuple[]"
        }
      ],
      "name": "prescriptionsShow",
      "type": "event"
    },
    {
      "constant": true,
      "inputs": [],
      "name": "getOwner",
      "outputs": [
        {
          "internalType": "address",
          "name": "",
          "type": "address"
        }
      ],
      "payable": false,
      "stateMutability": "view",
      "type": "function"
    },
    {
      "constant": true,
      "inputs": [],
      "name": "getUserType",
      "outputs": [
        {
          "internalType": "string",
          "name": "",
          "type": "string"
        }
      ],
      "payable": false,
      "stateMutability": "view",
      "type": "function"
    },
    {
      "constant": false,
      "inputs": [
        {
          "internalType": "address payable",
          "name": "addr",
          "type": "address"
        },
        {
          "internalType": "string",
          "name": "name",
          "type": "string"
        },
        {
          "internalType": "string",
          "name": "speciality",
          "type": "string"
        }
      ],
      "name": "addDoctor",
      "outputs": [],
      "payable": false,
      "stateMutability": "nonpayable",
      "type": "function"
    },
    {
      "constant": false,
      "inputs": [
        {
          "internalType": "address",
          "name": "addr",
          "type": "address"
        },
        {
          "internalType": "string",
          "name": "name",
          "type": "string"
        }
      ],
      "name": "addPharmacy",
      "outputs": [],
      "payable": false,
      "stateMutability": "nonpayable",
      "type": "function"
    },
    {
      "constant": false,
      "inputs": [
        {
          "internalType": "uint256",
          "name": "numero_secu",
          "type": "uint256"
        },
        {
          "internalType": "address",
          "name": "addr",
          "type": "address"
        }
      ],
      "name": "addPatient",
      "outputs": [],
      "payable": false,
      "stateMutability": "nonpayable",
      "type": "function"
    },
    {
      "constant": false,
      "inputs": [
        {
          "internalType": "uint256",
          "name": "amountAskedByDoctor",
          "type": "uint256"
        },
        {
          "internalType": "uint256",
          "name": "numero_secu",
          "type": "uint256"
        },
        {
          "internalType": "string",
          "name": "medicine",
          "type": "string"
        },
        {
          "internalType": "string",
          "name": "disease",
          "type": "string"
        },
        {
          "internalType": "string",
          "name": "frequency",
          "type": "string"
        }
      ],
      "name": "addPrescription",
      "outputs": [],
      "payable": false,
      "stateMutability": "nonpayable",
      "type": "function"
    },
    {
      "constant": false,
      "inputs": [
        {
          "internalType": "uint256",
          "name": "prescriptionId",
          "type": "uint256"
        }
      ],
      "name": "payPrescription",
      "outputs": [],
      "payable": true,
      "stateMutability": "payable",
      "type": "function"
    },
    {
      "constant": false,
      "inputs": [
        {
          "internalType": "uint256",
          "name": "prescriptionId",
          "type": "uint256"
        }
      ],
      "name": "claimPrescription",
      "outputs": [],
      "payable": false,
      "stateMutability": "nonpayable",
      "type": "function"
    },
    {
      "constant": true,
      "inputs": [
        {
          "internalType": "uint256",
          "name": "numSecuPatient",
          "type": "uint256"
        }
      ],
      "name": "showPrescriptionPatient",
      "outputs": [
        {
          "components": [
            {
              "internalType": "uint256",
              "name": "id",
              "type": "uint256"
            },
            {
              "internalType": "uint256",
              "name": "patientId",
              "type": "uint256"
            },
            {
              "internalType": "uint256",
              "name": "doctorId",
              "type": "uint256"
            },
            {
              "internalType": "string",
              "name": "medicine",
              "type": "string"
            },
            {
              "internalType": "string",
              "name": "disease",
              "type": "string"
            },
            {
              "internalType": "string",
              "name": "frequency",
              "type": "string"
            },
            {
              "internalType": "uint256",
              "name": "startTimestamp",
              "type": "uint256"
            },
            {
              "internalType": "uint256",
              "name": "endTimestamp",
              "type": "uint256"
            },
            {
              "internalType": "uint256",
              "name": "dueToDoctor",
              "type": "uint256"
            },
            {
              "internalType": "bool",
              "name": "claimed",
              "type": "bool"
            },
            {
              "internalType": "bool",
              "name": "paid",
              "type": "bool"
            }
          ],
          "internalType": "struct Prescurity.Prescription[]",
          "name": "",
          "type": "tuple[]"
        }
      ],
      "payable": false,
      "stateMutability": "view",
      "type": "function"
    },
    {
      "constant": true,
      "inputs": [
        {
          "internalType": "uint256",
          "name": "idprescription",
          "type": "uint256"
        }
      ],
      "name": "getPrescription",
      "outputs": [
        {
          "components": [
            {
              "internalType": "uint256",
              "name": "id",
              "type": "uint256"
            },
            {
              "internalType": "uint256",
              "name": "patientId",
              "type": "uint256"
            },
            {
              "internalType": "uint256",
              "name": "doctorId",
              "type": "uint256"
            },
            {
              "internalType": "string",
              "name": "medicine",
              "type": "string"
            },
            {
              "internalType": "string",
              "name": "disease",
              "type": "string"
            },
            {
              "internalType": "string",
              "name": "frequency",
              "type": "string"
            },
            {
              "internalType": "uint256",
              "name": "startTimestamp",
              "type": "uint256"
            },
            {
              "internalType": "uint256",
              "name": "endTimestamp",
              "type": "uint256"
            },
            {
              "internalType": "uint256",
              "name": "dueToDoctor",
              "type": "uint256"
            },
            {
              "internalType": "bool",
              "name": "claimed",
              "type": "bool"
            },
            {
              "internalType": "bool",
              "name": "paid",
              "type": "bool"
            }
          ],
          "internalType": "struct Prescurity.Prescription",
          "name": "",
          "type": "tuple"
        }
      ],
      "payable": false,
      "stateMutability": "view",
      "type": "function"
    },
    {
      "constant": true,
      "inputs": [
        {
          "internalType": "uint256",
          "name": "iddoctor",
          "type": "uint256"
        }
      ],
      "name": "getDoctor",
      "outputs": [
        {
          "components": [
            {
              "internalType": "uint256",
              "name": "id",
              "type": "uint256"
            },
            {
              "internalType": "string",
              "name": "speciality",
              "type": "string"
            },
            {
              "internalType": "string",
              "name": "name",
              "type": "string"
            },
            {
              "internalType": "address payable",
              "name": "doctorAddress",
              "type": "address"
            },
            {
              "internalType": "uint256[]",
              "name": "prescriptionIds",
              "type": "uint256[]"
            },
            {
              "internalType": "bool",
              "name": "isValue",
              "type": "bool"
            }
          ],
          "internalType": "struct Prescurity.Doctor",
          "name": "",
          "type": "tuple"
        }
      ],
      "payable": false,
      "stateMutability": "view",
      "type": "function"
    },
    {
      "constant": true,
      "inputs": [
        {
          "internalType": "uint256",
          "name": "numPatient",
          "type": "uint256"
        }
      ],
      "name": "getPatient",
      "outputs": [
        {
          "components": [
            {
              "internalType": "uint256",
              "name": "numero_secu",
              "type": "uint256"
            },
            {
              "internalType": "address",
              "name": "patientAddress",
              "type": "address"
            },
            {
              "internalType": "uint256[]",
              "name": "prescriptionsIds",
              "type": "uint256[]"
            },
            {
              "internalType": "bool",
              "name": "isValue",
              "type": "bool"
            }
          ],
          "internalType": "struct Prescurity.Patient",
          "name": "",
          "type": "tuple"
        }
      ],
      "payable": false,
      "stateMutability": "view",
      "type": "function"
    },
    {
      "constant": true,
      "inputs": [
        {
          "internalType": "address",
          "name": "patientaddress",
          "type": "address"
        }
      ],
      "name": "getPatientAddress",
      "outputs": [
        {
          "components": [
            {
              "internalType": "uint256",
              "name": "numero_secu",
              "type": "uint256"
            },
            {
              "internalType": "address",
              "name": "patientAddress",
              "type": "address"
            },
            {
              "internalType": "uint256[]",
              "name": "prescriptionsIds",
              "type": "uint256[]"
            },
            {
              "internalType": "bool",
              "name": "isValue",
              "type": "bool"
            }
          ],
          "internalType": "struct Prescurity.Patient",
          "name": "",
          "type": "tuple"
        }
      ],
      "payable": false,
      "stateMutability": "view",
      "type": "function"
    }
  ],
  "bytecode": "0x60806040523480156200001157600080fd5b5062000023336200005f60201b60201c565b6200003560016200012360201b60201c565b6200004760016200012d60201b60201c565b6200005960016200013760201b60201c565b62000141565b60008060009054906101000a900473ffffffffffffffffffffffffffffffffffffffff169050816000806101000a81548173ffffffffffffffffffffffffffffffffffffffff021916908373ffffffffffffffffffffffffffffffffffffffff1602179055508173ffffffffffffffffffffffffffffffffffffffff168173ffffffffffffffffffffffffffffffffffffffff167f98581b7da302c99fda82be041a3e5b468220ad63d7ed673d0b2b1de92dfa4a9660405160405180910390a35050565b8060018190555050565b8060028190555050565b8060038190555050565b6138d380620001516000396000f3fe6080604052600436106100c25760003560e01c80636f16af101161007f5780639db683c8116100595780639db683c81461028c578063bcbb4935146102b5578063df0acd40146102de578063f934c88d146102fa576100c2565b80636f16af10146101e75780637d3a679614610224578063893d20e814610261576100c2565b80630709e284146100c757806334b78998146100f05780633abeaa47146101195780634199007714610142578063681fcac31461016d57806369b0a72d146101aa575b600080fd5b3480156100d357600080fd5b506100ee60048036036100e991908101906124f8565b610337565b005b3480156100fc57600080fd5b5061011760048036036101129190810190612417565b610501565b005b34801561012557600080fd5b50610140600480360361013b91908101906124a0565b61086e565b005b34801561014e57600080fd5b50610157610bb3565b6040516101649190613359565b60405180910390f35b34801561017957600080fd5b50610194600480360361018f91908101906123ee565b610e60565b6040516101a191906134bd565b60405180910390f35b3480156101b657600080fd5b506101d160048036036101cc91908101906124f8565b610f92565b6040516101de919061349b565b60405180910390f35b3480156101f357600080fd5b5061020e600480360361020991908101906124f8565b6111dc565b60405161021b91906134df565b60405180910390f35b34801561023057600080fd5b5061024b600480360361024691908101906124f8565b61150d565b60405161025891906134bd565b60405180910390f35b34801561026d57600080fd5b50610276611613565b604051610283919061331c565b60405180910390f35b34801561029857600080fd5b506102b360048036036102ae9190810190612521565b61163c565b005b3480156102c157600080fd5b506102dc60048036036102d7919081019061255d565b6117eb565b005b6102f860048036036102f391908101906124f8565b611b2f565b005b34801561030657600080fd5b50610321600480360361031c91908101906124f8565b611de7565b60405161032e9190613337565b60405180910390f35b60038081111561034357fe5b600c60003373ffffffffffffffffffffffffffffffffffffffff1673ffffffffffffffffffffffffffffffffffffffff16815260200190815260200160002060009054906101000a900460ff16600381111561039b57fe5b14156104c35760001515600d600083815260200190815260200160002060090160009054906101000a900460ff1615151461040b576040517f08c379a00000000000000000000000000000000000000000000000000000000081526004016104029061337b565b60405180910390fd5b6000600d600083815260200190815260200160002090506000600460008360010154815260200190815260200160002090506001600d600085815260200190815260200160002060090160006101000a81548160ff0219169083151502179055503373ffffffffffffffffffffffffffffffffffffffff167fd57bcd110700c211647ef97f8252b0f2f6add603da28b029a0c53a000b1ea8ee83836040516104b4929190613501565b60405180910390a250506104fe565b6040517f08c379a00000000000000000000000000000000000000000000000000000000081526004016104f59061343b565b60405180910390fd5b50565b3373ffffffffffffffffffffffffffffffffffffffff16610520611613565b73ffffffffffffffffffffffffffffffffffffffff16141561082c576002600381111561054957fe5b600960008773ffffffffffffffffffffffffffffffffffffffff1673ffffffffffffffffffffffffffffffffffffffff16815260200190815260200160002060009054906101000a900460ff1660038111156105a157fe5b14156105e2576040517f08c379a00000000000000000000000000000000000000000000000000000000081526004016105d9906133fb565b60405180910390fd5b6003808111156105ee57fe5b600c60008773ffffffffffffffffffffffffffffffffffffffff1673ffffffffffffffffffffffffffffffffffffffff16815260200190815260200160002060009054906101000a900460ff16600381111561064657fe5b1415610687576040517f08c379a000000000000000000000000000000000000000000000000000000000815260040161067e906133fb565b60405180910390fd5b6000610691612146565b905080600760008381526020019081526020016000206000018190555082826007600084815260200190815260200160002060010191906106d3929190612176565b5084846007600084815260200190815260200160002060020191906106f9929190612176565b50856007600083815260200190815260200160002060030160006101000a81548173ffffffffffffffffffffffffffffffffffffffff021916908373ffffffffffffffffffffffffffffffffffffffff16021790555060016007600083815260200190815260200160002060050160006101000a81548160ff02191690831515021790555080600860008873ffffffffffffffffffffffffffffffffffffffff1673ffffffffffffffffffffffffffffffffffffffff168152602001908152602001600020600001819055506002600960008873ffffffffffffffffffffffffffffffffffffffff1673ffffffffffffffffffffffffffffffffffffffff16815260200190815260200160002060006101000a81548160ff0219169083600381111561082157fe5b021790555050610867565b6040517f08c379a000000000000000000000000000000000000000000000000000000000815260040161085e906133bb565b60405180910390fd5b5050505050565b3373ffffffffffffffffffffffffffffffffffffffff1661088d611613565b73ffffffffffffffffffffffffffffffffffffffff161415610b73576003808111156108b557fe5b600c60008573ffffffffffffffffffffffffffffffffffffffff1673ffffffffffffffffffffffffffffffffffffffff16815260200190815260200160002060009054906101000a900460ff16600381111561090d57fe5b141561094e576040517f08c379a0000000000000000000000000000000000000000000000000000000008152600401610945906133fb565b60405180910390fd5b6002600381111561095b57fe5b600960008573ffffffffffffffffffffffffffffffffffffffff1673ffffffffffffffffffffffffffffffffffffffff16815260200190815260200160002060009054906101000a900460ff1660038111156109b357fe5b14156109f4576040517f08c379a00000000000000000000000000000000000000000000000000000000081526004016109eb906133fb565b60405180910390fd5b60006109fe612146565b905080600a6000838152602001908152602001600020600001819055508282600a60008481526020019081526020016000206001019190610a40929190612176565b5083600a600083815260200190815260200160002060020160006101000a81548173ffffffffffffffffffffffffffffffffffffffff021916908373ffffffffffffffffffffffffffffffffffffffff1602179055506001600a600083815260200190815260200160002060020160146101000a81548160ff02191690831515021790555080600b60008673ffffffffffffffffffffffffffffffffffffffff1673ffffffffffffffffffffffffffffffffffffffff168152602001908152602001600020600001819055506003600c60008673ffffffffffffffffffffffffffffffffffffffff1673ffffffffffffffffffffffffffffffffffffffff16815260200190815260200160002060006101000a81548160ff02191690836003811115610b6857fe5b021790555050610bae565b6040517f08c379a0000000000000000000000000000000000000000000000000000000008152600401610ba5906133bb565b60405180910390fd5b505050565b606060026003811115610bc257fe5b600960003373ffffffffffffffffffffffffffffffffffffffff1673ffffffffffffffffffffffffffffffffffffffff16815260200190815260200160002060009054906101000a900460ff166003811115610c1a57fe5b1415610c5d576040518060400160405280600681526020017f646f63746f7200000000000000000000000000000000000000000000000000008152509050610e5d565b600380811115610c6957fe5b600c60003373ffffffffffffffffffffffffffffffffffffffff1673ffffffffffffffffffffffffffffffffffffffff16815260200190815260200160002060009054906101000a900460ff166003811115610cc157fe5b1415610d04576040518060400160405280600881526020017f706861726d6163790000000000000000000000000000000000000000000000008152509050610e5d565b60016003811115610d1157fe5b600660003373ffffffffffffffffffffffffffffffffffffffff1673ffffffffffffffffffffffffffffffffffffffff16815260200190815260200160002060009054906101000a900460ff166003811115610d6957fe5b1415610dac576040518060400160405280600781526020017f70617469656e74000000000000000000000000000000000000000000000000008152509050610e5d565b610db4611613565b73ffffffffffffffffffffffffffffffffffffffff163373ffffffffffffffffffffffffffffffffffffffff161415610e24576040518060400160405280600581526020017f6f776e65720000000000000000000000000000000000000000000000000000008152509050610e5d565b6040518060400160405280600481526020017f6e6f6e650000000000000000000000000000000000000000000000000000000081525090505b90565b610e686121f6565b6000600560008473ffffffffffffffffffffffffffffffffffffffff1673ffffffffffffffffffffffffffffffffffffffff168152602001908152602001600020905080604051806080016040529081600082015481526020016001820160009054906101000a900473ffffffffffffffffffffffffffffffffffffffff1673ffffffffffffffffffffffffffffffffffffffff1673ffffffffffffffffffffffffffffffffffffffff16815260200160028201805480602002602001604051908101604052809291908181526020018280548015610f6657602002820191906000526020600020905b815481526020019060010190808311610f52575b505050505081526020016003820160009054906101000a900460ff161515151581525050915050919050565b610f9a612236565b6000600760008481526020019081526020016000209050806040518060c001604052908160008201548152602001600182018054600181600116156101000203166002900480601f0160208091040260200160405190810160405280929190818152602001828054600181600116156101000203166002900480156110605780601f1061103557610100808354040283529160200191611060565b820191906000526020600020905b81548152906001019060200180831161104357829003601f168201915b50505050508152602001600282018054600181600116156101000203166002900480601f0160208091040260200160405190810160405280929190818152602001828054600181600116156101000203166002900480156111025780601f106110d757610100808354040283529160200191611102565b820191906000526020600020905b8154815290600101906020018083116110e557829003601f168201915b505050505081526020016003820160009054906101000a900473ffffffffffffffffffffffffffffffffffffffff1673ffffffffffffffffffffffffffffffffffffffff1673ffffffffffffffffffffffffffffffffffffffff168152602001600482018054806020026020016040519081016040528092919081815260200182805480156111b057602002820191906000526020600020905b81548152602001906001019080831161119c575b505050505081526020016005820160009054906101000a900460ff161515151581525050915050919050565b6111e4612284565b600260038111156111f157fe5b600960003373ffffffffffffffffffffffffffffffffffffffff1673ffffffffffffffffffffffffffffffffffffffff16815260200190815260200160002060009054906101000a900460ff16600381111561124957fe5b14156114cd57600d600083815260200190815260200160002060405180610160016040529081600082015481526020016001820154815260200160028201548152602001600382018054600181600116156101000203166002900480601f0160208091040260200160405190810160405280929190818152602001828054600181600116156101000203166002900480156113255780601f106112fa57610100808354040283529160200191611325565b820191906000526020600020905b81548152906001019060200180831161130857829003601f168201915b50505050508152602001600482018054600181600116156101000203166002900480601f0160208091040260200160405190810160405280929190818152602001828054600181600116156101000203166002900480156113c75780601f1061139c576101008083540402835291602001916113c7565b820191906000526020600020905b8154815290600101906020018083116113aa57829003601f168201915b50505050508152602001600582018054600181600116156101000203166002900480601f0160208091040260200160405190810160405280929190818152602001828054600181600116156101000203166002900480156114695780601f1061143e57610100808354040283529160200191611469565b820191906000526020600020905b81548152906001019060200180831161144c57829003601f168201915b505050505081526020016006820154815260200160078201548152602001600882015481526020016009820160009054906101000a900460ff161515151581526020016009820160019054906101000a900460ff1615151515815250509050611508565b6040517f08c379a00000000000000000000000000000000000000000000000000000000081526004016114ff9061341b565b60405180910390fd5b919050565b6115156121f6565b600060046000848152602001908152602001600020905080604051806080016040529081600082015481526020016001820160009054906101000a900473ffffffffffffffffffffffffffffffffffffffff1673ffffffffffffffffffffffffffffffffffffffff1673ffffffffffffffffffffffffffffffffffffffff168152602001600282018054806020026020016040519081016040528092919081815260200182805480156115e757602002820191906000526020600020905b8154815260200190600101908083116115d3575b505050505081526020016003820160009054906101000a900460ff161515151581525050915050919050565b60008060009054906101000a900473ffffffffffffffffffffffffffffffffffffffff16905090565b6004600083815260200190815260200160002060030160009054906101000a900460ff16156116a0576040517f08c379a0000000000000000000000000000000000000000000000000000000008152600401611697906133db565b60405180910390fd5b81600460008481526020019081526020016000206000018190555060016004600084815260200190815260200160002060030160006101000a81548160ff021916908315150217905550806004600084815260200190815260200160002060010160006101000a81548173ffffffffffffffffffffffffffffffffffffffff021916908373ffffffffffffffffffffffffffffffffffffffff16021790555081600560008373ffffffffffffffffffffffffffffffffffffffff1673ffffffffffffffffffffffffffffffffffffffff168152602001908152602001600020600001819055506001600660008373ffffffffffffffffffffffffffffffffffffffff1673ffffffffffffffffffffffffffffffffffffffff16815260200190815260200160002060006101000a81548160ff021916908360038111156117e257fe5b02179055505050565b600260038111156117f857fe5b600960003373ffffffffffffffffffffffffffffffffffffffff1673ffffffffffffffffffffffffffffffffffffffff16815260200190815260200160002060009054906101000a900460ff16600381111561185057fe5b1415611aea576000600860003373ffffffffffffffffffffffffffffffffffffffff1673ffffffffffffffffffffffffffffffffffffffff16815260200190815260200160002090506000600460008a8152602001908152602001600020905060006118ba61215e565b9050816002018190806001815401808255809150509060018203906000526020600020016000909192909190915055508260040181908060018154018082558091505090600182039060005260206000200160009091929091909150555080600d6000838152602001908152602001600020600001819055506000600d600083815260200190815260200160002060090160006101000a81548160ff0219169083151502179055506000600d600083815260200190815260200160002060090160016101000a81548160ff02191690831515021790555089600d6000838152602001908152602001600020600101819055508260000154600d6000838152602001908152602001600020600201819055508888600d600084815260200190815260200160002060030191906119f0929190612176565b508484600d60008481526020019081526020016000206005019190611a16929190612176565b508686600d60008481526020019081526020016000206004019190611a3c929190612176565b508a600d60008381526020019081526020016000206008018190555042600d600083815260200190815260200160002060060181905550627a9b804201600d6000838152602001908152602001600020600701819055507fa4d50c5fdd7b30fe77465e274d38f46d4892023d34f1da500443eb1a9a6b42d6600d600083815260200190815260200160002083858e604051611ada9493929190613538565b60405180910390a1505050611b25565b6040517f08c379a0000000000000000000000000000000000000000000000000000000008152600401611b1c9061341b565b60405180910390fd5b5050505050505050565b60016003811115611b3c57fe5b600660003373ffffffffffffffffffffffffffffffffffffffff1673ffffffffffffffffffffffffffffffffffffffff16815260200190815260200160002060009054906101000a900460ff166003811115611b9457fe5b1415611da95734471015611bdd576040517f08c379a0000000000000000000000000000000000000000000000000000000008152600401611bd49061347b565b60405180910390fd5b600d600082815260200190815260200160002060090160019054906101000a900460ff1615611c41576040517f08c379a0000000000000000000000000000000000000000000000000000000008152600401611c389061345b565b60405180910390fd5b6000600d6000838152602001908152602001600020905060006007600083600201548152602001908152602001600020905060008160030160009054906101000a900473ffffffffffffffffffffffffffffffffffffffff1690508073ffffffffffffffffffffffffffffffffffffffff166108fc349081150290604051600060405180830381858888f19350505050158015611ce2573d6000803e3d6000fd5b503373ffffffffffffffffffffffffffffffffffffffff168260030160009054906101000a900473ffffffffffffffffffffffffffffffffffffffff1673ffffffffffffffffffffffffffffffffffffffff167fc063efac985b8a228415ff3bb4f0766a3108513fbb464fe953d78d6543614bf3348660020154604051611d6a929190613592565b60405180910390a36001600d600086815260200190815260200160002060090160016101000a81548160ff021916908315150217905550505050611de4565b6040517f08c379a0000000000000000000000000000000000000000000000000000000008152600401611ddb9061339b565b60405180910390fd5b50565b60606000600460008481526020019081526020016000209050600060059050600582600201805490501015611e2157816002018054905090505b600082600201805490509050606082604051908082528060200260200182016040528015611e6957816020015b611e566122e2565b815260200190600190039081611e4e5790505b50905060008090505b83811015612139576000600d60008760020184600188030381548110611e9457fe5b9060005260206000200154815260200190815260200160002090508060405180610160016040529081600082015481526020016001820154815260200160028201548152602001600382018054600181600116156101000203166002900480601f016020809104026020016040519081016040528092919081815260200182805460018160011615610100020316600290048015611f735780601f10611f4857610100808354040283529160200191611f73565b820191906000526020600020905b815481529060010190602001808311611f5657829003601f168201915b50505050508152602001600482018054600181600116156101000203166002900480601f0160208091040260200160405190810160405280929190818152602001828054600181600116156101000203166002900480156120155780601f10611fea57610100808354040283529160200191612015565b820191906000526020600020905b815481529060010190602001808311611ff857829003601f168201915b50505050508152602001600582018054600181600116156101000203166002900480601f0160208091040260200160405190810160405280929190818152602001828054600181600116156101000203166002900480156120b75780601f1061208c576101008083540402835291602001916120b7565b820191906000526020600020905b81548152906001019060200180831161209a57829003601f168201915b505050505081526020016006820154815260200160078201548152602001600882015481526020016009820160009054906101000a900460ff161515151581526020016009820160019054906101000a900460ff16151515158152505083838151811061212057fe5b6020026020010181905250508080600101915050611e72565b5080945050505050919050565b60006001600081548092919060010191905055905090565b60006003600081548092919060010191905055905090565b828054600181600116156101000203166002900490600052602060002090601f016020900481019282601f106121b757803560ff19168380011785556121e5565b828001600101855582156121e5579182015b828111156121e45782358255916020019190600101906121c9565b5b5090506121f29190612340565b5090565b604051806080016040528060008152602001600073ffffffffffffffffffffffffffffffffffffffff168152602001606081526020016000151581525090565b6040518060c00160405280600081526020016060815260200160608152602001600073ffffffffffffffffffffffffffffffffffffffff168152602001606081526020016000151581525090565b6040518061016001604052806000815260200160008152602001600081526020016060815260200160608152602001606081526020016000815260200160008152602001600081526020016000151581526020016000151581525090565b6040518061016001604052806000815260200160008152602001600081526020016060815260200160608152602001606081526020016000815260200160008152602001600081526020016000151581526020016000151581525090565b61236291905b8082111561235e576000816000905550600101612346565b5090565b90565b6000813590506123748161384b565b92915050565b60008135905061238981613862565b92915050565b60008083601f8401126123a157600080fd5b8235905067ffffffffffffffff8111156123ba57600080fd5b6020830191508360018202830111156123d257600080fd5b9250929050565b6000813590506123e881613879565b92915050565b60006020828403121561240057600080fd5b600061240e84828501612365565b91505092915050565b60008060008060006060868803121561242f57600080fd5b600061243d8882890161237a565b955050602086013567ffffffffffffffff81111561245a57600080fd5b6124668882890161238f565b9450945050604086013567ffffffffffffffff81111561248557600080fd5b6124918882890161238f565b92509250509295509295909350565b6000806000604084860312156124b557600080fd5b60006124c386828701612365565b935050602084013567ffffffffffffffff8111156124e057600080fd5b6124ec8682870161238f565b92509250509250925092565b60006020828403121561250a57600080fd5b6000612518848285016123d9565b91505092915050565b6000806040838503121561253457600080fd5b6000612542858286016123d9565b925050602061255385828601612365565b9150509250929050565b60008060008060008060008060a0898b03121561257957600080fd5b60006125878b828c016123d9565b98505060206125988b828c016123d9565b975050604089013567ffffffffffffffff8111156125b557600080fd5b6125c18b828c0161238f565b9650965050606089013567ffffffffffffffff8111156125e057600080fd5b6125ec8b828c0161238f565b9450945050608089013567ffffffffffffffff81111561260b57600080fd5b6126178b828c0161238f565b92509250509295985092959890939650565b60006126358383612f6d565b905092915050565b600061264983836132fe565b60208301905092915050565b61265e81613710565b82525050565b61266d816136fe565b82525050565b61267c816136fe565b82525050565b600061268d82613605565b6126978185613663565b9350836020820285016126a9856135bb565b8060005b858110156126e557848403895281516126c68582612629565b94506126d18361363c565b925060208a019950506001810190506126ad565b50829750879550505050505092915050565b600061270282613610565b61270c8185613674565b9350612717836135cb565b8060005b8381101561274857815161272f888261263d565b975061273a83613649565b92505060018101905061271b565b5085935050505092915050565b60006127608261361b565b61276a8185613674565b9350612775836135db565b8060005b838110156127ad5761278a8261380d565b612794888261263d565b975061279f83613656565b925050600181019050612779565b5085935050505092915050565b6127c381613722565b82525050565b60006127d482613631565b6127de8185613696565b93506127ee818560208601613758565b6127f781613820565b840191505092915050565b600061280d82613626565b6128178185613685565b9350612827818560208601613758565b61283081613820565b840191505092915050565b600081546001811660008114612858576001811461287e576128c2565b607f60028304166128698187613685565b955060ff1983168652602086019350506128c2565b6002820461288c8187613685565b9550612897856135f0565b60005b828110156128b95781548189015260018201915060208101905061289a565b80880195505050505b505092915050565b60006128d7602383613696565b91507f54686973207072657363697074696f6e20697320616c726561647920636c616960008301527f6d656400000000000000000000000000000000000000000000000000000000006020830152604082019050919050565b600061293d602f83613696565b91507f536f7272792c20746869732066756e6374696f6e20697320726573657276656460008301527f20746f207468652070617469656e7400000000000000000000000000000000006020830152604082019050919050565b60006129a3604383613696565b91507f536f7272792c20746869732066756e6374696f6e20697320726573657276656460008301527f20746f20746865206f776e6572206f662074686520736d61727420636f6e747260208301527f61637400000000000000000000000000000000000000000000000000000000006040830152606082019050919050565b6000612a2f602d83613696565b91507f54686973206e756d207365637520697320616c726561647920646566696e656460008301527f20617320612070617469656e74000000000000000000000000000000000000006020830152604082019050919050565b6000612a95602b83613696565b91507f54686973206164647265737320697320616c726561647920646566696e65642060008301527f6173206120646f63746f720000000000000000000000000000000000000000006020830152604082019050919050565b6000612afb602e83613696565b91507f536f7272792c20746869732066756e6374696f6e20697320726573657276656460008301527f20746f2074686520646f63746f720000000000000000000000000000000000006020830152604082019050919050565b6000612b61603083613696565b91507f536f7272792c20746869732066756e6374696f6e20697320726573657276656460008301527f20746f2074686520706861726d616379000000000000000000000000000000006020830152604082019050919050565b6000612bc7601f83613696565b91507f507265736372697074696f6e2073686f756c64206e6f742062652070616964006000830152602082019050919050565b6000612c07601583613696565b91507f42616c616e6365206973206e6f7420656e6f75676800000000000000000000006000830152602082019050919050565b600060c083016000830151612c5260008601826132fe565b5060208301518482036020860152612c6a8282612802565b91505060408301518482036040860152612c848282612802565b9150506060830151612c996060860182612655565b5060808301518482036080860152612cb182826126f7565b91505060a0830151612cc660a08601826127ba565b508091505092915050565b600060c083016000808401549050612ce8816137d9565b612cf560008701826132fe565b50600184018583036020870152612d0c838261283b565b925050600284018583036040870152612d25838261283b565b92505060038401549050612d38816137a5565b612d456060870182612655565b50600484018583036080870152612d5c8382612755565b92505060058401549050612d6f816137bf565b612d7c60a08701826127ba565b50819250505092915050565b6000608083016000830151612da060008601826132fe565b506020830151612db36020860182612664565b5060408301518482036040860152612dcb82826126f7565b9150506060830151612de060608601826127ba565b508091505092915050565b6000608083016000808401549050612e02816137d9565b612e0f60008701826132fe565b5060018401549050612e208161378b565b612e2d6020870182612664565b50600284018583036040870152612e448382612755565b92505060038401549050612e57816137bf565b612e6460608701826127ba565b50819250505092915050565b600061016083016000830151612e8960008601826132fe565b506020830151612e9c60208601826132fe565b506040830151612eaf60408601826132fe565b5060608301518482036060860152612ec78282612802565b91505060808301518482036080860152612ee18282612802565b91505060a083015184820360a0860152612efb8282612802565b91505060c0830151612f1060c08601826132fe565b5060e0830151612f2360e08601826132fe565b50610100830151612f386101008601826132fe565b50610120830151612f4d6101208601826127ba565b50610140830151612f626101408601826127ba565b508091505092915050565b600061016083016000830151612f8660008601826132fe565b506020830151612f9960208601826132fe565b506040830151612fac60408601826132fe565b5060608301518482036060860152612fc48282612802565b91505060808301518482036080860152612fde8282612802565b91505060a083015184820360a0860152612ff88282612802565b91505060c083015161300d60c08601826132fe565b5060e083015161302060e08601826132fe565b506101008301516130356101008601826132fe565b5061012083015161304a6101208601826127ba565b5061014083015161305f6101408601826127ba565b508091505092915050565b600061016083016000808401549050613082816137d9565b61308f60008701826132fe565b50600184015490506130a0816137d9565b6130ad60208701826132fe565b50600284015490506130be816137d9565b6130cb60408701826132fe565b506003840185830360608701526130e2838261283b565b9250506004840185830360808701526130fb838261283b565b9250506005840185830360a0870152613114838261283b565b92505060068401549050613127816137d9565b61313460c08701826132fe565b5060078401549050613145816137d9565b61315260e08701826132fe565b5060088401549050613163816137d9565b6131716101008701826132fe565b5060098401549050613182816137bf565b6131906101208701826127ba565b5061319a816137f3565b6131a86101408701826127ba565b50819250505092915050565b6000610160830160008084015490506131cc816137d9565b6131d960008701826132fe565b50600184015490506131ea816137d9565b6131f760208701826132fe565b5060028401549050613208816137d9565b61321560408701826132fe565b5060038401858303606087015261322c838261283b565b925050600484018583036080870152613245838261283b565b9250506005840185830360a087015261325e838261283b565b92505060068401549050613271816137d9565b61327e60c08701826132fe565b506007840154905061328f816137d9565b61329c60e08701826132fe565b50600884015490506132ad816137d9565b6132bb6101008701826132fe565b50600984015490506132cc816137bf565b6132da6101208701826127ba565b506132e4816137f3565b6132f26101408701826127ba565b50819250505092915050565b6133078161374e565b82525050565b6133168161374e565b82525050565b60006020820190506133316000830184612673565b92915050565b600060208201905081810360008301526133518184612682565b905092915050565b6000602082019050818103600083015261337381846127c9565b905092915050565b60006020820190508181036000830152613394816128ca565b9050919050565b600060208201905081810360008301526133b481612930565b9050919050565b600060208201905081810360008301526133d481612996565b9050919050565b600060208201905081810360008301526133f481612a22565b9050919050565b6000602082019050818103600083015261341481612a88565b9050919050565b6000602082019050818103600083015261343481612aee565b9050919050565b6000602082019050818103600083015261345481612b54565b9050919050565b6000602082019050818103600083015261347481612bba565b9050919050565b6000602082019050818103600083015261349481612bfa565b9050919050565b600060208201905081810360008301526134b58184612c3a565b905092915050565b600060208201905081810360008301526134d78184612d88565b905092915050565b600060208201905081810360008301526134f98184612e70565b905092915050565b6000604082019050818103600083015261351b818561306a565b9050818103602083015261352f8184612deb565b90509392505050565b6000608082019050818103600083015261355281876131b4565b905081810360208301526135668186612deb565b9050818103604083015261357a8185612cd1565b9050613589606083018461330d565b95945050505050565b60006040820190506135a7600083018561330d565b6135b4602083018461330d565b9392505050565b6000819050602082019050919050565b6000819050602082019050919050565b60008190508160005260206000209050919050565b60008190508160005260206000209050919050565b600081519050919050565b600081519050919050565b600081549050919050565b600081519050919050565b600081519050919050565b6000602082019050919050565b6000602082019050919050565b6000600182019050919050565b600082825260208201905092915050565b600082825260208201905092915050565b600082825260208201905092915050565b600082825260208201905092915050565b600073ffffffffffffffffffffffffffffffffffffffff82169050919050565b600073ffffffffffffffffffffffffffffffffffffffff82169050919050565b600060ff82169050919050565b6000819050919050565b60006137098261372e565b9050919050565b600061371b8261372e565b9050919050565b60008115159050919050565b600073ffffffffffffffffffffffffffffffffffffffff82169050919050565b6000819050919050565b60005b8381101561377657808201518184015260208101905061375b565b83811115613785576000848401525b50505050565b600061379e61379983613831565b6136a7565b9050919050565b60006137b86137b383613831565b6136c7565b9050919050565b60006137d26137cd83613831565b6136e7565b9050919050565b60006137ec6137e783613831565b6136f4565b9050919050565b60006138066138018361383e565b6136e7565b9050919050565b600061381982546137d9565b9050919050565b6000601f19601f8301169050919050565b60008160001c9050919050565b60008160081c9050919050565b613854816136fe565b811461385f57600080fd5b50565b61386b81613710565b811461387657600080fd5b50565b6138828161374e565b811461388d57600080fd5b5056fea365627a7a723158203ed41725af12734603673bb59c447f49ea3ac6c6b78dc297ad536696eaf924856c6578706572696d656e74616cf564736f6c63430005100040",
  "source": "// SPDX-License-Identifier: MIT\npragma solidity >=0.4.22 <0.9.0;\npragma experimental ABIEncoderV2;\n\n/// @title Prescription made by the doctor after a consultation\ncontract Prescurity {\n\n    /**\n     * @dev Owner should be the admin\n     * He is responsible for adding Doctors and Pharmacists\n     */\n    address private _owner;\n\n    uint private _doctorId;\n    uint private _pharmacyId;\n    uint private _prescriptionId;\n\n    struct Patient {\n        uint numero_secu;\n        address patientAddress;\n        uint[] prescriptionsIds;\n        bool isValue;\n    }\n\n    struct Doctor {\n        uint id;\n        string speciality;\n        string name;\n        address payable doctorAddress;\n        uint[] prescriptionIds;\n        bool isValue;\n    }\n\n    struct Pharmacy {\n        uint id;\n        string name;\n        address pharmacyAddress;\n        bool isValue;\n    }\n    \n    struct Prescription {\n        uint id;\n        uint patientId;\n        uint doctorId;\n        string medicine;\n        string disease;\n        string frequency;\n        uint256 startTimestamp;\n        uint256 endTimestamp;\n        uint dueToDoctor;\n        bool claimed;\n        bool paid;\n    } \n\n    // set owner as first interactor with the contract\n    constructor() public {\n        _setOwner(msg.sender);\n        _setDoctorId(1);\n        _setPharmacyId(1);\n        _setPrescriptionId(1);\n    }\n\n    enum authentification {\n        anon,\n        patient,\n        doctor,\n        pharmacy\n    }\n\n    mapping (uint => Patient) patientNumSecuMap;\n    mapping(address => Patient) patientAddressMap;\n    mapping (address => authentification) patientAuthentification;\n    mapping (uint => Doctor) doctorIdMap;\n    mapping (address => Doctor) doctorAddressMap;\n    mapping (address => authentification) doctorAuthentification;\n    mapping (uint => Pharmacy) pharmacyIdMap;\n    mapping (address => Pharmacy) pharmacyAddressMap;\n    mapping (address => authentification) pharmacyAuthentification;\n    mapping (uint => Prescription) prescriptionIdMap;\n\n    modifier patientOnly() {\n        if (patientAuthentification[msg.sender] == authentification.patient) {\n            _;\n        } else {\n            revert(\"Sorry, this function is reserved to the patient\");\n        }\n    }\n\n    modifier doctorOnly() {\n        if (doctorAuthentification[msg.sender] == authentification.doctor) {\n            _;\n        } else {\n            revert(\"Sorry, this function is reserved to the doctor\");\n        }\n    }\n    \n    modifier pharmacyOnly(){\n        if (pharmacyAuthentification[msg.sender] == authentification.pharmacy) {\n            _;\n        } else {\n            revert(\"Sorry, this function is reserved to the pharmacy\");\n        }\n    }\n    \n    modifier ownerOnly(){\n        if (getOwner() == msg.sender) {\n            _;\n        } else {\n            revert(\"Sorry, this function is reserved to the owner of the smart contract\");\n        }\n    }\n\n    function uint2str(uint _i) internal pure returns (string memory _uintAsString) {\n        if (_i == 0) {\n            return \"0\";\n        }\n        uint j = _i;\n        uint len;\n        while (j != 0) {\n            len++;\n            j /= 10;\n        }\n        bytes memory bstr = new bytes(len);\n        uint k = len;\n        while (_i != 0) {\n            k = k-1;\n            uint8 temp = (48 + uint8(_i - _i / 10 * 10));\n            bytes1 b1 = bytes1(temp);\n            bstr[k] = b1;\n            _i /= 10;\n        }\n        return string(bstr);\n    }\n\n    function append(string memory a, string memory b) internal pure returns (string memory) {\n        return string(abi.encodePacked(a, b));\n    }\n\n    function getOwner() public view returns (address) {\n        return _owner;\n    }\n\n    function getDoctorId() internal returns (uint) {\n        return _doctorId++;\n    }\n\n    function getPrescriptionId() internal returns (uint) {\n        return _prescriptionId++;\n    }\n\n    function getUserType() view public returns (string memory) {\n        if (doctorAuthentification[msg.sender] == authentification.doctor) {\n            return \"doctor\";\n        }\n        if (pharmacyAuthentification[msg.sender] == authentification.pharmacy) {\n            return \"pharmacy\";\n        }\n        if (patientAuthentification[msg.sender] == authentification.patient) {\n            return \"patient\";\n        }\n        if(msg.sender == getOwner()){\n            return \"owner\";\n        }\n        return \"none\";\n    }\n\n    function addDoctor(address payable addr, string calldata name, string calldata speciality) external ownerOnly {\n        require(doctorAuthentification[addr] != authentification.doctor, \"This address is already defined as a doctor\");\n        require(pharmacyAuthentification[addr] != authentification.pharmacy, \"This address is already defined as a doctor\");\n        uint id = getDoctorId();\n        doctorIdMap[id].id = id;\n        doctorIdMap[id].speciality = speciality;\n        doctorIdMap[id].name = name;\n        doctorIdMap[id].doctorAddress = addr;\n        doctorIdMap[id].isValue = true;\n        doctorAddressMap[addr].id = id;\n        doctorAuthentification[addr] = authentification.doctor;\n    }\n\n    function addPharmacy(address addr, string calldata name) external ownerOnly {\n        require(pharmacyAuthentification[addr] != authentification.pharmacy, \"This address is already defined as a doctor\");\n        require(doctorAuthentification[addr] != authentification.doctor, \"This address is already defined as a doctor\");\n        uint id = getDoctorId();\n        pharmacyIdMap[id].id = id;\n        pharmacyIdMap[id].name = name;\n        pharmacyIdMap[id].pharmacyAddress = addr;\n        pharmacyIdMap[id].isValue = true;\n        pharmacyAddressMap[addr].id = id;\n        pharmacyAuthentification[addr] = authentification.pharmacy;\n    }\n\n    /**\n     * @dev problme: une personne mal-intentione pourrait lier un numro de scu ne lui appartenant pas  une addresse quelconque \n     */\n    function addPatient(uint numero_secu, address addr) external {\n        require(!patientNumSecuMap[numero_secu].isValue, \"This num secu is already defined as a patient\");\n        patientNumSecuMap[numero_secu].numero_secu = numero_secu;\n        patientNumSecuMap[numero_secu].isValue = true;\n        patientNumSecuMap[numero_secu].patientAddress = addr;\n        patientAddressMap[addr].numero_secu = numero_secu;\n        patientAuthentification[addr] = authentification.patient;\n    }\n\n    function addPrescription(uint amountAskedByDoctor, uint numero_secu, string calldata medicine, string calldata disease, string calldata frequency) external doctorOnly {\n        //require(msg.value == amountAskedByDoctor, append(\"Please match the asked value by the doctor: \",uint2str(amountAskedByDoctor)));\n        Doctor storage doctor = doctorAddressMap[msg.sender];\n        Patient storage patient = patientNumSecuMap[numero_secu];\n        uint prescriptionId = getPrescriptionId();\n        patient.prescriptionsIds.push(prescriptionId);\n        doctor.prescriptionIds.push(prescriptionId);\n        prescriptionIdMap[prescriptionId].id = prescriptionId;\n        prescriptionIdMap[prescriptionId].claimed = false;\n        prescriptionIdMap[prescriptionId].paid = false;\n        prescriptionIdMap[prescriptionId].patientId = numero_secu;\n        prescriptionIdMap[prescriptionId].doctorId = doctor.id;\n        prescriptionIdMap[prescriptionId].medicine = medicine;\n        prescriptionIdMap[prescriptionId].frequency = frequency;\n        prescriptionIdMap[prescriptionId].disease = disease;\n        prescriptionIdMap[prescriptionId].dueToDoctor = amountAskedByDoctor;\n        prescriptionIdMap[prescriptionId].startTimestamp = block.timestamp;\n        prescriptionIdMap[prescriptionId].endTimestamp = block.timestamp + 93 days;\n        emit Consultation(prescriptionIdMap[prescriptionId], patient, doctor, amountAskedByDoctor);\n    }\n\n    function payPrescription(uint prescriptionId) payable external patientOnly {\n        require(address(this).balance >= msg.value, \"Balance is not enough\");\n        require(!prescriptionIdMap[prescriptionId].paid, \"Prescription should not be paid\");\n        Prescription storage prescription = prescriptionIdMap[prescriptionId];\n        Doctor storage doctor = doctorIdMap[prescription.doctorId];\n        address payable doctorAddr = doctor.doctorAddress;\n        doctorAddr.transfer(msg.value);\n        emit DoctorPaid(msg.value, doctor.doctorAddress, msg.sender, prescription.doctorId);\n        prescriptionIdMap[prescriptionId].paid = true;\n    }\n\n    function claimPrescription(uint prescriptionId) external pharmacyOnly {\n        require(prescriptionIdMap[prescriptionId].claimed == false, \"This presciption is already claimed\");\n        Prescription storage prescription = prescriptionIdMap[prescriptionId];\n        Patient storage patient = patientNumSecuMap[prescription.patientId];\n        prescriptionIdMap[prescriptionId].claimed = true;\n        emit PharmaClaimed(prescription, msg.sender, patient);\n    }\n\n    function showPrescriptionPatient(uint numSecuPatient) view public returns(Prescription[] memory){\n        //require(numSecuPatient.length == 15, \"not a secu number\");\n\n        Patient storage patient = patientNumSecuMap[numSecuPatient];\n        uint len=5;\n        \n        if(patient.prescriptionsIds.length < 5){\n            len = patient.prescriptionsIds.length;\n        }\n        uint taille=patient.prescriptionsIds.length;\n        Prescription[] memory prescriptions = new Prescription[](len);\n        for(uint i=0; i < len; i++){\n\n            Prescription storage prescription = prescriptionIdMap[patient.prescriptionsIds[taille-1-i]];\n            prescriptions[i] = prescription;\n        }\n        return prescriptions;\n    }\n\n    function getPrescription(uint idprescription) view public doctorOnly returns(Prescription memory) {\n        return prescriptionIdMap[idprescription];\n    }\n\n    function _setOwner(address new_owner) private {\n        address old_owner = _owner;\n        _owner = new_owner;\n        emit DefineOwnership(old_owner, new_owner);\n    }\n\n    function getDoctor(uint iddoctor) view public returns(Doctor memory) {\n        Doctor storage doctor= doctorIdMap[iddoctor];\n        return doctor;\n    }\n\n    function getPatient(uint numPatient) view public returns(Patient memory) {\n        Patient storage patient = patientNumSecuMap[numPatient];\n        return patient;\n    }\n\n    function getPatientAddress(address patientaddress) view public returns(Patient memory) {\n        Patient storage patient = patientAddressMap[patientaddress];\n        return patient;\n    }\n\n    function _setDoctorId(uint index) private {\n        _doctorId = index;\n    }\n\n    function _setPharmacyId(uint index) private {\n        _pharmacyId = index;\n    }\n\n    function _setPrescriptionId(uint index) private {\n        _prescriptionId = index;\n    }\n    \n    event prescriptionsShow(Prescription[] prescription);\n    event PharmaClaimed(Prescription prescription,address indexed pharmaaddress,Patient patient);\n    event DefineOwnership(address indexed old_owner, address indexed new_owner);\n    event Consultation(Prescription prescription, Patient patient, Doctor doctor, uint amount);\n    event DoctorPaid(uint amount, address indexed doctorAddress, address indexed patientAddress, uint doctorId);\n    event RetrieveMedicaments(Patient patient, Pharmacy pharmacy, Prescription prescription);\n}",
  "sourcePath": "/Users/azerpas/school/6th/mastercamp/blockchain/contracts/Prescurity.sol",
  "compiler": {
    "name": "solc",
    "version": "0.5.16+commit.9c3226ce.Emscripten.clang"
  },
  "schemaVersion": "3.3.3",
  "updatedAt": "2021-07-05T09:43:33.954Z",
  "networkType": "ethereum",
  "devdoc": {
    "methods": {
      "addPatient(uint256,address)": {
        "details": "problme: une personne mal-intentione pourrait lier un numro de scu ne lui appartenant pas  une addresse quelconque "
      }
    },
    "title": "Prescription made by the doctor after a consultation"
  },
  "userdoc": {
    "methods": {}
  }
}