{
  "contractName": "Prescurity",
  "abi": [
    {
      "inputs": [],
      "payable": false,
      "stateMutability": "nonpayable",
      "type": "constructor"
    },
    {
      "anonymous": false,
      "inputs": [
        {
          "components": [
            {
              "internalType": "uint256",
              "name": "id",
              "type": "uint256"
            },
            {
              "internalType": "uint256",
              "name": "patientId",
              "type": "uint256"
            },
            {
              "internalType": "uint256",
              "name": "doctorId",
              "type": "uint256"
            },
            {
              "internalType": "string",
              "name": "medicine",
              "type": "string"
            },
            {
              "internalType": "string",
              "name": "disease",
              "type": "string"
            },
            {
              "internalType": "string",
              "name": "frequency",
              "type": "string"
            },
            {
              "internalType": "uint256",
              "name": "startTimestamp",
              "type": "uint256"
            },
            {
              "internalType": "uint256",
              "name": "endTimestamp",
              "type": "uint256"
            },
            {
              "internalType": "uint256",
              "name": "dueToDoctor",
              "type": "uint256"
            },
            {
              "internalType": "bool",
              "name": "claimed",
              "type": "bool"
            },
            {
              "internalType": "bool",
              "name": "paid",
              "type": "bool"
            }
          ],
          "indexed": false,
          "internalType": "struct Prescurity.Prescription",
          "name": "prescription",
          "type": "tuple"
        },
        {
          "components": [
            {
              "internalType": "uint256",
              "name": "numero_secu",
              "type": "uint256"
            },
            {
              "internalType": "address",
              "name": "patientAddress",
              "type": "address"
            },
            {
              "internalType": "uint256[]",
              "name": "prescriptionsIds",
              "type": "uint256[]"
            },
            {
              "internalType": "bool",
              "name": "isValue",
              "type": "bool"
            }
          ],
          "indexed": false,
          "internalType": "struct Prescurity.Patient",
          "name": "patient",
          "type": "tuple"
        },
        {
          "components": [
            {
              "internalType": "uint256",
              "name": "id",
              "type": "uint256"
            },
            {
              "internalType": "string",
              "name": "speciality",
              "type": "string"
            },
            {
              "internalType": "string",
              "name": "name",
              "type": "string"
            },
            {
              "internalType": "address payable",
              "name": "doctorAddress",
              "type": "address"
            },
            {
              "internalType": "bool",
              "name": "isValue",
              "type": "bool"
            }
          ],
          "indexed": false,
          "internalType": "struct Prescurity.Doctor",
          "name": "doctor",
          "type": "tuple"
        },
        {
          "indexed": false,
          "internalType": "uint256",
          "name": "amount",
          "type": "uint256"
        }
      ],
      "name": "Consultation",
      "type": "event"
    },
    {
      "anonymous": false,
      "inputs": [
        {
          "indexed": true,
          "internalType": "address",
          "name": "old_owner",
          "type": "address"
        },
        {
          "indexed": true,
          "internalType": "address",
          "name": "new_owner",
          "type": "address"
        }
      ],
      "name": "DefineOwnership",
      "type": "event"
    },
    {
      "anonymous": false,
      "inputs": [
        {
          "indexed": false,
          "internalType": "uint256",
          "name": "amount",
          "type": "uint256"
        },
        {
          "indexed": true,
          "internalType": "address",
          "name": "doctorAddress",
          "type": "address"
        },
        {
          "indexed": true,
          "internalType": "address",
          "name": "patientAddress",
          "type": "address"
        },
        {
          "indexed": false,
          "internalType": "uint256",
          "name": "doctorId",
          "type": "uint256"
        }
      ],
      "name": "DoctorPaid",
      "type": "event"
    },
    {
      "anonymous": false,
      "inputs": [
        {
          "components": [
            {
              "internalType": "uint256",
              "name": "id",
              "type": "uint256"
            },
            {
              "internalType": "uint256",
              "name": "patientId",
              "type": "uint256"
            },
            {
              "internalType": "uint256",
              "name": "doctorId",
              "type": "uint256"
            },
            {
              "internalType": "string",
              "name": "medicine",
              "type": "string"
            },
            {
              "internalType": "string",
              "name": "disease",
              "type": "string"
            },
            {
              "internalType": "string",
              "name": "frequency",
              "type": "string"
            },
            {
              "internalType": "uint256",
              "name": "startTimestamp",
              "type": "uint256"
            },
            {
              "internalType": "uint256",
              "name": "endTimestamp",
              "type": "uint256"
            },
            {
              "internalType": "uint256",
              "name": "dueToDoctor",
              "type": "uint256"
            },
            {
              "internalType": "bool",
              "name": "claimed",
              "type": "bool"
            },
            {
              "internalType": "bool",
              "name": "paid",
              "type": "bool"
            }
          ],
          "indexed": false,
          "internalType": "struct Prescurity.Prescription",
          "name": "prescription",
          "type": "tuple"
        },
        {
          "indexed": true,
          "internalType": "address",
          "name": "pharmaaddress",
          "type": "address"
        },
        {
          "components": [
            {
              "internalType": "uint256",
              "name": "numero_secu",
              "type": "uint256"
            },
            {
              "internalType": "address",
              "name": "patientAddress",
              "type": "address"
            },
            {
              "internalType": "uint256[]",
              "name": "prescriptionsIds",
              "type": "uint256[]"
            },
            {
              "internalType": "bool",
              "name": "isValue",
              "type": "bool"
            }
          ],
          "indexed": false,
          "internalType": "struct Prescurity.Patient",
          "name": "patient",
          "type": "tuple"
        }
      ],
      "name": "PharmaClaimed",
      "type": "event"
    },
    {
      "anonymous": false,
      "inputs": [
        {
          "components": [
            {
              "internalType": "uint256",
              "name": "numero_secu",
              "type": "uint256"
            },
            {
              "internalType": "address",
              "name": "patientAddress",
              "type": "address"
            },
            {
              "internalType": "uint256[]",
              "name": "prescriptionsIds",
              "type": "uint256[]"
            },
            {
              "internalType": "bool",
              "name": "isValue",
              "type": "bool"
            }
          ],
          "indexed": false,
          "internalType": "struct Prescurity.Patient",
          "name": "patient",
          "type": "tuple"
        },
        {
          "components": [
            {
              "internalType": "uint256",
              "name": "id",
              "type": "uint256"
            },
            {
              "internalType": "string",
              "name": "name",
              "type": "string"
            },
            {
              "internalType": "address",
              "name": "pharmacyAddress",
              "type": "address"
            },
            {
              "internalType": "bool",
              "name": "isValue",
              "type": "bool"
            }
          ],
          "indexed": false,
          "internalType": "struct Prescurity.Pharmacy",
          "name": "pharmacy",
          "type": "tuple"
        },
        {
          "components": [
            {
              "internalType": "uint256",
              "name": "id",
              "type": "uint256"
            },
            {
              "internalType": "uint256",
              "name": "patientId",
              "type": "uint256"
            },
            {
              "internalType": "uint256",
              "name": "doctorId",
              "type": "uint256"
            },
            {
              "internalType": "string",
              "name": "medicine",
              "type": "string"
            },
            {
              "internalType": "string",
              "name": "disease",
              "type": "string"
            },
            {
              "internalType": "string",
              "name": "frequency",
              "type": "string"
            },
            {
              "internalType": "uint256",
              "name": "startTimestamp",
              "type": "uint256"
            },
            {
              "internalType": "uint256",
              "name": "endTimestamp",
              "type": "uint256"
            },
            {
              "internalType": "uint256",
              "name": "dueToDoctor",
              "type": "uint256"
            },
            {
              "internalType": "bool",
              "name": "claimed",
              "type": "bool"
            },
            {
              "internalType": "bool",
              "name": "paid",
              "type": "bool"
            }
          ],
          "indexed": false,
          "internalType": "struct Prescurity.Prescription",
          "name": "prescription",
          "type": "tuple"
        }
      ],
      "name": "RetrieveMedicaments",
      "type": "event"
    },
    {
      "anonymous": false,
      "inputs": [
        {
          "components": [
            {
              "internalType": "uint256",
              "name": "id",
              "type": "uint256"
            },
            {
              "internalType": "uint256",
              "name": "patientId",
              "type": "uint256"
            },
            {
              "internalType": "uint256",
              "name": "doctorId",
              "type": "uint256"
            },
            {
              "internalType": "string",
              "name": "medicine",
              "type": "string"
            },
            {
              "internalType": "string",
              "name": "disease",
              "type": "string"
            },
            {
              "internalType": "string",
              "name": "frequency",
              "type": "string"
            },
            {
              "internalType": "uint256",
              "name": "startTimestamp",
              "type": "uint256"
            },
            {
              "internalType": "uint256",
              "name": "endTimestamp",
              "type": "uint256"
            },
            {
              "internalType": "uint256",
              "name": "dueToDoctor",
              "type": "uint256"
            },
            {
              "internalType": "bool",
              "name": "claimed",
              "type": "bool"
            },
            {
              "internalType": "bool",
              "name": "paid",
              "type": "bool"
            }
          ],
          "indexed": false,
          "internalType": "struct Prescurity.Prescription[]",
          "name": "prescription",
          "type": "tuple[]"
        }
      ],
      "name": "prescriptionsShow",
      "type": "event"
    },
    {
      "constant": true,
      "inputs": [],
      "name": "getOwner",
      "outputs": [
        {
          "internalType": "address",
          "name": "",
          "type": "address"
        }
      ],
      "payable": false,
      "stateMutability": "view",
      "type": "function"
    },
    {
      "constant": true,
      "inputs": [],
      "name": "getUserType",
      "outputs": [
        {
          "internalType": "string",
          "name": "",
          "type": "string"
        }
      ],
      "payable": false,
      "stateMutability": "view",
      "type": "function"
    },
    {
      "constant": false,
      "inputs": [
        {
          "internalType": "address payable",
          "name": "addr",
          "type": "address"
        },
        {
          "internalType": "string",
          "name": "name",
          "type": "string"
        },
        {
          "internalType": "string",
          "name": "speciality",
          "type": "string"
        }
      ],
      "name": "addDoctor",
      "outputs": [],
      "payable": false,
      "stateMutability": "nonpayable",
      "type": "function"
    },
    {
      "constant": false,
      "inputs": [
        {
          "internalType": "address",
          "name": "addr",
          "type": "address"
        },
        {
          "internalType": "string",
          "name": "name",
          "type": "string"
        }
      ],
      "name": "addPharmacy",
      "outputs": [],
      "payable": false,
      "stateMutability": "nonpayable",
      "type": "function"
    },
    {
      "constant": false,
      "inputs": [
        {
          "internalType": "uint256",
          "name": "numero_secu",
          "type": "uint256"
        },
        {
          "internalType": "address",
          "name": "addr",
          "type": "address"
        }
      ],
      "name": "addPatient",
      "outputs": [],
      "payable": false,
      "stateMutability": "nonpayable",
      "type": "function"
    },
    {
      "constant": false,
      "inputs": [
        {
          "internalType": "uint256",
          "name": "amountAskedByDoctor",
          "type": "uint256"
        },
        {
          "internalType": "uint256",
          "name": "numero_secu",
          "type": "uint256"
        },
        {
          "internalType": "string",
          "name": "medicine",
          "type": "string"
        },
        {
          "internalType": "string",
          "name": "disease",
          "type": "string"
        },
        {
          "internalType": "string",
          "name": "frequency",
          "type": "string"
        }
      ],
      "name": "addPrescription",
      "outputs": [],
      "payable": false,
      "stateMutability": "nonpayable",
      "type": "function"
    },
    {
      "constant": false,
      "inputs": [
        {
          "internalType": "uint256",
          "name": "prescriptionId",
          "type": "uint256"
        }
      ],
      "name": "payPrescription",
      "outputs": [],
      "payable": true,
      "stateMutability": "payable",
      "type": "function"
    },
    {
      "constant": false,
      "inputs": [
        {
          "internalType": "uint256",
          "name": "prescriptionId",
          "type": "uint256"
        }
      ],
      "name": "claimPrescription",
      "outputs": [],
      "payable": false,
      "stateMutability": "nonpayable",
      "type": "function"
    },
    {
      "constant": true,
      "inputs": [
        {
          "internalType": "uint256",
          "name": "numSecuPatient",
          "type": "uint256"
        }
      ],
      "name": "showPrescriptionPatient",
      "outputs": [
        {
          "components": [
            {
              "internalType": "uint256",
              "name": "id",
              "type": "uint256"
            },
            {
              "internalType": "uint256",
              "name": "patientId",
              "type": "uint256"
            },
            {
              "internalType": "uint256",
              "name": "doctorId",
              "type": "uint256"
            },
            {
              "internalType": "string",
              "name": "medicine",
              "type": "string"
            },
            {
              "internalType": "string",
              "name": "disease",
              "type": "string"
            },
            {
              "internalType": "string",
              "name": "frequency",
              "type": "string"
            },
            {
              "internalType": "uint256",
              "name": "startTimestamp",
              "type": "uint256"
            },
            {
              "internalType": "uint256",
              "name": "endTimestamp",
              "type": "uint256"
            },
            {
              "internalType": "uint256",
              "name": "dueToDoctor",
              "type": "uint256"
            },
            {
              "internalType": "bool",
              "name": "claimed",
              "type": "bool"
            },
            {
              "internalType": "bool",
              "name": "paid",
              "type": "bool"
            }
          ],
          "internalType": "struct Prescurity.Prescription[]",
          "name": "",
          "type": "tuple[]"
        }
      ],
      "payable": false,
      "stateMutability": "view",
      "type": "function"
    }
  ],
  "bytecode": "0x60806040523480156200001157600080fd5b5062000023336200005f60201b60201c565b6200003560016200012360201b60201c565b6200004760016200012d60201b60201c565b6200005960016200013760201b60201c565b62000141565b60008060009054906101000a900473ffffffffffffffffffffffffffffffffffffffff169050816000806101000a81548173ffffffffffffffffffffffffffffffffffffffff021916908373ffffffffffffffffffffffffffffffffffffffff1602179055508173ffffffffffffffffffffffffffffffffffffffff168173ffffffffffffffffffffffffffffffffffffffff167f98581b7da302c99fda82be041a3e5b468220ad63d7ed673d0b2b1de92dfa4a9660405160405180910390a35050565b8060018190555050565b8060028190555050565b8060038190555050565b612c2280620001516000396000f3fe6080604052600436106100865760003560e01c8063893d20e811610059578063893d20e8146101315780639db683c81461015c578063bcbb493514610185578063df0acd40146101ae578063f934c88d146101ca57610086565b80630709e2841461008b57806334b78998146100b45780633abeaa47146100dd5780634199007714610106575b600080fd5b34801561009757600080fd5b506100b260048036036100ad9190810190611b23565b610207565b005b3480156100c057600080fd5b506100db60048036036100d69190810190611a42565b6103d1565b005b3480156100e957600080fd5b5061010460048036036100ff9190810190611acb565b61073e565b005b34801561011257600080fd5b5061011b610a83565b604051610128919061270f565b60405180910390f35b34801561013d57600080fd5b50610146610d30565b60405161015391906126d2565b60405180910390f35b34801561016857600080fd5b50610183600480360361017e9190810190611b4c565b610d59565b005b34801561019157600080fd5b506101ac60048036036101a79190810190611b88565b610ec1565b005b6101c860048036036101c39190810190611b23565b6111d7565b005b3480156101d657600080fd5b506101f160048036036101ec9190810190611b23565b61148f565b6040516101fe91906126ed565b60405180910390f35b60038081111561021357fe5b600c60003373ffffffffffffffffffffffffffffffffffffffff1673ffffffffffffffffffffffffffffffffffffffff16815260200190815260200160002060009054906101000a900460ff16600381111561026b57fe5b14156103935760001515600e600083815260200190815260200160002060090160009054906101000a900460ff161515146102db576040517f08c379a00000000000000000000000000000000000000000000000000000000081526004016102d290612731565b60405180910390fd5b6000600e600083815260200190815260200160002090506000600460008360010154815260200190815260200160002090506001600e600085815260200190815260200160002060090160006101000a81548160ff0219169083151502179055503373ffffffffffffffffffffffffffffffffffffffff167fd57bcd110700c211647ef97f8252b0f2f6add603da28b029a0c53a000b1ea8ee8383604051610384929190612851565b60405180910390a250506103ce565b6040517f08c379a00000000000000000000000000000000000000000000000000000000081526004016103c5906127f1565b60405180910390fd5b50565b3373ffffffffffffffffffffffffffffffffffffffff166103f0610d30565b73ffffffffffffffffffffffffffffffffffffffff1614156106fc576002600381111561041957fe5b600960008773ffffffffffffffffffffffffffffffffffffffff1673ffffffffffffffffffffffffffffffffffffffff16815260200190815260200160002060009054906101000a900460ff16600381111561047157fe5b14156104b2576040517f08c379a00000000000000000000000000000000000000000000000000000000081526004016104a9906127b1565b60405180910390fd5b6003808111156104be57fe5b600c60008773ffffffffffffffffffffffffffffffffffffffff1673ffffffffffffffffffffffffffffffffffffffff16815260200190815260200160002060009054906101000a900460ff16600381111561051657fe5b1415610557576040517f08c379a000000000000000000000000000000000000000000000000000000000815260040161054e906127b1565b60405180910390fd5b6000610561611886565b905080600760008381526020019081526020016000206000018190555082826007600084815260200190815260200160002060010191906105a39291906118b6565b5084846007600084815260200190815260200160002060020191906105c99291906118b6565b50856007600083815260200190815260200160002060030160006101000a81548173ffffffffffffffffffffffffffffffffffffffff021916908373ffffffffffffffffffffffffffffffffffffffff16021790555060016007600083815260200190815260200160002060030160146101000a81548160ff02191690831515021790555080600860008873ffffffffffffffffffffffffffffffffffffffff1673ffffffffffffffffffffffffffffffffffffffff168152602001908152602001600020600001819055506002600960008873ffffffffffffffffffffffffffffffffffffffff1673ffffffffffffffffffffffffffffffffffffffff16815260200190815260200160002060006101000a81548160ff021916908360038111156106f157fe5b021790555050610737565b6040517f08c379a000000000000000000000000000000000000000000000000000000000815260040161072e90612771565b60405180910390fd5b5050505050565b3373ffffffffffffffffffffffffffffffffffffffff1661075d610d30565b73ffffffffffffffffffffffffffffffffffffffff161415610a435760038081111561078557fe5b600c60008573ffffffffffffffffffffffffffffffffffffffff1673ffffffffffffffffffffffffffffffffffffffff16815260200190815260200160002060009054906101000a900460ff1660038111156107dd57fe5b141561081e576040517f08c379a0000000000000000000000000000000000000000000000000000000008152600401610815906127b1565b60405180910390fd5b6002600381111561082b57fe5b600960008573ffffffffffffffffffffffffffffffffffffffff1673ffffffffffffffffffffffffffffffffffffffff16815260200190815260200160002060009054906101000a900460ff16600381111561088357fe5b14156108c4576040517f08c379a00000000000000000000000000000000000000000000000000000000081526004016108bb906127b1565b60405180910390fd5b60006108ce611886565b905080600a6000838152602001908152602001600020600001819055508282600a600084815260200190815260200160002060010191906109109291906118b6565b5083600a600083815260200190815260200160002060020160006101000a81548173ffffffffffffffffffffffffffffffffffffffff021916908373ffffffffffffffffffffffffffffffffffffffff1602179055506001600a600083815260200190815260200160002060020160146101000a81548160ff02191690831515021790555080600b60008673ffffffffffffffffffffffffffffffffffffffff1673ffffffffffffffffffffffffffffffffffffffff168152602001908152602001600020600001819055506003600c60008673ffffffffffffffffffffffffffffffffffffffff1673ffffffffffffffffffffffffffffffffffffffff16815260200190815260200160002060006101000a81548160ff02191690836003811115610a3857fe5b021790555050610a7e565b6040517f08c379a0000000000000000000000000000000000000000000000000000000008152600401610a7590612771565b60405180910390fd5b505050565b606060026003811115610a9257fe5b600960003373ffffffffffffffffffffffffffffffffffffffff1673ffffffffffffffffffffffffffffffffffffffff16815260200190815260200160002060009054906101000a900460ff166003811115610aea57fe5b1415610b2d576040518060400160405280600681526020017f646f63746f7200000000000000000000000000000000000000000000000000008152509050610d2d565b600380811115610b3957fe5b600c60003373ffffffffffffffffffffffffffffffffffffffff1673ffffffffffffffffffffffffffffffffffffffff16815260200190815260200160002060009054906101000a900460ff166003811115610b9157fe5b1415610bd4576040518060400160405280600881526020017f706861726d6163790000000000000000000000000000000000000000000000008152509050610d2d565b60016003811115610be157fe5b600660003373ffffffffffffffffffffffffffffffffffffffff1673ffffffffffffffffffffffffffffffffffffffff16815260200190815260200160002060009054906101000a900460ff166003811115610c3957fe5b1415610c7c576040518060400160405280600781526020017f70617469656e74000000000000000000000000000000000000000000000000008152509050610d2d565b610c84610d30565b73ffffffffffffffffffffffffffffffffffffffff163373ffffffffffffffffffffffffffffffffffffffff161415610cf4576040518060400160405280600581526020017f6f776e65720000000000000000000000000000000000000000000000000000008152509050610d2d565b6040518060400160405280600481526020017f6e6f6e650000000000000000000000000000000000000000000000000000000081525090505b90565b60008060009054906101000a900473ffffffffffffffffffffffffffffffffffffffff16905090565b6004600083815260200190815260200160002060030160009054906101000a900460ff1615610dbd576040517f08c379a0000000000000000000000000000000000000000000000000000000008152600401610db490612791565b60405180910390fd5b81600460008481526020019081526020016000206000018190555060016004600084815260200190815260200160002060030160006101000a81548160ff021916908315150217905550806004600084815260200190815260200160002060010160006101000a81548173ffffffffffffffffffffffffffffffffffffffff021916908373ffffffffffffffffffffffffffffffffffffffff1602179055506001600660008373ffffffffffffffffffffffffffffffffffffffff1673ffffffffffffffffffffffffffffffffffffffff16815260200190815260200160002060006101000a81548160ff02191690836003811115610eb857fe5b02179055505050565b60026003811115610ece57fe5b600960003373ffffffffffffffffffffffffffffffffffffffff1673ffffffffffffffffffffffffffffffffffffffff16815260200190815260200160002060009054906101000a900460ff166003811115610f2657fe5b1415611192576000600860003373ffffffffffffffffffffffffffffffffffffffff1673ffffffffffffffffffffffffffffffffffffffff16815260200190815260200160002090506000600460008a815260200190815260200160002090506000610f9061189e565b90508160020181908060018154018082558091505090600182039060005260206000200160009091929091909150555080600e6000838152602001908152602001600020600001819055506000600e600083815260200190815260200160002060090160006101000a81548160ff0219169083151502179055506000600e600083815260200190815260200160002060090160016101000a81548160ff02191690831515021790555089600e6000838152602001908152602001600020600101819055508260000154600e6000838152602001908152602001600020600201819055508888600e600084815260200190815260200160002060030191906110989291906118b6565b508484600e600084815260200190815260200160002060050191906110be9291906118b6565b508686600e600084815260200190815260200160002060040191906110e49291906118b6565b508a600e60008381526020019081526020016000206008018190555042600e600083815260200190815260200160002060060181905550627a9b804201600e6000838152602001908152602001600020600701819055507fa127477e3aceb938cd641d354b51096cf033066b6d4f25ce41a1773ad57915d7600e600083815260200190815260200160002083858e6040516111829493929190612888565b60405180910390a15050506111cd565b6040517f08c379a00000000000000000000000000000000000000000000000000000000081526004016111c4906127d1565b60405180910390fd5b5050505050505050565b600160038111156111e457fe5b600660003373ffffffffffffffffffffffffffffffffffffffff1673ffffffffffffffffffffffffffffffffffffffff16815260200190815260200160002060009054906101000a900460ff16600381111561123c57fe5b14156114515734471015611285576040517f08c379a000000000000000000000000000000000000000000000000000000000815260040161127c90612831565b60405180910390fd5b600e600082815260200190815260200160002060090160019054906101000a900460ff16156112e9576040517f08c379a00000000000000000000000000000000000000000000000000000000081526004016112e090612811565b60405180910390fd5b6000600e6000838152602001908152602001600020905060006007600083600201548152602001908152602001600020905060008160030160009054906101000a900473ffffffffffffffffffffffffffffffffffffffff1690508073ffffffffffffffffffffffffffffffffffffffff166108fc349081150290604051600060405180830381858888f1935050505015801561138a573d6000803e3d6000fd5b503373ffffffffffffffffffffffffffffffffffffffff168260030160009054906101000a900473ffffffffffffffffffffffffffffffffffffffff1673ffffffffffffffffffffffffffffffffffffffff167fc063efac985b8a228415ff3bb4f0766a3108513fbb464fe953d78d6543614bf33486600201546040516114129291906128e2565b60405180910390a36001600e600086815260200190815260200160002060090160016101000a81548160ff02191690831515021790555050505061148c565b6040517f08c379a000000000000000000000000000000000000000000000000000000000815260040161148390612751565b60405180910390fd5b50565b606060038081111561149d57fe5b600c60003373ffffffffffffffffffffffffffffffffffffffff1673ffffffffffffffffffffffffffffffffffffffff16815260200190815260200160002060009054906101000a900460ff1660038111156114f557fe5b141561184657600060046000848152602001908152602001600020905060006005905060058260020180549050101561153357816002018054905090505b60608160405190808252806020026020018201604052801561156f57816020015b61155c611936565b8152602001906001900390816115545790505b50905060008090505b8281101561183a576000600e600086600201848154811061159557fe5b9060005260206000200154815260200190815260200160002090508060405180610160016040529081600082015481526020016001820154815260200160028201548152602001600382018054600181600116156101000203166002900480601f0160208091040260200160405190810160405280929190818152602001828054600181600116156101000203166002900480156116745780601f1061164957610100808354040283529160200191611674565b820191906000526020600020905b81548152906001019060200180831161165757829003601f168201915b50505050508152602001600482018054600181600116156101000203166002900480601f0160208091040260200160405190810160405280929190818152602001828054600181600116156101000203166002900480156117165780601f106116eb57610100808354040283529160200191611716565b820191906000526020600020905b8154815290600101906020018083116116f957829003601f168201915b50505050508152602001600582018054600181600116156101000203166002900480601f0160208091040260200160405190810160405280929190818152602001828054600181600116156101000203166002900480156117b85780601f1061178d576101008083540402835291602001916117b8565b820191906000526020600020905b81548152906001019060200180831161179b57829003601f168201915b505050505081526020016006820154815260200160078201548152602001600882015481526020016009820160009054906101000a900460ff161515151581526020016009820160019054906101000a900460ff16151515158152505083838151811061182157fe5b6020026020010181905250508080600101915050611578565b50809350505050611881565b6040517f08c379a0000000000000000000000000000000000000000000000000000000008152600401611878906127f1565b60405180910390fd5b919050565b60006001600081548092919060010191905055905090565b60006003600081548092919060010191905055905090565b828054600181600116156101000203166002900490600052602060002090601f016020900481019282601f106118f757803560ff1916838001178555611925565b82800160010185558215611925579182015b82811115611924578235825591602001919060010190611909565b5b5090506119329190611994565b5090565b6040518061016001604052806000815260200160008152602001600081526020016060815260200160608152602001606081526020016000815260200160008152602001600081526020016000151581526020016000151581525090565b6119b691905b808211156119b257600081600090555060010161199a565b5090565b90565b6000813590506119c881612b9a565b92915050565b6000813590506119dd81612bb1565b92915050565b60008083601f8401126119f557600080fd5b8235905067ffffffffffffffff811115611a0e57600080fd5b602083019150836001820283011115611a2657600080fd5b9250929050565b600081359050611a3c81612bc8565b92915050565b600080600080600060608688031215611a5a57600080fd5b6000611a68888289016119ce565b955050602086013567ffffffffffffffff811115611a8557600080fd5b611a91888289016119e3565b9450945050604086013567ffffffffffffffff811115611ab057600080fd5b611abc888289016119e3565b92509250509295509295909350565b600080600060408486031215611ae057600080fd5b6000611aee868287016119b9565b935050602084013567ffffffffffffffff811115611b0b57600080fd5b611b17868287016119e3565b92509250509250925092565b600060208284031215611b3557600080fd5b6000611b4384828501611a2d565b91505092915050565b60008060408385031215611b5f57600080fd5b6000611b6d85828601611a2d565b9250506020611b7e858286016119b9565b9150509250929050565b60008060008060008060008060a0898b031215611ba457600080fd5b6000611bb28b828c01611a2d565b9850506020611bc38b828c01611a2d565b975050604089013567ffffffffffffffff811115611be057600080fd5b611bec8b828c016119e3565b9650965050606089013567ffffffffffffffff811115611c0b57600080fd5b611c178b828c016119e3565b9450945050608089013567ffffffffffffffff811115611c3657600080fd5b611c428b828c016119e3565b92509250509295985092959890939650565b6000611c608383612323565b905092915050565b6000611c7483836126b4565b60208301905092915050565b611c8981612a38565b82525050565b611c9881612a26565b82525050565b611ca781612a26565b82525050565b6000611cb882612945565b611cc2818561298b565b935083602082028501611cd48561290b565b8060005b85811015611d105784840389528151611cf18582611c54565b9450611cfc83612971565b925060208a01995050600181019050611cd8565b50829750879550505050505092915050565b6000611d2d82612950565b611d37818561299c565b9350611d428361291b565b8060005b83811015611d7a57611d5782612b4f565b611d618882611c68565b9750611d6c8361297e565b925050600181019050611d46565b5085935050505092915050565b611d9081612a4a565b82525050565b6000611da182612966565b611dab81856129be565b9350611dbb818560208601612a80565b611dc481612b62565b840191505092915050565b6000611dda8261295b565b611de481856129ad565b9350611df4818560208601612a80565b611dfd81612b62565b840191505092915050565b600081546001811660008114611e255760018114611e4b57611e8f565b607f6002830416611e3681876129ad565b955060ff198316865260208601935050611e8f565b60028204611e5981876129ad565b9550611e6485612930565b60005b82811015611e8657815481890152600182019150602081019050611e67565b80880195505050505b505092915050565b6000611ea46023836129be565b91507f54686973207072657363697074696f6e20697320616c726561647920636c616960008301527f6d656400000000000000000000000000000000000000000000000000000000006020830152604082019050919050565b6000611f0a602f836129be565b91507f536f7272792c20746869732066756e6374696f6e20697320726573657276656460008301527f20746f207468652070617469656e7400000000000000000000000000000000006020830152604082019050919050565b6000611f706043836129be565b91507f536f7272792c20746869732066756e6374696f6e20697320726573657276656460008301527f20746f20746865206f776e6572206f662074686520736d61727420636f6e747260208301527f61637400000000000000000000000000000000000000000000000000000000006040830152606082019050919050565b6000611ffc602d836129be565b91507f54686973206e756d207365637520697320616c726561647920646566696e656460008301527f20617320612070617469656e74000000000000000000000000000000000000006020830152604082019050919050565b6000612062602b836129be565b91507f54686973206164647265737320697320616c726561647920646566696e65642060008301527f6173206120646f63746f720000000000000000000000000000000000000000006020830152604082019050919050565b60006120c8602e836129be565b91507f536f7272792c20746869732066756e6374696f6e20697320726573657276656460008301527f20746f2074686520646f63746f720000000000000000000000000000000000006020830152604082019050919050565b600061212e6030836129be565b91507f536f7272792c20746869732066756e6374696f6e20697320726573657276656460008301527f20746f2074686520706861726d616379000000000000000000000000000000006020830152604082019050919050565b6000612194601f836129be565b91507f507265736372697074696f6e2073686f756c64206e6f742062652070616964006000830152602082019050919050565b60006121d46015836129be565b91507f42616c616e6365206973206e6f7420656e6f75676800000000000000000000006000830152602082019050919050565b600060a08301600080840154905061221e81612b01565b61222b60008701826126b4565b506001840185830360208701526122428382611e08565b92505060028401858303604087015261225b8382611e08565b9250506003840154905061226e81612acd565b61227b6060870182611c80565b5061228581612b35565b6122926080870182611d87565b50819250505092915050565b60006080830160008084015490506122b581612b01565b6122c260008701826126b4565b50600184015490506122d381612ab3565b6122e06020870182611c8f565b506002840185830360408701526122f78382611d22565b9250506003840154905061230a81612ae7565b6123176060870182611d87565b50819250505092915050565b60006101608301600083015161233c60008601826126b4565b50602083015161234f60208601826126b4565b50604083015161236260408601826126b4565b506060830151848203606086015261237a8282611dcf565b915050608083015184820360808601526123948282611dcf565b91505060a083015184820360a08601526123ae8282611dcf565b91505060c08301516123c360c08601826126b4565b5060e08301516123d660e08601826126b4565b506101008301516123eb6101008601826126b4565b50610120830151612400610120860182611d87565b50610140830151612415610140860182611d87565b508091505092915050565b60006101608301600080840154905061243881612b01565b61244560008701826126b4565b506001840154905061245681612b01565b61246360208701826126b4565b506002840154905061247481612b01565b61248160408701826126b4565b506003840185830360608701526124988382611e08565b9250506004840185830360808701526124b18382611e08565b9250506005840185830360a08701526124ca8382611e08565b925050600684015490506124dd81612b01565b6124ea60c08701826126b4565b50600784015490506124fb81612b01565b61250860e08701826126b4565b506008840154905061251981612b01565b6125276101008701826126b4565b506009840154905061253881612ae7565b612546610120870182611d87565b5061255081612b1b565b61255e610140870182611d87565b50819250505092915050565b60006101608301600080840154905061258281612b01565b61258f60008701826126b4565b50600184015490506125a081612b01565b6125ad60208701826126b4565b50600284015490506125be81612b01565b6125cb60408701826126b4565b506003840185830360608701526125e28382611e08565b9250506004840185830360808701526125fb8382611e08565b9250506005840185830360a08701526126148382611e08565b9250506006840154905061262781612b01565b61263460c08701826126b4565b506007840154905061264581612b01565b61265260e08701826126b4565b506008840154905061266381612b01565b6126716101008701826126b4565b506009840154905061268281612ae7565b612690610120870182611d87565b5061269a81612b1b565b6126a8610140870182611d87565b50819250505092915050565b6126bd81612a76565b82525050565b6126cc81612a76565b82525050565b60006020820190506126e76000830184611c9e565b92915050565b600060208201905081810360008301526127078184611cad565b905092915050565b600060208201905081810360008301526127298184611d96565b905092915050565b6000602082019050818103600083015261274a81611e97565b9050919050565b6000602082019050818103600083015261276a81611efd565b9050919050565b6000602082019050818103600083015261278a81611f63565b9050919050565b600060208201905081810360008301526127aa81611fef565b9050919050565b600060208201905081810360008301526127ca81612055565b9050919050565b600060208201905081810360008301526127ea816120bb565b9050919050565b6000602082019050818103600083015261280a81612121565b9050919050565b6000602082019050818103600083015261282a81612187565b9050919050565b6000602082019050818103600083015261284a816121c7565b9050919050565b6000604082019050818103600083015261286b8185612420565b9050818103602083015261287f818461229e565b90509392505050565b600060808201905081810360008301526128a2818761256a565b905081810360208301526128b6818661229e565b905081810360408301526128ca8185612207565b90506128d960608301846126c3565b95945050505050565b60006040820190506128f760008301856126c3565b61290460208301846126c3565b9392505050565b6000819050602082019050919050565b60008190508160005260206000209050919050565b60008190508160005260206000209050919050565b600081519050919050565b600081549050919050565b600081519050919050565b600081519050919050565b6000602082019050919050565b6000600182019050919050565b600082825260208201905092915050565b600082825260208201905092915050565b600082825260208201905092915050565b600082825260208201905092915050565b600073ffffffffffffffffffffffffffffffffffffffff82169050919050565b600073ffffffffffffffffffffffffffffffffffffffff82169050919050565b600060ff82169050919050565b6000819050919050565b6000612a3182612a56565b9050919050565b6000612a4382612a56565b9050919050565b60008115159050919050565b600073ffffffffffffffffffffffffffffffffffffffff82169050919050565b6000819050919050565b60005b83811015612a9e578082015181840152602081019050612a83565b83811115612aad576000848401525b50505050565b6000612ac6612ac183612b73565b6129cf565b9050919050565b6000612ae0612adb83612b73565b6129ef565b9050919050565b6000612afa612af583612b73565b612a0f565b9050919050565b6000612b14612b0f83612b73565b612a1c565b9050919050565b6000612b2e612b2983612b8d565b612a0f565b9050919050565b6000612b48612b4383612b80565b612a0f565b9050919050565b6000612b5b8254612b01565b9050919050565b6000601f19601f8301169050919050565b60008160001c9050919050565b60008160a01c9050919050565b60008160081c9050919050565b612ba381612a26565b8114612bae57600080fd5b50565b612bba81612a38565b8114612bc557600080fd5b50565b612bd181612a76565b8114612bdc57600080fd5b5056fea365627a7a72315820a6adb5e4c1c61dc7b11faec998d1972e897474373eca5247a84ce4a7d829f9786c6578706572696d656e74616cf564736f6c63430005100040",
  "source": "// SPDX-License-Identifier: MIT\npragma solidity >=0.4.22 <0.9.0;\npragma experimental ABIEncoderV2;\n\n/// @title Prescription made by the doctor after a consultation\ncontract Prescurity {\n\n    /**\n     * @dev Owner should be the admin\n     * He is responsible for adding Doctors and Pharmacists\n     */\n    address private _owner;\n\n    uint private _doctorId;\n    uint private _pharmacyId;\n    uint private _prescriptionId;\n\n    struct Patient {\n        uint numero_secu;\n        address patientAddress;\n        uint[] prescriptionsIds;\n        bool isValue;\n    }\n\n    struct Doctor {\n        uint id;\n        string speciality;\n        string name;\n        address payable doctorAddress;\n        bool isValue;\n    }\n\n    struct Pharmacy {\n        uint id;\n        string name;\n        address pharmacyAddress;\n        bool isValue;\n    }\n    \n    struct Prescription {\n        uint id;\n        uint patientId;\n        uint doctorId;\n        string medicine;\n        string disease;\n        string frequency;\n        uint256 startTimestamp;\n        uint256 endTimestamp;\n        uint dueToDoctor;\n        bool claimed;\n        bool paid;\n    } \n\n    // set owner as first interactor with the contract\n    constructor() public {\n        _setOwner(msg.sender);\n        _setDoctorId(1);\n        _setPharmacyId(1);\n        _setPrescriptionId(1);\n    }\n\n    enum authentification {\n        anon,\n        patient,\n        doctor,\n        pharmacy\n    }\n\n    mapping (uint => Patient) patientNumSecuMap;\n    mapping(address => Patient) patientAddressMap;\n    mapping (address => authentification) patientAuthentification;\n    mapping (uint => Doctor) doctorIdMap;\n    mapping (address => Doctor) doctorAddressMap;\n    mapping (address => authentification) doctorAuthentification;\n    mapping (uint => Pharmacy) pharmacyIdMap;\n    mapping (address => Pharmacy) pharmacyAddressMap;\n    mapping (address => authentification) pharmacyAuthentification;\n    mapping (uint => Prescription) prescIdMap;\n    mapping (uint => Prescription) prescriptionIdMap;\n\n    modifier patientOnly() {\n        if (patientAuthentification[msg.sender] == authentification.patient) {\n            _;\n        } else {\n            revert(\"Sorry, this function is reserved to the patient\");\n        }\n    }\n\n    modifier doctorOnly() {\n        if (doctorAuthentification[msg.sender] == authentification.doctor) {\n            _;\n        } else {\n            revert(\"Sorry, this function is reserved to the doctor\");\n        }\n    }\n    \n    modifier pharmacyOnly(){\n        if (pharmacyAuthentification[msg.sender] == authentification.pharmacy) {\n            _;\n        } else {\n            revert(\"Sorry, this function is reserved to the pharmacy\");\n        }\n    }\n    \n    modifier ownerOnly(){\n        if (getOwner() == msg.sender) {\n            _;\n        } else {\n            revert(\"Sorry, this function is reserved to the owner of the smart contract\");\n        }\n    }\n\n    function uint2str(uint _i) internal pure returns (string memory _uintAsString) {\n        if (_i == 0) {\n            return \"0\";\n        }\n        uint j = _i;\n        uint len;\n        while (j != 0) {\n            len++;\n            j /= 10;\n        }\n        bytes memory bstr = new bytes(len);\n        uint k = len;\n        while (_i != 0) {\n            k = k-1;\n            uint8 temp = (48 + uint8(_i - _i / 10 * 10));\n            bytes1 b1 = bytes1(temp);\n            bstr[k] = b1;\n            _i /= 10;\n        }\n        return string(bstr);\n    }\n\n    function append(string memory a, string memory b) internal pure returns (string memory) {\n        return string(abi.encodePacked(a, b));\n    }\n\n    function getOwner() public view returns (address) {\n        return _owner;\n    }\n\n    function getDoctorId() internal returns (uint) {\n        return _doctorId++;\n    }\n\n    function getPrescriptionId() internal returns (uint) {\n        return _prescriptionId++;\n    }\n\n    function getUserType() view public returns (string memory) {\n        if (doctorAuthentification[msg.sender] == authentification.doctor) {\n            return \"doctor\";\n        }\n        if (pharmacyAuthentification[msg.sender] == authentification.pharmacy) {\n            return \"pharmacy\";\n        }\n        if (patientAuthentification[msg.sender] == authentification.patient) {\n            return \"patient\";\n        }\n        if(msg.sender == getOwner()){\n            return \"owner\";\n        }\n        return \"none\";\n    }\n\n    function addDoctor(address payable addr, string calldata name, string calldata speciality) external ownerOnly {\n        require(doctorAuthentification[addr] != authentification.doctor, \"This address is already defined as a doctor\");\n        require(pharmacyAuthentification[addr] != authentification.pharmacy, \"This address is already defined as a doctor\");\n        uint id = getDoctorId();\n        doctorIdMap[id].id = id;\n        doctorIdMap[id].speciality = speciality;\n        doctorIdMap[id].name = name;\n        doctorIdMap[id].doctorAddress = addr;\n        doctorIdMap[id].isValue = true;\n        doctorAddressMap[addr].id = id;\n        doctorAuthentification[addr] = authentification.doctor;\n    }\n\n    function addPharmacy(address addr, string calldata name) external ownerOnly {\n        require(pharmacyAuthentification[addr] != authentification.pharmacy, \"This address is already defined as a doctor\");\n        require(doctorAuthentification[addr] != authentification.doctor, \"This address is already defined as a doctor\");\n        uint id = getDoctorId();\n        pharmacyIdMap[id].id = id;\n        pharmacyIdMap[id].name = name;\n        pharmacyIdMap[id].pharmacyAddress = addr;\n        pharmacyIdMap[id].isValue = true;\n        pharmacyAddressMap[addr].id = id;\n        pharmacyAuthentification[addr] = authentification.pharmacy;\n    }\n\n    /**\n     * @dev problme: une personne mal-intentione pourrait lier un numro de scu ne lui appartenant pas  une addresse quelconque \n     */\n    function addPatient(uint numero_secu, address addr) external {\n        require(!patientNumSecuMap[numero_secu].isValue, \"This num secu is already defined as a patient\");\n        patientNumSecuMap[numero_secu].numero_secu = numero_secu;\n        patientNumSecuMap[numero_secu].isValue = true;\n        patientNumSecuMap[numero_secu].patientAddress = addr;\n        patientAuthentification[addr] = authentification.patient;\n    }\n\n    function addPrescription(uint amountAskedByDoctor, uint numero_secu, string calldata medicine, string calldata disease, string calldata frequency) external doctorOnly {\n        //require(msg.value == amountAskedByDoctor, append(\"Please match the asked value by the doctor: \",uint2str(amountAskedByDoctor)));\n        Doctor storage doctor = doctorAddressMap[msg.sender];\n        Patient storage patient = patientNumSecuMap[numero_secu];\n        uint prescriptionId = getPrescriptionId();\n        patient.prescriptionsIds.push(prescriptionId);\n        prescriptionIdMap[prescriptionId].id = prescriptionId;\n        prescriptionIdMap[prescriptionId].claimed = false;\n        prescriptionIdMap[prescriptionId].paid = false;\n        prescriptionIdMap[prescriptionId].patientId = numero_secu;\n        prescriptionIdMap[prescriptionId].doctorId = doctor.id;\n        prescriptionIdMap[prescriptionId].medicine = medicine;\n        prescriptionIdMap[prescriptionId].frequency = frequency;\n        prescriptionIdMap[prescriptionId].disease = disease;\n        prescriptionIdMap[prescriptionId].dueToDoctor = amountAskedByDoctor;\n        prescriptionIdMap[prescriptionId].startTimestamp = block.timestamp;\n        prescriptionIdMap[prescriptionId].endTimestamp = block.timestamp + 93 days;\n        emit Consultation(prescriptionIdMap[prescriptionId], patient, doctor, amountAskedByDoctor);\n    }\n\n    function payPrescription(uint prescriptionId) payable external patientOnly {\n        require(address(this).balance >= msg.value, \"Balance is not enough\");\n        require(!prescriptionIdMap[prescriptionId].paid, \"Prescription should not be paid\");\n        Prescription storage prescription = prescriptionIdMap[prescriptionId];\n        Doctor storage doctor = doctorIdMap[prescription.doctorId];\n        address payable doctorAddr = doctor.doctorAddress;\n        doctorAddr.transfer(msg.value);\n        emit DoctorPaid(msg.value, doctor.doctorAddress, msg.sender, prescription.doctorId);\n        prescriptionIdMap[prescriptionId].paid = true;\n    }\n\n    function claimPrescription(uint prescriptionId) external pharmacyOnly {\n        require(prescriptionIdMap[prescriptionId].claimed == false, \"This presciption is already claimed\");\n        Prescription storage prescription = prescriptionIdMap[prescriptionId];\n        Patient storage patient = patientNumSecuMap[prescription.patientId];\n        prescriptionIdMap[prescriptionId].claimed = true;\n        emit PharmaClaimed(prescription, msg.sender, patient);\n    }\n\n    function showPrescriptionPatient(uint numSecuPatient) view public pharmacyOnly returns(Prescription[] memory){\n        //require(numSecuPatient.length == 15, \"not a secu number\");\n\n        Patient storage patient = patientNumSecuMap[numSecuPatient];\n        uint len = 5;\n        if(patient.prescriptionsIds.length < 5){\n            len = patient.prescriptionsIds.length;\n        }\n        Prescription[] memory prescriptions = new Prescription[](len);\n        for(uint i=0; i < len; i++){\n            Prescription storage prescription = prescriptionIdMap[patient.prescriptionsIds[i]];\n            prescriptions[i] = prescription;\n        }\n        return prescriptions;\n    }\n\n    function _setOwner(address new_owner) private {\n        address old_owner = _owner;\n        _owner = new_owner;\n        emit DefineOwnership(old_owner, new_owner);\n    }\n\n    function _setDoctorId(uint index) private {\n        _doctorId = index;\n    }\n\n    function _setPharmacyId(uint index) private {\n        _pharmacyId = index;\n    }\n\n    function _setPrescriptionId(uint index) private {\n        _prescriptionId = index;\n    }\n    \n    event prescriptionsShow(Prescription[] prescription);\n    event PharmaClaimed(Prescription prescription,address indexed pharmaaddress,Patient patient);\n    event DefineOwnership(address indexed old_owner, address indexed new_owner);\n    event Consultation(Prescription prescription, Patient patient, Doctor doctor, uint amount);\n    event DoctorPaid(uint amount, address indexed doctorAddress, address indexed patientAddress, uint doctorId);\n    event RetrieveMedicaments(Patient patient, Pharmacy pharmacy, Prescription prescription);\n}",
  "sourcePath": "/Users/martin/Documents/EFREI/L3/MasterCamp/prescurity-blockchain/contracts/Prescurity.sol",
  "compiler": {
    "name": "solc",
    "version": "0.5.16+commit.9c3226ce.Emscripten.clang"
  },
  "schemaVersion": "3.4.1",
  "updatedAt": "2021-07-01T20:42:51.925Z",
  "networkType": "ethereum",
  "devdoc": {
    "methods": {
      "addPatient(uint256,address)": {
        "details": "problme: une personne mal-intentione pourrait lier un numro de scu ne lui appartenant pas  une addresse quelconque "
      }
    },
    "title": "Prescription made by the doctor after a consultation"
  },
  "userdoc": {
    "methods": {}
  }
}